{
  "_format": "hh-sol-artifact-1",
  "contractName": "MockRouter",
  "sourceName": "contracts/mocks/MockRouter.sol",
  "abi": [
    {
      "inputs": [
        {
          "internalType": "bytes32",
          "name": "",
          "type": "bytes32"
        }
      ],
      "name": "getRequestStatus",
      "outputs": [
        {
          "internalType": "uint64",
          "name": "",
          "type": "uint64"
        },
        {
          "internalType": "uint8",
          "name": "",
          "type": "uint8"
        },
        {
          "internalType": "bytes",
          "name": "",
          "type": "bytes"
        }
      ],
      "stateMutability": "view",
      "type": "function"
    },
    {
      "inputs": [
        {
          "internalType": "uint64",
          "name": "",
          "type": "uint64"
        },
        {
          "internalType": "bytes",
          "name": "",
          "type": "bytes"
        },
        {
          "internalType": "uint32",
          "name": "",
          "type": "uint32"
        },
        {
          "internalType": "bytes32",
          "name": "",
          "type": "bytes32"
        }
      ],
      "name": "sendRequest",
      "outputs": [
        {
          "internalType": "bytes32",
          "name": "",
          "type": "bytes32"
        }
      ],
      "stateMutability": "pure",
      "type": "function"
    }
  ],
  "bytecode": "0x608060405234801561001057600080fd5b506104ad806100206000396000f3fe608060405234801561001057600080fd5b50600436106100365760003560e01c806345d076641461003b578063690ad8f21461006d575b600080fd5b61005560048036038101906100509190610141565b61009d565b6040516100649392919061023d565b60405180910390f35b61008760048036038101906100829190610348565b6100d0565b60405161009491906103df565b60405180910390f35b60008060604260016040516020016100b490610457565b6040516020818303038152906040529250925092509193909250565b60007f123456789012345678901234567890123456789012345678901234567890123460001b905095945050505050565b600080fd5b600080fd5b6000819050919050565b61011e8161010b565b811461012957600080fd5b50565b60008135905061013b81610115565b92915050565b60006020828403121561015757610156610101565b5b60006101658482850161012c565b91505092915050565b600067ffffffffffffffff82169050919050565b61018b8161016e565b82525050565b600060ff82169050919050565b6101a781610191565b82525050565b600081519050919050565b600082825260208201905092915050565b60005b838110156101e75780820151818401526020810190506101cc565b60008484015250505050565b6000601f19601f8301169050919050565b600061020f826101ad565b61021981856101b8565b93506102298185602086016101c9565b610232816101f3565b840191505092915050565b60006060820190506102526000830186610182565b61025f602083018561019e565b81810360408301526102718184610204565b9050949350505050565b6102848161016e565b811461028f57600080fd5b50565b6000813590506102a18161027b565b92915050565b600080fd5b600080fd5b600080fd5b60008083601f8401126102cc576102cb6102a7565b5b8235905067ffffffffffffffff8111156102e9576102e86102ac565b5b602083019150836001820283011115610305576103046102b1565b5b9250929050565b600063ffffffff82169050919050565b6103258161030c565b811461033057600080fd5b50565b6000813590506103428161031c565b92915050565b60008060008060006080868803121561036457610363610101565b5b600061037288828901610292565b955050602086013567ffffffffffffffff81111561039357610392610106565b5b61039f888289016102b6565b945094505060406103b288828901610333565b92505060606103c38882890161012c565b9150509295509295909350565b6103d98161010b565b82525050565b60006020820190506103f460008301846103d0565b92915050565b600082825260208201905092915050565b7f39302c3078313233340000000000000000000000000000000000000000000000600082015250565b60006104416009836103fa565b915061044c8261040b565b602082019050919050565b6000602082019050818103600083015261047081610434565b905091905056fea2646970667358221220c7a7644e9dce6f5369f7e4dfff459c11f294a511628ae706a0558d936fd680b164736f6c63430008130033",
  "linkReferences": {},
  "deployedLinkReferences": {}
}