{
  "_format": "hh-sol-artifact-1",
  "contractName": "ChainlinkAnswerVerifier",
  "sourceName": "contracts/ChainlinkAnswerVerifier.sol",
  "abi": [
    {
      "inputs": [
        {
          "internalType": "address",
          "name": "router",
          "type": "address"
        },
        {
          "internalType": "bytes32",
          "name": "donId",
          "type": "bytes32"
        }
      ],
      "stateMutability": "nonpayable",
      "type": "constructor"
    },
    {
      "inputs": [],
      "name": "EmptyArgs",
      "type": "error"
    },
    {
      "inputs": [],
      "name": "EmptySecrets",
      "type": "error"
    },
    {
      "inputs": [],
      "name": "EmptySource",
      "type": "error"
    },
    {
      "inputs": [],
      "name": "NoInlineSecrets",
      "type": "error"
    },
    {
      "inputs": [],
      "name": "OnlyRouterCanFulfill",
      "type": "error"
    },
    {
      "anonymous": false,
      "inputs": [
        {
          "indexed": false,
          "internalType": "address",
          "name": "caller",
          "type": "address"
        }
      ],
      "name": "CallerAdded",
      "type": "event"
    },
    {
      "anonymous": false,
      "inputs": [
        {
          "indexed": false,
          "internalType": "address",
          "name": "caller",
          "type": "address"
        }
      ],
      "name": "CallerRemoved",
      "type": "event"
    },
    {
      "anonymous": false,
      "inputs": [
        {
          "indexed": false,
          "internalType": "uint64",
          "name": "subscriptionId",
          "type": "uint64"
        },
        {
          "indexed": false,
          "internalType": "bytes",
          "name": "secrets",
          "type": "bytes"
        },
        {
          "indexed": false,
          "internalType": "bytes32",
          "name": "donID",
          "type": "bytes32"
        }
      ],
      "name": "ConfigUpdated",
      "type": "event"
    },
    {
      "anonymous": false,
      "inputs": [
        {
          "indexed": true,
          "internalType": "address",
          "name": "previousOwner",
          "type": "address"
        },
        {
          "indexed": true,
          "internalType": "address",
          "name": "newOwner",
          "type": "address"
        }
      ],
      "name": "OwnershipTransferred",
      "type": "event"
    },
    {
      "anonymous": false,
      "inputs": [
        {
          "indexed": false,
          "internalType": "uint256",
          "name": "threshold",
          "type": "uint256"
        }
      ],
      "name": "PassingScoreThresholdUpdated",
      "type": "event"
    },
    {
      "anonymous": false,
      "inputs": [
        {
          "indexed": true,
          "internalType": "bytes32",
          "name": "id",
          "type": "bytes32"
        }
      ],
      "name": "RequestFulfilled",
      "type": "event"
    },
    {
      "anonymous": false,
      "inputs": [
        {
          "indexed": true,
          "internalType": "bytes32",
          "name": "id",
          "type": "bytes32"
        }
      ],
      "name": "RequestSent",
      "type": "event"
    },
    {
      "anonymous": false,
      "inputs": [
        {
          "indexed": false,
          "internalType": "string",
          "name": "source",
          "type": "string"
        }
      ],
      "name": "SourceCodeUpdated",
      "type": "event"
    },
    {
      "anonymous": false,
      "inputs": [
        {
          "indexed": true,
          "internalType": "bytes32",
          "name": "requestId",
          "type": "bytes32"
        },
        {
          "indexed": false,
          "internalType": "uint256",
          "name": "score",
          "type": "uint256"
        },
        {
          "indexed": false,
          "internalType": "bytes32",
          "name": "resultsHash",
          "type": "bytes32"
        }
      ],
      "name": "VerificationFulfilled",
      "type": "event"
    },
    {
      "anonymous": false,
      "inputs": [
        {
          "indexed": true,
          "internalType": "bytes32",
          "name": "requestId",
          "type": "bytes32"
        },
        {
          "indexed": true,
          "internalType": "address",
          "name": "user",
          "type": "address"
        },
        {
          "indexed": true,
          "internalType": "string",
          "name": "questionSetId",
          "type": "string"
        },
        {
          "indexed": false,
          "internalType": "bytes32",
          "name": "answersHash",
          "type": "bytes32"
        }
      ],
      "name": "VerificationRequested",
      "type": "event"
    },
    {
      "inputs": [
        {
          "internalType": "address",
          "name": "callerAddress",
          "type": "address"
        }
      ],
      "name": "addCaller",
      "outputs": [],
      "stateMutability": "nonpayable",
      "type": "function"
    },
    {
      "inputs": [
        {
          "internalType": "address",
          "name": "",
          "type": "address"
        }
      ],
      "name": "authorizedCallers",
      "outputs": [
        {
          "internalType": "bool",
          "name": "",
          "type": "bool"
        }
      ],
      "stateMutability": "view",
      "type": "function"
    },
    {
      "inputs": [
        {
          "internalType": "bytes32",
          "name": "requestId",
          "type": "bytes32"
        }
      ],
      "name": "checkVerification",
      "outputs": [
        {
          "internalType": "bool",
          "name": "fulfilled",
          "type": "bool"
        },
        {
          "internalType": "bool",
          "name": "passed",
          "type": "bool"
        },
        {
          "internalType": "uint256",
          "name": "score",
          "type": "uint256"
        },
        {
          "internalType": "bytes32",
          "name": "resultsHash",
          "type": "bytes32"
        }
      ],
      "stateMutability": "view",
      "type": "function"
    },
    {
      "inputs": [],
      "name": "donID",
      "outputs": [
        {
          "internalType": "bytes32",
          "name": "",
          "type": "bytes32"
        }
      ],
      "stateMutability": "view",
      "type": "function"
    },
    {
      "inputs": [],
      "name": "evaluationSource",
      "outputs": [
        {
          "internalType": "string",
          "name": "",
          "type": "string"
        }
      ],
      "stateMutability": "view",
      "type": "function"
    },
    {
      "inputs": [],
      "name": "gasLimit",
      "outputs": [
        {
          "internalType": "uint32",
          "name": "",
          "type": "uint32"
        }
      ],
      "stateMutability": "view",
      "type": "function"
    },
    {
      "inputs": [
        {
          "internalType": "bytes32",
          "name": "requestId",
          "type": "bytes32"
        }
      ],
      "name": "getVerificationRequest",
      "outputs": [
        {
          "components": [
            {
              "internalType": "address",
              "name": "user",
              "type": "address"
            },
            {
              "internalType": "string",
              "name": "questionSetId",
              "type": "string"
            },
            {
              "internalType": "bytes32",
              "name": "answersHash",
              "type": "bytes32"
            },
            {
              "internalType": "bool",
              "name": "fulfilled",
              "type": "bool"
            },
            {
              "internalType": "uint256",
              "name": "score",
              "type": "uint256"
            },
            {
              "internalType": "bytes32",
              "name": "resultsHash",
              "type": "bytes32"
            }
          ],
          "internalType": "struct ChainlinkAnswerVerifier.VerificationRequest",
          "name": "",
          "type": "tuple"
        }
      ],
      "stateMutability": "view",
      "type": "function"
    },
    {
      "inputs": [
        {
          "internalType": "bytes32",
          "name": "requestId",
          "type": "bytes32"
        },
        {
          "internalType": "bytes",
          "name": "response",
          "type": "bytes"
        },
        {
          "internalType": "bytes",
          "name": "err",
          "type": "bytes"
        }
      ],
      "name": "handleOracleFulfillment",
      "outputs": [],
      "stateMutability": "nonpayable",
      "type": "function"
    },
    {
      "inputs": [],
      "name": "owner",
      "outputs": [
        {
          "internalType": "address",
          "name": "",
          "type": "address"
        }
      ],
      "stateMutability": "view",
      "type": "function"
    },
    {
      "inputs": [],
      "name": "passingScoreThreshold",
      "outputs": [
        {
          "internalType": "uint256",
          "name": "",
          "type": "uint256"
        }
      ],
      "stateMutability": "view",
      "type": "function"
    },
    {
      "inputs": [
        {
          "internalType": "address",
          "name": "callerAddress",
          "type": "address"
        }
      ],
      "name": "removeCaller",
      "outputs": [],
      "stateMutability": "nonpayable",
      "type": "function"
    },
    {
      "inputs": [],
      "name": "renounceOwnership",
      "outputs": [],
      "stateMutability": "nonpayable",
      "type": "function"
    },
    {
      "inputs": [],
      "name": "secrets",
      "outputs": [
        {
          "internalType": "bytes",
          "name": "",
          "type": "bytes"
        }
      ],
      "stateMutability": "view",
      "type": "function"
    },
    {
      "inputs": [
        {
          "internalType": "uint256",
          "name": "threshold",
          "type": "uint256"
        }
      ],
      "name": "setPassingScoreThreshold",
      "outputs": [],
      "stateMutability": "nonpayable",
      "type": "function"
    },
    {
      "inputs": [],
      "name": "subscriptionId",
      "outputs": [
        {
          "internalType": "uint64",
          "name": "",
          "type": "uint64"
        }
      ],
      "stateMutability": "view",
      "type": "function"
    },
    {
      "inputs": [
        {
          "internalType": "address",
          "name": "newOwner",
          "type": "address"
        }
      ],
      "name": "transferOwnership",
      "outputs": [],
      "stateMutability": "nonpayable",
      "type": "function"
    },
    {
      "inputs": [
        {
          "internalType": "uint64",
          "name": "_subscriptionId",
          "type": "uint64"
        },
        {
          "internalType": "bytes",
          "name": "_secrets",
          "type": "bytes"
        },
        {
          "internalType": "bytes32",
          "name": "_donId",
          "type": "bytes32"
        }
      ],
      "name": "updateConfig",
      "outputs": [],
      "stateMutability": "nonpayable",
      "type": "function"
    },
    {
      "inputs": [
        {
          "internalType": "string",
          "name": "source",
          "type": "string"
        }
      ],
      "name": "updateEvaluationSource",
      "outputs": [],
      "stateMutability": "nonpayable",
      "type": "function"
    },
    {
      "inputs": [
        {
          "internalType": "bytes32",
          "name": "",
          "type": "bytes32"
        }
      ],
      "name": "verificationRequests",
      "outputs": [
        {
          "internalType": "address",
          "name": "user",
          "type": "address"
        },
        {
          "internalType": "string",
          "name": "questionSetId",
          "type": "string"
        },
        {
          "internalType": "bytes32",
          "name": "answersHash",
          "type": "bytes32"
        },
        {
          "internalType": "bool",
          "name": "fulfilled",
          "type": "bool"
        },
        {
          "internalType": "uint256",
          "name": "score",
          "type": "uint256"
        },
        {
          "internalType": "bytes32",
          "name": "resultsHash",
          "type": "bytes32"
        }
      ],
      "stateMutability": "view",
      "type": "function"
    },
    {
      "inputs": [
        {
          "internalType": "address",
          "name": "user",
          "type": "address"
        },
        {
          "internalType": "string",
          "name": "questionSetId",
          "type": "string"
        },
        {
          "internalType": "bytes32",
          "name": "answersHash",
          "type": "bytes32"
        },
        {
          "internalType": "bytes32",
          "name": "questionSetContentHash",
          "type": "bytes32"
        }
      ],
      "name": "verifyAnswerSet",
      "outputs": [
        {
          "internalType": "bytes32",
          "name": "requestId",
          "type": "bytes32"
        }
      ],
      "stateMutability": "nonpayable",
      "type": "function"
    }
  ],
  "bytecode": "0x60a0604052620493e0600360086101000a81548163ffffffff021916908363ffffffff16021790555060466004553480156200003a57600080fd5b5060405162003f4d38038062003f4d833981810160405281019062000060919062000247565b818073ffffffffffffffffffffffffffffffffffffffff1660808173ffffffffffffffffffffffffffffffffffffffff168152505050620000b6620000aa620000d660201b60201c565b620000de60201b60201c565b620000c733620000de60201b60201c565b8060028190555050506200028e565b600033905090565b60008060009054906101000a900473ffffffffffffffffffffffffffffffffffffffff169050816000806101000a81548173ffffffffffffffffffffffffffffffffffffffff021916908373ffffffffffffffffffffffffffffffffffffffff1602179055508173ffffffffffffffffffffffffffffffffffffffff168173ffffffffffffffffffffffffffffffffffffffff167f8be0079c531659141344cd1fd0a4f28419497f9722a3daafe3b4186f6b6457e060405160405180910390a35050565b600080fd5b600073ffffffffffffffffffffffffffffffffffffffff82169050919050565b6000620001d482620001a7565b9050919050565b620001e681620001c7565b8114620001f257600080fd5b50565b6000815190506200020681620001db565b92915050565b6000819050919050565b62000221816200020c565b81146200022d57600080fd5b50565b600081519050620002418162000216565b92915050565b60008060408385031215620002615762000260620001a2565b5b60006200027185828601620001f5565b9250506020620002848582860162000230565b9150509250929050565b608051613c9c620002b1600039600081816103e50152611cdb0152613c9c6000f3fe608060405234801561001057600080fd5b506004361061012c5760003560e01c806360a91876116100ad5780638da5cb5b116100715780638da5cb5b14610337578063cd7480fa14610355578063eef21cd214610373578063f2fde38b1461038f578063f68016b7146103ab5761012c565b806360a91876146102a45780636e74336b146102c0578063715018a6146102de578063747293fb146102e85780637a21baa0146103045761012c565b8063276e0c1d116100f4578063276e0c1d146101da5780633ee6b544146101f857806342819937146102145780634beb7d3914610244578063536fff6c146102745761012c565b806309c1ba2e146101315780630ca761751461014f5780630f3908c81461016b5780631cb0509e146101a057806321d0cf64146101be575b600080fd5b6101396103c9565b604051610146919061254c565b60405180910390f35b610169600480360381019061016491906126f7565b6103e3565b005b61018560048036038101906101809190612782565b6104a5565b604051610197969594939291906128b2565b60405180910390f35b6101a8610596565b6040516101b5919061291a565b60405180910390f35b6101d860048036038101906101d3919061299c565b610624565b005b6101e261067b565b6040516101ef91906129e9565b60405180910390f35b610212600480360381019061020d9190612a30565b610681565b005b61022e60048036038101906102299190612a89565b61070e565b60405161023b9190612b11565b60405180910390f35b61025e60048036038101906102599190612782565b610cc0565b60405161026b9190612c3b565b60405180910390f35b61028e60048036038101906102899190612c5d565b610e0e565b60405161029b9190612c8a565b60405180910390f35b6102be60048036038101906102b99190612d27565b610e2e565b005b6102c8610ebb565b6040516102d59190612b11565b60405180910390f35b6102e6610ec1565b005b61030260048036038101906102fd9190612c5d565b610ed5565b005b61031e60048036038101906103199190612782565b610f6e565b60405161032e9493929190612d9b565b60405180910390f35b61033f610fc1565b60405161034c9190612de0565b60405180910390f35b61035d610fea565b60405161036a9190612e50565b60405180910390f35b61038d60048036038101906103889190612c5d565b611078565b005b6103a960048036038101906103a49190612c5d565b611112565b005b6103b3611195565b6040516103c09190612e91565b60405180910390f35b600360009054906101000a900467ffffffffffffffff1681565b7f000000000000000000000000000000000000000000000000000000000000000073ffffffffffffffffffffffffffffffffffffffff163373ffffffffffffffffffffffffffffffffffffffff1614610468576040517fc6829f8300000000000000000000000000000000000000000000000000000000815260040160405180910390fd5b6104738383836111ab565b827f85e1543bf2f84fe80c6badbce3648c8539ad1df4d2b3d822938ca0538be727e660405160405180910390a2505050565b60076020528060005260406000206000915090508060000160009054906101000a900473ffffffffffffffffffffffffffffffffffffffff16908060010180546104ee90612edb565b80601f016020809104026020016040519081016040528092919081815260200182805461051a90612edb565b80156105675780601f1061053c57610100808354040283529160200191610567565b820191906000526020600020905b81548152906001019060200180831161054a57829003601f168201915b5050505050908060020154908060030160009054906101000a900460ff16908060040154908060050154905086565b600580546105a390612edb565b80601f01602080910402602001604051908101604052809291908181526020018280546105cf90612edb565b801561061c5780601f106105f15761010080835404028352916020019161061c565b820191906000526020600020905b8154815290600101906020018083116105ff57829003601f168201915b505050505081565b61062c611534565b81816005918261063d9291906130c3565b507fcdbde545f272ac5d7624241a07b8147801f160e2b5b834fd7c656b459f0fa40e828260405161066f9291906131c0565b60405180910390a15050565b60045481565b610689611534565b60648111156106cd576040517f08c379a00000000000000000000000000000000000000000000000000000000081526004016106c490613230565b60405180910390fd5b806004819055507f898b4db46e2416c7162b0bc5956247335c916059287e8c70e5c90ef03764c1198160405161070391906129e9565b60405180910390a150565b6000600160003373ffffffffffffffffffffffffffffffffffffffff1673ffffffffffffffffffffffffffffffffffffffff16815260200190815260200160002060009054906101000a900460ff1661079c576040517f08c379a00000000000000000000000000000000000000000000000000000000081526004016107939061329c565b60405180910390fd5b6000600580546107ab90612edb565b9050116107ed576040517f08c379a00000000000000000000000000000000000000000000000000000000081526004016107e490613308565b60405180910390fd5b6000600360009054906101000a900467ffffffffffffffff1667ffffffffffffffff1603610850576040517f08c379a000000000000000000000000000000000000000000000000000000000815260040161084790613374565b60405180910390fd5b610858612429565b6108fa6000806005805461086b90612edb565b80601f016020809104026020016040519081016040528092919081815260200182805461089790612edb565b80156108e45780601f106108b9576101008083540402835291602001916108e4565b820191906000526020600020905b8154815290600101906020018083116108c757829003601f168201915b5050505050846115b2909392919063ffffffff16565b6000600367ffffffffffffffff811115610917576109166125cc565b5b60405190808252806020026020018201604052801561094a57816020015b60608152602001906001900390816109355790505b50905086868080601f016020809104026020016040519081016040528093929190818152602001838380828437600081840152601f19601f82011690508083019250505050505050816000815181106109a6576109a5613394565b5b60200260200101819052506109ba8561165c565b816001815181106109ce576109cd613394565b5b60200260200101819052506109e28461165c565b816002815181106109f6576109f5613394565b5b6020026020010181905250610a1481836117f990919063ffffffff16565b600060068054610a2390612edb565b90501115610ac957610ac860068054610a3b90612edb565b80601f0160208091040260200160405190810160405280929190818152602001828054610a6790612edb565b8015610ab45780601f10610a8957610100808354040283529160200191610ab4565b820191906000526020600020905b815481529060010190602001808311610a9757829003601f168201915b50505050508361184190919063ffffffff16565b5b6000610b09610ad7846118ba565b600360009054906101000a900467ffffffffffffffff16600360089054906101000a900463ffffffff16600254611cd6565b90506040518060c001604052808a73ffffffffffffffffffffffffffffffffffffffff16815260200189898080601f016020809104026020016040519081016040528093929190818152602001838380828437600081840152601f19601f820116905080830192505050505050508152602001878152602001600015158152602001600081526020016000801b8152506007600083815260200190815260200160002060008201518160000160006101000a81548173ffffffffffffffffffffffffffffffffffffffff021916908373ffffffffffffffffffffffffffffffffffffffff1602179055506020820151816001019081610c0891906133c3565b506040820151816002015560608201518160030160006101000a81548160ff0219169083151502179055506080820151816004015560a082015181600501559050508787604051610c5a9291906134c5565b60405180910390208973ffffffffffffffffffffffffffffffffffffffff16827f696eb1c9b920ece666b1f650f5eb9c3812ef2ddb4b20117abd57db941de1b04989604051610ca99190612b11565b60405180910390a480935050505095945050505050565b610cc861249b565b600760008381526020019081526020016000206040518060c00160405290816000820160009054906101000a900473ffffffffffffffffffffffffffffffffffffffff1673ffffffffffffffffffffffffffffffffffffffff1673ffffffffffffffffffffffffffffffffffffffff168152602001600182018054610d4c90612edb565b80601f0160208091040260200160405190810160405280929190818152602001828054610d7890612edb565b8015610dc55780601f10610d9a57610100808354040283529160200191610dc5565b820191906000526020600020905b815481529060010190602001808311610da857829003601f168201915b50505050508152602001600282015481526020016003820160009054906101000a900460ff16151515158152602001600482015481526020016005820154815250509050919050565b60016020528060005260406000206000915054906101000a900460ff1681565b610e36611534565b83600360006101000a81548167ffffffffffffffff021916908367ffffffffffffffff160217905550828260069182610e70929190613544565b50806002819055507fe16428460be9cd5472e7fd7a9fac0db73191163406111c32500233b4d0396c7784848484604051610ead9493929190613641565b60405180910390a150505050565b60025481565b610ec9611534565b610ed36000611db9565b565b610edd611534565b60018060008373ffffffffffffffffffffffffffffffffffffffff1673ffffffffffffffffffffffffffffffffffffffff16815260200190815260200160002060006101000a81548160ff0219169083151502179055507ff7762e85af7b409451f9a76004c5f755642902434eb11351ae67eb9746888b6981604051610f639190612de0565b60405180910390a150565b60008060008060006007600087815260200190815260200160002090508060030160009054906101000a900460ff1660045482600401541015826004015483600501549450945094509450509193509193565b60008060009054906101000a900473ffffffffffffffffffffffffffffffffffffffff16905090565b60068054610ff790612edb565b80601f016020809104026020016040519081016040528092919081815260200182805461102390612edb565b80156110705780601f1061104557610100808354040283529160200191611070565b820191906000526020600020905b81548152906001019060200180831161105357829003601f168201915b505050505081565b611080611534565b6000600160008373ffffffffffffffffffffffffffffffffffffffff1673ffffffffffffffffffffffffffffffffffffffff16815260200190815260200160002060006101000a81548160ff0219169083151502179055507f50c35a67b454d38c20800d5b55e320f58f4c9c86a28d8ab20f03045d1a38d99a816040516111079190612de0565b60405180910390a150565b61111a611534565b600073ffffffffffffffffffffffffffffffffffffffff168173ffffffffffffffffffffffffffffffffffffffff1603611189576040517f08c379a0000000000000000000000000000000000000000000000000000000008152600401611180906136f3565b60405180910390fd5b61119281611db9565b50565b600360089054906101000a900463ffffffff1681565b600060076000858152602001908152602001600020905060018160030160006101000a81548160ff0219169083151502179055506000825111156112375760008160040181905550837f03833f8ad5c6f9dea9a1eecb5a80970cf73b8bac975b6b9541bf19a6b3b6d7cd60008060001b60405161122992919061374e565b60405180910390a25061152f565b6000839050600081905060008060005b83518110156112f3577f2c000000000000000000000000000000000000000000000000000000000000007effffffffffffffffffffffffffffffffffffffffffffffffffffffffffffff19168482815181106112a6576112a5613394565b5b602001015160f81c60f81b7effffffffffffffffffffffffffffffffffffffffffffffffffffffffffffff1916036112e0578091506112f3565b80806112eb906137a6565b915050611247565b50600081111561138e576000805b8281101561137857600060308683815181106113205761131f613394565b5b602001015160f81c60f81b60f81c61133891906137fb565b9050600a8160ff161015611364578060ff16600a846113579190613830565b6113619190613872565b92505b508080611370906137a6565b915050611301565b5060648111611387578061138a565b60645b9250505b60008060001b90506000821180156113b257506001826113ae9190613872565b8451115b156114dc57600060405180602001604052806000815250905060006001846113da9190613872565b86516113e691906138a6565b67ffffffffffffffff8111156113ff576113fe6125cc565b5b6040519080825280601f01601f1916602001820160405280156114315781602001600182028036833780820191505090505b50905060005b81518110156114ca57866001868361144f9190613872565b6114599190613872565b8151811061146a57611469613394565b5b602001015160f81c60f81b82828151811061148857611487613394565b5b60200101907effffffffffffffffffffffffffffffffffffffffffffffffffffffffffffff1916908160001a90535080806114c2906137a6565b915050611437565b508091506114d782611e7d565b925050505b828660040181905550808660050181905550887f03833f8ad5c6f9dea9a1eecb5a80970cf73b8bac975b6b9541bf19a6b3b6d7cd84836040516115209291906138da565b60405180910390a25050505050505b505050565b61153c611ea6565b73ffffffffffffffffffffffffffffffffffffffff1661155a610fc1565b73ffffffffffffffffffffffffffffffffffffffff16146115b0576040517f08c379a00000000000000000000000000000000000000000000000000000000081526004016115a79061394f565b60405180910390fd5b565b60008151036115ed576040517f22ce3edd00000000000000000000000000000000000000000000000000000000815260040160405180910390fd5b82846000019060028111156116055761160461396f565b5b908160028111156116195761161861396f565b5b8152505081846040019060008111156116355761163461396f565b5b908160008111156116495761164861396f565b5b8152505080846060018190525050505050565b60606000604067ffffffffffffffff81111561167b5761167a6125cc565b5b6040519080825280601f01601f1916602001820160405280156116ad5781602001600182028036833780820191505090505b50905060005b60208110156117ef5780601f6116c991906138a6565b60086116d59190613830565b60026116e19190613ad1565b8460001c6116ef9190613b4b565b60f81b826002836117009190613830565b8151811061171157611710613394565b5b60200101907effffffffffffffffffffffffffffffffffffffffffffffffffffffffffffff1916908160001a905350601081601f61174f91906138a6565b600861175b9190613830565b60026117679190613ad1565b8560001c6117759190613b4b565b61177f9190613b7c565b60f81b8260016002846117929190613830565b61179c9190613872565b815181106117ad576117ac613394565b5b60200101907effffffffffffffffffffffffffffffffffffffffffffffffffffffffffffff1916908160001a90535080806117e7906137a6565b9150506116b3565b5080915050919050565b6000815103611834576040517ffe936cb700000000000000000000000000000000000000000000000000000000815260040160405180910390fd5b808260a001819052505050565b600081510361187c576040517fe889636f00000000000000000000000000000000000000000000000000000000815260040160405180910390fd5b6001826020019060028111156118955761189461396f565b5b908160028111156118a9576118a861396f565b5b815250508082608001819052505050565b606060006118c9610100611eae565b90506119136040518060400160405280600c81526020017f636f64654c6f636174696f6e000000000000000000000000000000000000000081525082611ed590919063ffffffff16565b61193c8360000151600281111561192d5761192c61396f565b5b82611efe90919063ffffffff16565b6119846040518060400160405280600881526020017f6c616e677561676500000000000000000000000000000000000000000000000081525082611ed590919063ffffffff16565b6119ad8360400151600081111561199e5761199d61396f565b5b82611efe90919063ffffffff16565b6119f56040518060400160405280600681526020017f736f75726365000000000000000000000000000000000000000000000000000081525082611ed590919063ffffffff16565b611a0c836060015182611ed590919063ffffffff16565b60008360a00151511115611ac857611a626040518060400160405280600481526020017f617267730000000000000000000000000000000000000000000000000000000081525082611ed590919063ffffffff16565b611a6b81611f4e565b60005b8360a0015151811015611abd57611aac8460a001518281518110611a9557611a94613394565b5b602002602001015183611ed590919063ffffffff16565b80611ab6906137a6565b9050611a6e565b50611ac781611f76565b5b60008360800151511115611c095760006002811115611aea57611ae961396f565b5b83602001516002811115611b0157611b0061396f565b5b03611b38576040517fa80d31f700000000000000000000000000000000000000000000000000000000815260040160405180910390fd5b611b806040518060400160405280600f81526020017f736563726574734c6f636174696f6e000000000000000000000000000000000081525082611ed590919063ffffffff16565b611ba983602001516002811115611b9a57611b9961396f565b5b82611efe90919063ffffffff16565b611bf16040518060400160405280600781526020017f736563726574730000000000000000000000000000000000000000000000000081525082611ed590919063ffffffff16565b611c08836080015182611f9e90919063ffffffff16565b5b60008360c00151511115611cc557611c5f6040518060400160405280600981526020017f627974657341726773000000000000000000000000000000000000000000000081525082611ed590919063ffffffff16565b611c6881611f4e565b60005b8360c0015151811015611cba57611ca98460c001518281518110611c9257611c91613394565b5b602002602001015183611f9e90919063ffffffff16565b80611cb3906137a6565b9050611c6b565b50611cc481611f76565b5b806000015160000151915050919050565b6000807f000000000000000000000000000000000000000000000000000000000000000073ffffffffffffffffffffffffffffffffffffffff1663461d27628688600188886040518663ffffffff1660e01b8152600401611d3b959493929190613bca565b6020604051808303816000875af1158015611d5a573d6000803e3d6000fd5b505050506040513d601f19601f82011682018060405250810190611d7e9190613c39565b9050807f1131472297a800fee664d1d89cfa8f7676ff07189ecc53f80bbb5f4969099db860405160405180910390a280915050949350505050565b60008060009054906101000a900473ffffffffffffffffffffffffffffffffffffffff169050816000806101000a81548173ffffffffffffffffffffffffffffffffffffffff021916908373ffffffffffffffffffffffffffffffffffffffff1602179055508173ffffffffffffffffffffffffffffffffffffffff168173ffffffffffffffffffffffffffffffffffffffff167f8be0079c531659141344cd1fd0a4f28419497f9722a3daafe3b4186f6b6457e060405160405180910390a35050565b6000808290506000815103611e98576000801b915050611ea1565b60208301519150505b919050565b600033905090565b611eb66124ef565b611ec4816000015183611fc7565b506000816020018181525050919050565b611ee28260038351612040565b611ef98183600001516121e990919063ffffffff16565b505050565b611f2060026005600660ff16901b17836000015161220590919063ffffffff16565b50611f4a8282604051602001611f3691906129e9565b604051602081830303815290604052611f9e565b5050565b611f5981600461226f565b600181602001818151611f6c9190613872565b9150818152505050565b611f8181600761226f565b600181602001818151611f9491906138a6565b9150818152505050565b611fab8260028351612040565b611fc28183600001516121e990919063ffffffff16565b505050565b611fcf61250f565b6000602083611fde9190613b7c565b1461200a57602082611ff09190613b7c565b6020611ffc91906138a6565b826120079190613872565b91505b81836020018181525050604051808452600081528281016020018181101561203157600080fd5b80604052505082905092915050565b60178167ffffffffffffffff161161207b576120758160058460ff16901b60ff1617846000015161220590919063ffffffff16565b506121e4565b60ff8167ffffffffffffffff16116120d9576120ae601860058460ff16901b17846000015161220590919063ffffffff16565b506120d38167ffffffffffffffff16600185600001516122959092919063ffffffff16565b506121e3565b61ffff8167ffffffffffffffff16116121385761210d601960058460ff16901b17846000015161220590919063ffffffff16565b506121328167ffffffffffffffff16600285600001516122959092919063ffffffff16565b506121e2565b63ffffffff8167ffffffffffffffff16116121995761216e601a60058460ff16901b17846000015161220590919063ffffffff16565b506121938167ffffffffffffffff16600485600001516122959092919063ffffffff16565b506121e1565b6121ba601b60058460ff16901b17846000015161220590919063ffffffff16565b506121df8167ffffffffffffffff16600885600001516122959092919063ffffffff16565b505b5b5b5b505050565b6121f161250f565b6121fd83838451612322565b905092915050565b61220d61250f565b6000836000015151905060006001826122269190613872565b90508460200151821061224a57612249856002836122449190613830565b612405565b5b84516020838201018581538151831115612262578282525b5050849250505092915050565b612290601f60058360ff16901b17836000015161220590919063ffffffff16565b505050565b61229d61250f565b60008460000151519050600081846122b59190613872565b905085602001518111156122da576122d9866002836122d49190613830565b612405565b5b60006001856101006122ec9190613ad1565b6122f691906138a6565b905086518281018783198251161781528151841115612313578382525b50508693505050509392505050565b61232a61250f565b825182111561233857600080fd5b60008460000151519050600083826123509190613872565b90508560200151811115612375576123748660028361236f9190613830565b612405565b5b60008087518051856020830101935080851115612390578482525b60208901925050505b602086106123d757805182526020826123b29190613872565b91506020816123c19190613872565b90506020866123d091906138a6565b9550612399565b60006001876020036101000a0390508019825116818451168181178552505050879450505050509392505050565b6000826000015190506124188383611fc7565b5061242383826121e9565b50505050565b6040518060e00160405280600060028111156124485761244761396f565b5b8152602001600060028111156124615761246061396f565b5b81526020016000808111156124795761247861396f565b5b8152602001606081526020016060815260200160608152602001606081525090565b6040518060c00160405280600073ffffffffffffffffffffffffffffffffffffffff168152602001606081526020016000801916815260200160001515815260200160008152602001600080191681525090565b604051806040016040528061250261250f565b8152602001600081525090565b604051806040016040528060608152602001600081525090565b600067ffffffffffffffff82169050919050565b61254681612529565b82525050565b6000602082019050612561600083018461253d565b92915050565b6000604051905090565b600080fd5b600080fd5b6000819050919050565b61258e8161257b565b811461259957600080fd5b50565b6000813590506125ab81612585565b92915050565b600080fd5b600080fd5b6000601f19601f8301169050919050565b7f4e487b7100000000000000000000000000000000000000000000000000000000600052604160045260246000fd5b612604826125bb565b810181811067ffffffffffffffff82111715612623576126226125cc565b5b80604052505050565b6000612636612567565b905061264282826125fb565b919050565b600067ffffffffffffffff821115612662576126616125cc565b5b61266b826125bb565b9050602081019050919050565b82818337600083830152505050565b600061269a61269584612647565b61262c565b9050828152602081018484840111156126b6576126b56125b6565b5b6126c1848285612678565b509392505050565b600082601f8301126126de576126dd6125b1565b5b81356126ee848260208601612687565b91505092915050565b6000806000606084860312156127105761270f612571565b5b600061271e8682870161259c565b935050602084013567ffffffffffffffff81111561273f5761273e612576565b5b61274b868287016126c9565b925050604084013567ffffffffffffffff81111561276c5761276b612576565b5b612778868287016126c9565b9150509250925092565b60006020828403121561279857612797612571565b5b60006127a68482850161259c565b91505092915050565b600073ffffffffffffffffffffffffffffffffffffffff82169050919050565b60006127da826127af565b9050919050565b6127ea816127cf565b82525050565b600081519050919050565b600082825260208201905092915050565b60005b8381101561282a57808201518184015260208101905061280f565b60008484015250505050565b6000612841826127f0565b61284b81856127fb565b935061285b81856020860161280c565b612864816125bb565b840191505092915050565b6128788161257b565b82525050565b60008115159050919050565b6128938161287e565b82525050565b6000819050919050565b6128ac81612899565b82525050565b600060c0820190506128c760008301896127e1565b81810360208301526128d98188612836565b90506128e8604083018761286f565b6128f5606083018661288a565b61290260808301856128a3565b61290f60a083018461286f565b979650505050505050565b600060208201905081810360008301526129348184612836565b905092915050565b600080fd5b600080fd5b60008083601f84011261295c5761295b6125b1565b5b8235905067ffffffffffffffff8111156129795761297861293c565b5b60208301915083600182028301111561299557612994612941565b5b9250929050565b600080602083850312156129b3576129b2612571565b5b600083013567ffffffffffffffff8111156129d1576129d0612576565b5b6129dd85828601612946565b92509250509250929050565b60006020820190506129fe60008301846128a3565b92915050565b612a0d81612899565b8114612a1857600080fd5b50565b600081359050612a2a81612a04565b92915050565b600060208284031215612a4657612a45612571565b5b6000612a5484828501612a1b565b91505092915050565b612a66816127cf565b8114612a7157600080fd5b50565b600081359050612a8381612a5d565b92915050565b600080600080600060808688031215612aa557612aa4612571565b5b6000612ab388828901612a74565b955050602086013567ffffffffffffffff811115612ad457612ad3612576565b5b612ae088828901612946565b94509450506040612af38882890161259c565b9250506060612b048882890161259c565b9150509295509295909350565b6000602082019050612b26600083018461286f565b92915050565b612b35816127cf565b82525050565b600082825260208201905092915050565b6000612b57826127f0565b612b618185612b3b565b9350612b7181856020860161280c565b612b7a816125bb565b840191505092915050565b612b8e8161257b565b82525050565b612b9d8161287e565b82525050565b612bac81612899565b82525050565b600060c083016000830151612bca6000860182612b2c565b5060208301518482036020860152612be28282612b4c565b9150506040830151612bf76040860182612b85565b506060830151612c0a6060860182612b94565b506080830151612c1d6080860182612ba3565b5060a0830151612c3060a0860182612b85565b508091505092915050565b60006020820190508181036000830152612c558184612bb2565b905092915050565b600060208284031215612c7357612c72612571565b5b6000612c8184828501612a74565b91505092915050565b6000602082019050612c9f600083018461288a565b92915050565b612cae81612529565b8114612cb957600080fd5b50565b600081359050612ccb81612ca5565b92915050565b60008083601f840112612ce757612ce66125b1565b5b8235905067ffffffffffffffff811115612d0457612d0361293c565b5b602083019150836001820283011115612d2057612d1f612941565b5b9250929050565b60008060008060608587031215612d4157612d40612571565b5b6000612d4f87828801612cbc565b945050602085013567ffffffffffffffff811115612d7057612d6f612576565b5b612d7c87828801612cd1565b93509350506040612d8f8782880161259c565b91505092959194509250565b6000608082019050612db0600083018761288a565b612dbd602083018661288a565b612dca60408301856128a3565b612dd7606083018461286f565b95945050505050565b6000602082019050612df560008301846127e1565b92915050565b600081519050919050565b600082825260208201905092915050565b6000612e2282612dfb565b612e2c8185612e06565b9350612e3c81856020860161280c565b612e45816125bb565b840191505092915050565b60006020820190508181036000830152612e6a8184612e17565b905092915050565b600063ffffffff82169050919050565b612e8b81612e72565b82525050565b6000602082019050612ea66000830184612e82565b92915050565b7f4e487b7100000000000000000000000000000000000000000000000000000000600052602260045260246000fd5b60006002820490506001821680612ef357607f821691505b602082108103612f0657612f05612eac565b5b50919050565b600082905092915050565b60008190508160005260206000209050919050565b60006020601f8301049050919050565b600082821b905092915050565b600060088302612f797fffffffffffffffffffffffffffffffffffffffffffffffffffffffffffffffff82612f3c565b612f838683612f3c565b95508019841693508086168417925050509392505050565b6000819050919050565b6000612fc0612fbb612fb684612899565b612f9b565b612899565b9050919050565b6000819050919050565b612fda83612fa5565b612fee612fe682612fc7565b848454612f49565b825550505050565b600090565b613003612ff6565b61300e818484612fd1565b505050565b5b8181101561303257613027600082612ffb565b600181019050613014565b5050565b601f8211156130775761304881612f17565b61305184612f2c565b81016020851015613060578190505b61307461306c85612f2c565b830182613013565b50505b505050565b600082821c905092915050565b600061309a6000198460080261307c565b1980831691505092915050565b60006130b38383613089565b9150826002028217905092915050565b6130cd8383612f0c565b67ffffffffffffffff8111156130e6576130e56125cc565b5b6130f08254612edb565b6130fb828285613036565b6000601f83116001811461312a5760008415613118578287013590505b61312285826130a7565b86555061318a565b601f19841661313886612f17565b60005b828110156131605784890135825560018201915060208501945060208101905061313b565b8683101561317d5784890135613179601f891682613089565b8355505b6001600288020188555050505b50505050505050565b600061319f83856127fb565b93506131ac838584612678565b6131b5836125bb565b840190509392505050565b600060208201905081810360008301526131db818486613193565b90509392505050565b7f5468726573686f6c64206d75737420626520302d313030000000000000000000600082015250565b600061321a6017836127fb565b9150613225826131e4565b602082019050919050565b600060208201905081810360008301526132498161320d565b9050919050565b7f43616c6c6572206e6f7420617574686f72697a65640000000000000000000000600082015250565b60006132866015836127fb565b915061329182613250565b602082019050919050565b600060208201905081810360008301526132b581613279565b9050919050565b7f536f7572636520636f6465206e6f742073657400000000000000000000000000600082015250565b60006132f26013836127fb565b91506132fd826132bc565b602082019050919050565b60006020820190508181036000830152613321816132e5565b9050919050565b7f537562736372697074696f6e204944206e6f7420736574000000000000000000600082015250565b600061335e6017836127fb565b915061336982613328565b602082019050919050565b6000602082019050818103600083015261338d81613351565b9050919050565b7f4e487b7100000000000000000000000000000000000000000000000000000000600052603260045260246000fd5b6133cc826127f0565b67ffffffffffffffff8111156133e5576133e46125cc565b5b6133ef8254612edb565b6133fa828285613036565b600060209050601f83116001811461342d576000841561341b578287015190505b61342585826130a7565b86555061348d565b601f19841661343b86612f17565b60005b828110156134635784890151825560018201915060208501945060208101905061343e565b86831015613480578489015161347c601f891682613089565b8355505b6001600288020188555050505b505050505050565b600081905092915050565b60006134ac8385613495565b93506134b9838584612678565b82840190509392505050565b60006134d28284866134a0565b91508190509392505050565b600082905092915050565b60008190508160005260206000209050919050565b601f82111561353f57613510816134e9565b61351984612f2c565b81016020851015613528578190505b61353c61353485612f2c565b830182613013565b50505b505050565b61354e83836134de565b67ffffffffffffffff811115613567576135666125cc565b5b6135718254612edb565b61357c8282856134fe565b6000601f8311600181146135ab5760008415613599578287013590505b6135a385826130a7565b86555061360b565b601f1984166135b9866134e9565b60005b828110156135e1578489013582556001820191506020850194506020810190506135bc565b868310156135fe57848901356135fa601f891682613089565b8355505b6001600288020188555050505b50505050505050565b60006136208385612e06565b935061362d838584612678565b613636836125bb565b840190509392505050565b6000606082019050613656600083018761253d565b8181036020830152613669818587613614565b9050613678604083018461286f565b95945050505050565b7f4f776e61626c653a206e6577206f776e657220697320746865207a65726f206160008201527f6464726573730000000000000000000000000000000000000000000000000000602082015250565b60006136dd6026836127fb565b91506136e882613681565b604082019050919050565b6000602082019050818103600083015261370c816136d0565b9050919050565b6000819050919050565b600061373861373361372e84613713565b612f9b565b612899565b9050919050565b6137488161371d565b82525050565b6000604082019050613763600083018561373f565b613770602083018461286f565b9392505050565b7f4e487b7100000000000000000000000000000000000000000000000000000000600052601160045260246000fd5b60006137b182612899565b91507fffffffffffffffffffffffffffffffffffffffffffffffffffffffffffffffff82036137e3576137e2613777565b5b600182019050919050565b600060ff82169050919050565b6000613806826137ee565b9150613811836137ee565b9250828203905060ff81111561382a57613829613777565b5b92915050565b600061383b82612899565b915061384683612899565b925082820261385481612899565b9150828204841483151761386b5761386a613777565b5b5092915050565b600061387d82612899565b915061388883612899565b92508282019050808211156138a05761389f613777565b5b92915050565b60006138b182612899565b91506138bc83612899565b92508282039050818111156138d4576138d3613777565b5b92915050565b60006040820190506138ef60008301856128a3565b6138fc602083018461286f565b9392505050565b7f4f776e61626c653a2063616c6c6572206973206e6f7420746865206f776e6572600082015250565b60006139396020836127fb565b915061394482613903565b602082019050919050565b600060208201905081810360008301526139688161392c565b9050919050565b7f4e487b7100000000000000000000000000000000000000000000000000000000600052602160045260246000fd5b60008160011c9050919050565b6000808291508390505b60018511156139f5578086048111156139d1576139d0613777565b5b60018516156139e05780820291505b80810290506139ee8561399e565b94506139b5565b94509492505050565b600082613a0e5760019050613aca565b81613a1c5760009050613aca565b8160018114613a325760028114613a3c57613a6b565b6001915050613aca565b60ff841115613a4e57613a4d613777565b5b8360020a915084821115613a6557613a64613777565b5b50613aca565b5060208310610133831016604e8410600b8410161715613aa05782820a905083811115613a9b57613a9a613777565b5b613aca565b613aad84848460016139ab565b92509050818404811115613ac457613ac3613777565b5b81810290505b9392505050565b6000613adc82612899565b9150613ae783612899565b9250613b147fffffffffffffffffffffffffffffffffffffffffffffffffffffffffffffffff84846139fe565b905092915050565b7f4e487b7100000000000000000000000000000000000000000000000000000000600052601260045260246000fd5b6000613b5682612899565b9150613b6183612899565b925082613b7157613b70613b1c565b5b828204905092915050565b6000613b8782612899565b9150613b9283612899565b925082613ba257613ba1613b1c565b5b828206905092915050565b600061ffff82169050919050565b613bc481613bad565b82525050565b600060a082019050613bdf600083018861253d565b8181036020830152613bf18187612e17565b9050613c006040830186613bbb565b613c0d6060830185612e82565b613c1a608083018461286f565b9695505050505050565b600081519050613c3381612585565b92915050565b600060208284031215613c4f57613c4e612571565b5b6000613c5d84828501613c24565b9150509291505056fea264697066735822122013553e2bd0a67d2975e63d67c4e03c6c85bd7f69fe7b525c69fb68cda4b4344f64736f6c63430008130033",
  "linkReferences": {},
  "deployedLinkReferences": {}
}