{
  "_format": "hh-sol-artifact-1",
  "contractName": "ChainlinkAnswerVerifier",
  "sourceName": "contracts/ChainlinkAnswerVerifier.sol",
  "abi": [
    {
      "inputs": [
        {
          "internalType": "address",
          "name": "router",
          "type": "address"
        },
        {
          "internalType": "bytes32",
          "name": "donId",
          "type": "bytes32"
        }
      ],
      "stateMutability": "nonpayable",
      "type": "constructor"
    },
    {
      "inputs": [],
      "name": "CallerNotAuthorized",
      "type": "error"
    },
    {
      "inputs": [],
      "name": "EmptyArgs",
      "type": "error"
    },
    {
      "inputs": [],
      "name": "EmptySecrets",
      "type": "error"
    },
    {
      "inputs": [],
      "name": "EmptySource",
      "type": "error"
    },
    {
      "inputs": [],
      "name": "EvaluationSourceNotSet",
      "type": "error"
    },
    {
      "inputs": [],
      "name": "InvalidAnswerHash",
      "type": "error"
    },
    {
      "inputs": [],
      "name": "InvalidPassingThreshold",
      "type": "error"
    },
    {
      "inputs": [],
      "name": "NoInlineSecrets",
      "type": "error"
    },
    {
      "inputs": [],
      "name": "OnlyRouterCanFulfill",
      "type": "error"
    },
    {
      "anonymous": false,
      "inputs": [
        {
          "indexed": false,
          "internalType": "address",
          "name": "caller",
          "type": "address"
        }
      ],
      "name": "CallerAdded",
      "type": "event"
    },
    {
      "anonymous": false,
      "inputs": [
        {
          "indexed": false,
          "internalType": "address",
          "name": "caller",
          "type": "address"
        }
      ],
      "name": "CallerRemoved",
      "type": "event"
    },
    {
      "anonymous": false,
      "inputs": [
        {
          "indexed": false,
          "internalType": "uint64",
          "name": "subscriptionId",
          "type": "uint64"
        },
        {
          "indexed": false,
          "internalType": "bytes",
          "name": "secrets",
          "type": "bytes"
        },
        {
          "indexed": false,
          "internalType": "bytes32",
          "name": "donID",
          "type": "bytes32"
        }
      ],
      "name": "ConfigUpdated",
      "type": "event"
    },
    {
      "anonymous": false,
      "inputs": [
        {
          "indexed": true,
          "internalType": "address",
          "name": "previousOwner",
          "type": "address"
        },
        {
          "indexed": true,
          "internalType": "address",
          "name": "newOwner",
          "type": "address"
        }
      ],
      "name": "OwnershipTransferred",
      "type": "event"
    },
    {
      "anonymous": false,
      "inputs": [
        {
          "indexed": false,
          "internalType": "uint256",
          "name": "threshold",
          "type": "uint256"
        }
      ],
      "name": "PassingScoreThresholdUpdated",
      "type": "event"
    },
    {
      "anonymous": false,
      "inputs": [
        {
          "indexed": true,
          "internalType": "bytes32",
          "name": "id",
          "type": "bytes32"
        }
      ],
      "name": "RequestFulfilled",
      "type": "event"
    },
    {
      "anonymous": false,
      "inputs": [
        {
          "indexed": true,
          "internalType": "bytes32",
          "name": "id",
          "type": "bytes32"
        }
      ],
      "name": "RequestSent",
      "type": "event"
    },
    {
      "anonymous": false,
      "inputs": [
        {
          "indexed": false,
          "internalType": "string",
          "name": "source",
          "type": "string"
        }
      ],
      "name": "SourceCodeUpdated",
      "type": "event"
    },
    {
      "anonymous": false,
      "inputs": [
        {
          "indexed": true,
          "internalType": "bytes32",
          "name": "requestId",
          "type": "bytes32"
        },
        {
          "indexed": false,
          "internalType": "uint256",
          "name": "score",
          "type": "uint256"
        },
        {
          "indexed": false,
          "internalType": "bytes32",
          "name": "resultsHash",
          "type": "bytes32"
        }
      ],
      "name": "VerificationFulfilled",
      "type": "event"
    },
    {
      "anonymous": false,
      "inputs": [
        {
          "indexed": true,
          "internalType": "bytes32",
          "name": "requestId",
          "type": "bytes32"
        },
        {
          "indexed": true,
          "internalType": "address",
          "name": "user",
          "type": "address"
        },
        {
          "indexed": true,
          "internalType": "string",
          "name": "questionSetId",
          "type": "string"
        },
        {
          "indexed": false,
          "internalType": "bytes32",
          "name": "answersHash",
          "type": "bytes32"
        }
      ],
      "name": "VerificationRequested",
      "type": "event"
    },
    {
      "inputs": [
        {
          "internalType": "address",
          "name": "callerAddress",
          "type": "address"
        }
      ],
      "name": "addCaller",
      "outputs": [],
      "stateMutability": "nonpayable",
      "type": "function"
    },
    {
      "inputs": [
        {
          "internalType": "address",
          "name": "",
          "type": "address"
        }
      ],
      "name": "authorizedCallers",
      "outputs": [
        {
          "internalType": "bool",
          "name": "",
          "type": "bool"
        }
      ],
      "stateMutability": "view",
      "type": "function"
    },
    {
      "inputs": [
        {
          "internalType": "bytes32",
          "name": "requestId",
          "type": "bytes32"
        }
      ],
      "name": "checkVerification",
      "outputs": [
        {
          "internalType": "bool",
          "name": "fulfilled",
          "type": "bool"
        },
        {
          "internalType": "bool",
          "name": "passed",
          "type": "bool"
        },
        {
          "internalType": "uint256",
          "name": "score",
          "type": "uint256"
        },
        {
          "internalType": "bytes32",
          "name": "resultsHash",
          "type": "bytes32"
        }
      ],
      "stateMutability": "view",
      "type": "function"
    },
    {
      "inputs": [],
      "name": "donID",
      "outputs": [
        {
          "internalType": "bytes32",
          "name": "",
          "type": "bytes32"
        }
      ],
      "stateMutability": "view",
      "type": "function"
    },
    {
      "inputs": [],
      "name": "evaluationSource",
      "outputs": [
        {
          "internalType": "string",
          "name": "",
          "type": "string"
        }
      ],
      "stateMutability": "view",
      "type": "function"
    },
    {
      "inputs": [],
      "name": "gasLimit",
      "outputs": [
        {
          "internalType": "uint32",
          "name": "",
          "type": "uint32"
        }
      ],
      "stateMutability": "view",
      "type": "function"
    },
    {
      "inputs": [
        {
          "internalType": "bytes32",
          "name": "requestId",
          "type": "bytes32"
        }
      ],
      "name": "getVerificationRequest",
      "outputs": [
        {
          "components": [
            {
              "internalType": "address",
              "name": "user",
              "type": "address"
            },
            {
              "internalType": "string",
              "name": "questionSetId",
              "type": "string"
            },
            {
              "internalType": "bytes32",
              "name": "answersHash",
              "type": "bytes32"
            },
            {
              "internalType": "bool",
              "name": "fulfilled",
              "type": "bool"
            },
            {
              "internalType": "uint256",
              "name": "score",
              "type": "uint256"
            },
            {
              "internalType": "bytes32",
              "name": "resultsHash",
              "type": "bytes32"
            }
          ],
          "internalType": "struct ChainlinkAnswerVerifier.VerificationRequest",
          "name": "",
          "type": "tuple"
        }
      ],
      "stateMutability": "view",
      "type": "function"
    },
    {
      "inputs": [
        {
          "internalType": "bytes32",
          "name": "requestId",
          "type": "bytes32"
        },
        {
          "internalType": "bytes",
          "name": "response",
          "type": "bytes"
        },
        {
          "internalType": "bytes",
          "name": "err",
          "type": "bytes"
        }
      ],
      "name": "handleOracleFulfillment",
      "outputs": [],
      "stateMutability": "nonpayable",
      "type": "function"
    },
    {
      "inputs": [],
      "name": "owner",
      "outputs": [
        {
          "internalType": "address",
          "name": "",
          "type": "address"
        }
      ],
      "stateMutability": "view",
      "type": "function"
    },
    {
      "inputs": [],
      "name": "passingScoreThreshold",
      "outputs": [
        {
          "internalType": "uint256",
          "name": "",
          "type": "uint256"
        }
      ],
      "stateMutability": "view",
      "type": "function"
    },
    {
      "inputs": [
        {
          "internalType": "address",
          "name": "callerAddress",
          "type": "address"
        }
      ],
      "name": "removeCaller",
      "outputs": [],
      "stateMutability": "nonpayable",
      "type": "function"
    },
    {
      "inputs": [],
      "name": "renounceOwnership",
      "outputs": [],
      "stateMutability": "nonpayable",
      "type": "function"
    },
    {
      "inputs": [],
      "name": "secrets",
      "outputs": [
        {
          "internalType": "bytes",
          "name": "",
          "type": "bytes"
        }
      ],
      "stateMutability": "view",
      "type": "function"
    },
    {
      "inputs": [
        {
          "internalType": "uint256",
          "name": "threshold",
          "type": "uint256"
        }
      ],
      "name": "setPassingScoreThreshold",
      "outputs": [],
      "stateMutability": "nonpayable",
      "type": "function"
    },
    {
      "inputs": [],
      "name": "subscriptionId",
      "outputs": [
        {
          "internalType": "uint64",
          "name": "",
          "type": "uint64"
        }
      ],
      "stateMutability": "view",
      "type": "function"
    },
    {
      "inputs": [
        {
          "internalType": "bytes32",
          "name": "mockAnswerHash",
          "type": "bytes32"
        }
      ],
      "name": "testEvaluation",
      "outputs": [
        {
          "internalType": "bool",
          "name": "",
          "type": "bool"
        }
      ],
      "stateMutability": "view",
      "type": "function"
    },
    {
      "inputs": [
        {
          "internalType": "address",
          "name": "newOwner",
          "type": "address"
        }
      ],
      "name": "transferOwnership",
      "outputs": [],
      "stateMutability": "nonpayable",
      "type": "function"
    },
    {
      "inputs": [
        {
          "internalType": "uint64",
          "name": "_subscriptionId",
          "type": "uint64"
        },
        {
          "internalType": "bytes",
          "name": "_secrets",
          "type": "bytes"
        },
        {
          "internalType": "bytes32",
          "name": "_donId",
          "type": "bytes32"
        }
      ],
      "name": "updateConfig",
      "outputs": [],
      "stateMutability": "nonpayable",
      "type": "function"
    },
    {
      "inputs": [
        {
          "internalType": "string",
          "name": "source",
          "type": "string"
        }
      ],
      "name": "updateEvaluationSource",
      "outputs": [],
      "stateMutability": "nonpayable",
      "type": "function"
    },
    {
      "inputs": [
        {
          "internalType": "bytes32",
          "name": "",
          "type": "bytes32"
        }
      ],
      "name": "verificationRequests",
      "outputs": [
        {
          "internalType": "address",
          "name": "user",
          "type": "address"
        },
        {
          "internalType": "string",
          "name": "questionSetId",
          "type": "string"
        },
        {
          "internalType": "bytes32",
          "name": "answersHash",
          "type": "bytes32"
        },
        {
          "internalType": "bool",
          "name": "fulfilled",
          "type": "bool"
        },
        {
          "internalType": "uint256",
          "name": "score",
          "type": "uint256"
        },
        {
          "internalType": "bytes32",
          "name": "resultsHash",
          "type": "bytes32"
        }
      ],
      "stateMutability": "view",
      "type": "function"
    },
    {
      "inputs": [
        {
          "internalType": "address",
          "name": "user",
          "type": "address"
        },
        {
          "internalType": "string",
          "name": "questionSetId",
          "type": "string"
        },
        {
          "internalType": "bytes32",
          "name": "answersHash",
          "type": "bytes32"
        },
        {
          "internalType": "bytes32",
          "name": "questionSetContentHash",
          "type": "bytes32"
        }
      ],
      "name": "verifyAnswerSet",
      "outputs": [
        {
          "internalType": "bytes32",
          "name": "requestId",
          "type": "bytes32"
        }
      ],
      "stateMutability": "nonpayable",
      "type": "function"
    }
  ],
  "bytecode": "0x60a0604052620493e0600360086101000a81548163ffffffff021916908363ffffffff16021790555060466004553480156200003a57600080fd5b5060405162004a4138038062004a41833981810160405281019062000060919062000247565b818073ffffffffffffffffffffffffffffffffffffffff1660808173ffffffffffffffffffffffffffffffffffffffff168152505050620000b6620000aa620000d660201b60201c565b620000de60201b60201c565b620000c733620000de60201b60201c565b8060028190555050506200028e565b600033905090565b60008060009054906101000a900473ffffffffffffffffffffffffffffffffffffffff169050816000806101000a81548173ffffffffffffffffffffffffffffffffffffffff021916908373ffffffffffffffffffffffffffffffffffffffff1602179055508173ffffffffffffffffffffffffffffffffffffffff168173ffffffffffffffffffffffffffffffffffffffff167f8be0079c531659141344cd1fd0a4f28419497f9722a3daafe3b4186f6b6457e060405160405180910390a35050565b600080fd5b600073ffffffffffffffffffffffffffffffffffffffff82169050919050565b6000620001d482620001a7565b9050919050565b620001e681620001c7565b8114620001f257600080fd5b50565b6000815190506200020681620001db565b92915050565b6000819050919050565b62000221816200020c565b81146200022d57600080fd5b50565b600081519050620002418162000216565b92915050565b60008060408385031215620002615762000260620001a2565b5b60006200027185828601620001f5565b9250506020620002848582860162000230565b9150509250929050565b608051614790620002b16000396000818161042001526121ad01526147906000f3fe608060405234801561001057600080fd5b50600436106101375760003560e01c806360a91876116100b85780638da5cb5b1161007c5780638da5cb5b14610342578063cd7480fa14610360578063d9d355581461037e578063eef21cd2146103ae578063f2fde38b146103ca578063f68016b7146103e657610137565b806360a91876146102af5780636e74336b146102cb578063715018a6146102e9578063747293fb146102f35780637a21baa01461030f57610137565b8063276e0c1d116100ff578063276e0c1d146101e55780633ee6b54414610203578063428199371461021f5780634beb7d391461024f578063536fff6c1461027f57610137565b806309c1ba2e1461013c5780630ca761751461015a5780630f3908c8146101765780631cb0509e146101ab57806321d0cf64146101c9575b600080fd5b610144610404565b6040516101519190612c64565b60405180910390f35b610174600480360381019061016f9190612e0f565b61041e565b005b610190600480360381019061018b9190612e9a565b6104e0565b6040516101a296959493929190612fca565b60405180910390f35b6101b36105d1565b6040516101c09190613032565b60405180910390f35b6101e360048036038101906101de91906130b4565b61065f565b005b6101ed6106b6565b6040516101fa9190613101565b60405180910390f35b61021d60048036038101906102189190613148565b6106bc565b005b610239600480360381019061023491906131a1565b610749565b6040516102469190613229565b60405180910390f35b61026960048036038101906102649190612e9a565b610e81565b6040516102769190613353565b60405180910390f35b61029960048036038101906102949190613375565b610fcf565b6040516102a691906133a2565b60405180910390f35b6102c960048036038101906102c4919061343f565b610fef565b005b6102d361107c565b6040516102e09190613229565b60405180910390f35b6102f1611082565b005b61030d60048036038101906103089190613375565b611096565b005b61032960048036038101906103249190612e9a565b61112f565b60405161033994939291906134b3565b60405180910390f35b61034a611182565b60405161035791906134f8565b60405180910390f35b6103686111ab565b6040516103759190613568565b60405180910390f35b61039860048036038101906103939190612e9a565b611239565b6040516103a591906133a2565b60405180910390f35b6103c860048036038101906103c39190613375565b6114ae565b005b6103e460048036038101906103df9190613375565b611548565b005b6103ee6115cb565b6040516103fb91906135a9565b60405180910390f35b600360009054906101000a900467ffffffffffffffff1681565b7f000000000000000000000000000000000000000000000000000000000000000073ffffffffffffffffffffffffffffffffffffffff163373ffffffffffffffffffffffffffffffffffffffff16146104a3576040517fc6829f8300000000000000000000000000000000000000000000000000000000815260040160405180910390fd5b6104ae8383836115e1565b827f85e1543bf2f84fe80c6badbce3648c8539ad1df4d2b3d822938ca0538be727e660405160405180910390a2505050565b60076020528060005260406000206000915090508060000160009054906101000a900473ffffffffffffffffffffffffffffffffffffffff1690806001018054610529906135f3565b80601f0160208091040260200160405190810160405280929190818152602001828054610555906135f3565b80156105a25780601f10610577576101008083540402835291602001916105a2565b820191906000526020600020905b81548152906001019060200180831161058557829003601f168201915b5050505050908060020154908060030160009054906101000a900460ff16908060040154908060050154905086565b600580546105de906135f3565b80601f016020809104026020016040519081016040528092919081815260200182805461060a906135f3565b80156106575780601f1061062c57610100808354040283529160200191610657565b820191906000526020600020905b81548152906001019060200180831161063a57829003601f168201915b505050505081565b61066761196a565b8181600591826106789291906137db565b507fcdbde545f272ac5d7624241a07b8147801f160e2b5b834fd7c656b459f0fa40e82826040516106aa9291906138d8565b60405180910390a15050565b60045481565b6106c461196a565b6064811115610708576040517f08c379a00000000000000000000000000000000000000000000000000000000081526004016106ff90613948565b60405180910390fd5b806004819055507f898b4db46e2416c7162b0bc5956247335c916059287e8c70e5c90ef03764c1198160405161073e9190613101565b60405180910390a150565b6000600160003373ffffffffffffffffffffffffffffffffffffffff1673ffffffffffffffffffffffffffffffffffffffff16815260200190815260200160002060009054906101000a900460ff166107d7576040517f08c379a00000000000000000000000000000000000000000000000000000000081526004016107ce906139b4565b60405180910390fd5b6000600580546107e6906135f3565b905011610828576040517f08c379a000000000000000000000000000000000000000000000000000000000815260040161081f90613a46565b60405180910390fd5b6000600360009054906101000a900467ffffffffffffffff1667ffffffffffffffff160361088b576040517f08c379a000000000000000000000000000000000000000000000000000000000815260040161088290613afe565b60405180910390fd5b6000801b600254036108d2576040517f08c379a00000000000000000000000000000000000000000000000000000000081526004016108c990613b90565b60405180910390fd5b600073ffffffffffffffffffffffffffffffffffffffff168673ffffffffffffffffffffffffffffffffffffffff1603610941576040517f08c379a000000000000000000000000000000000000000000000000000000000815260040161093890613bfc565b60405180910390fd5b60008585905011610987576040517f08c379a000000000000000000000000000000000000000000000000000000000815260040161097e90613c68565b60405180910390fd5b6000801b83036109cc576040517f08c379a00000000000000000000000000000000000000000000000000000000081526004016109c390613cd4565b60405180910390fd5b6000801b8203610a11576040517f08c379a0000000000000000000000000000000000000000000000000000000008152600401610a0890613d66565b60405180910390fd5b610a19612b41565b610abb60008060058054610a2c906135f3565b80601f0160208091040260200160405190810160405280929190818152602001828054610a58906135f3565b8015610aa55780601f10610a7a57610100808354040283529160200191610aa5565b820191906000526020600020905b815481529060010190602001808311610a8857829003601f168201915b5050505050846119e8909392919063ffffffff16565b6000600367ffffffffffffffff811115610ad857610ad7612ce4565b5b604051908082528060200260200182016040528015610b0b57816020015b6060815260200190600190039081610af65790505b50905086868080601f016020809104026020016040519081016040528093929190818152602001838380828437600081840152601f19601f8201169050808301925050505050505081600081518110610b6757610b66613d86565b5b6020026020010181905250610b7b85611a92565b81600181518110610b8f57610b8e613d86565b5b6020026020010181905250610ba384611a92565b81600281518110610bb757610bb6613d86565b5b6020026020010181905250610bd58183611ccb90919063ffffffff16565b600060068054610be4906135f3565b90501115610c8a57610c8960068054610bfc906135f3565b80601f0160208091040260200160405190810160405280929190818152602001828054610c28906135f3565b8015610c755780601f10610c4a57610100808354040283529160200191610c75565b820191906000526020600020905b815481529060010190602001808311610c5857829003601f168201915b505050505083611d1390919063ffffffff16565b5b6000610cca610c9884611d8c565b600360009054906101000a900467ffffffffffffffff16600360089054906101000a900463ffffffff166002546121a8565b90506040518060c001604052808a73ffffffffffffffffffffffffffffffffffffffff16815260200189898080601f016020809104026020016040519081016040528093929190818152602001838380828437600081840152601f19601f820116905080830192505050505050508152602001878152602001600015158152602001600081526020016000801b8152506007600083815260200190815260200160002060008201518160000160006101000a81548173ffffffffffffffffffffffffffffffffffffffff021916908373ffffffffffffffffffffffffffffffffffffffff1602179055506020820151816001019081610dc99190613db5565b506040820151816002015560608201518160030160006101000a81548160ff0219169083151502179055506080820151816004015560a082015181600501559050508787604051610e1b929190613eb7565b60405180910390208973ffffffffffffffffffffffffffffffffffffffff16827f696eb1c9b920ece666b1f650f5eb9c3812ef2ddb4b20117abd57db941de1b04989604051610e6a9190613229565b60405180910390a480935050505095945050505050565b610e89612bb3565b600760008381526020019081526020016000206040518060c00160405290816000820160009054906101000a900473ffffffffffffffffffffffffffffffffffffffff1673ffffffffffffffffffffffffffffffffffffffff1673ffffffffffffffffffffffffffffffffffffffff168152602001600182018054610f0d906135f3565b80601f0160208091040260200160405190810160405280929190818152602001828054610f39906135f3565b8015610f865780601f10610f5b57610100808354040283529160200191610f86565b820191906000526020600020905b815481529060010190602001808311610f6957829003601f168201915b50505050508152602001600282015481526020016003820160009054906101000a900460ff16151515158152602001600482015481526020016005820154815250509050919050565b60016020528060005260406000206000915054906101000a900460ff1681565b610ff761196a565b83600360006101000a81548167ffffffffffffffff021916908367ffffffffffffffff160217905550828260069182611031929190613f36565b50806002819055507fe16428460be9cd5472e7fd7a9fac0db73191163406111c32500233b4d0396c778484848460405161106e9493929190614033565b60405180910390a150505050565b60025481565b61108a61196a565b611094600061228b565b565b61109e61196a565b60018060008373ffffffffffffffffffffffffffffffffffffffff1673ffffffffffffffffffffffffffffffffffffffff16815260200190815260200160002060006101000a81548160ff0219169083151502179055507ff7762e85af7b409451f9a76004c5f755642902434eb11351ae67eb9746888b698160405161112491906134f8565b60405180910390a150565b60008060008060006007600087815260200190815260200160002090508060030160009054906101000a900460ff1660045482600401541015826004015483600501549450945094509450509193509193565b60008060009054906101000a900473ffffffffffffffffffffffffffffffffffffffff16905090565b600680546111b8906135f3565b80601f01602080910402602001604051908101604052809291908181526020018280546111e4906135f3565b80156112315780601f1061120657610100808354040283529160200191611231565b820191906000526020600020905b81548152906001019060200180831161121457829003601f168201915b505050505081565b60008060058054611249906135f3565b905003611282576040517fc22395d000000000000000000000000000000000000000000000000000000000815260040160405180910390fd5b6000801b82036112be576040517f4217f0fb00000000000000000000000000000000000000000000000000000000815260040160405180910390fd5b6000600580546112cd906135f3565b80601f01602080910402602001604051908101604052809291908181526020018280546112f9906135f3565b80156113465780601f1061131b57610100808354040283529160200191611346565b820191906000526020600020905b81548152906001019060200180831161132957829003601f168201915b50505050509050600061135884611a92565b9050604281511461139e576040517f08c379a0000000000000000000000000000000000000000000000000000000008152600401611395906140e5565b60405180910390fd5b6113dd816040518060400160405280600281526020017f307800000000000000000000000000000000000000000000000000000000000081525061234f565b61141c576040517f08c379a000000000000000000000000000000000000000000000000000000000815260040161141390614151565b60405180910390fd5b61145b816040518060400160405280600281526020017f307800000000000000000000000000000000000000000000000000000000000081525061234f565b80156114a257506114a1826040518060400160405280600c81526020017f737562737472696e67283229000000000000000000000000000000000000000081525061242d565b5b50600192505050919050565b6114b661196a565b6000600160008373ffffffffffffffffffffffffffffffffffffffff1673ffffffffffffffffffffffffffffffffffffffff16815260200190815260200160002060006101000a81548160ff0219169083151502179055507f50c35a67b454d38c20800d5b55e320f58f4c9c86a28d8ab20f03045d1a38d99a8160405161153d91906134f8565b60405180910390a150565b61155061196a565b600073ffffffffffffffffffffffffffffffffffffffff168173ffffffffffffffffffffffffffffffffffffffff16036115bf576040517f08c379a00000000000000000000000000000000000000000000000000000000081526004016115b6906141e3565b60405180910390fd5b6115c88161228b565b50565b600360089054906101000a900463ffffffff1681565b600060076000858152602001908152602001600020905060018160030160006101000a81548160ff02191690831515021790555060008251111561166d5760008160040181905550837f03833f8ad5c6f9dea9a1eecb5a80970cf73b8bac975b6b9541bf19a6b3b6d7cd60008060001b60405161165f92919061423e565b60405180910390a250611965565b6000839050600081905060008060005b8351811015611729577f2c000000000000000000000000000000000000000000000000000000000000007effffffffffffffffffffffffffffffffffffffffffffffffffffffffffffff19168482815181106116dc576116db613d86565b5b602001015160f81c60f81b7effffffffffffffffffffffffffffffffffffffffffffffffffffffffffffff19160361171657809150611729565b808061172190614296565b91505061167d565b5060008111156117c4576000805b828110156117ae576000603086838151811061175657611755613d86565b5b602001015160f81c60f81b60f81c61176e91906142eb565b9050600a8160ff16101561179a578060ff16600a8461178d9190614320565b6117979190614362565b92505b5080806117a690614296565b915050611737565b50606481116117bd57806117c0565b60645b9250505b60008060001b90506000821180156117e857506001826117e49190614362565b8451115b1561191257600060405180602001604052806000815250905060006001846118109190614362565b865161181c9190614396565b67ffffffffffffffff81111561183557611834612ce4565b5b6040519080825280601f01601f1916602001820160405280156118675781602001600182028036833780820191505090505b50905060005b81518110156119005786600186836118859190614362565b61188f9190614362565b815181106118a05761189f613d86565b5b602001015160f81c60f81b8282815181106118be576118bd613d86565b5b60200101907effffffffffffffffffffffffffffffffffffffffffffffffffffffffffffff1916908160001a90535080806118f890614296565b91505061186d565b5080915061190d82612558565b925050505b828660040181905550808660050181905550887f03833f8ad5c6f9dea9a1eecb5a80970cf73b8bac975b6b9541bf19a6b3b6d7cd84836040516119569291906143ca565b60405180910390a25050505050505b505050565b611972612581565b73ffffffffffffffffffffffffffffffffffffffff16611990611182565b73ffffffffffffffffffffffffffffffffffffffff16146119e6576040517f08c379a00000000000000000000000000000000000000000000000000000000081526004016119dd9061443f565b60405180910390fd5b565b6000815103611a23576040517f22ce3edd00000000000000000000000000000000000000000000000000000000815260040160405180910390fd5b8284600001906002811115611a3b57611a3a61445f565b5b90816002811115611a4f57611a4e61445f565b5b815250508184604001906000811115611a6b57611a6a61445f565b5b90816000811115611a7f57611a7e61445f565b5b8152505080846060018190525050505050565b60606000604267ffffffffffffffff811115611ab157611ab0612ce4565b5b6040519080825280601f01601f191660200182016040528015611ae35781602001600182028036833780820191505090505b5090507f300000000000000000000000000000000000000000000000000000000000000081600081518110611b1b57611b1a613d86565b5b60200101907effffffffffffffffffffffffffffffffffffffffffffffffffffffffffffff1916908160001a9053507f780000000000000000000000000000000000000000000000000000000000000081600181518110611b7f57611b7e613d86565b5b60200101907effffffffffffffffffffffffffffffffffffffffffffffffffffffffffffff1916908160001a90535060005b6020811015611cc157600081601f611bc99190614396565b6008611bd59190614320565b8560001c901c9050611bed60048260ff16901c612589565b83600284611bfb9190614320565b6002611c079190614362565b81518110611c1857611c17613d86565b5b60200101907effffffffffffffffffffffffffffffffffffffffffffffffffffffffffffff1916908160001a905350611c53600f8216612589565b83600284611c619190614320565b6003611c6d9190614362565b81518110611c7e57611c7d613d86565b5b60200101907effffffffffffffffffffffffffffffffffffffffffffffffffffffffffffff1916908160001a905350508080611cb990614296565b915050611bb1565b5080915050919050565b6000815103611d06576040517ffe936cb700000000000000000000000000000000000000000000000000000000815260040160405180910390fd5b808260a001819052505050565b6000815103611d4e576040517fe889636f00000000000000000000000000000000000000000000000000000000815260040160405180910390fd5b600182602001906002811115611d6757611d6661445f565b5b90816002811115611d7b57611d7a61445f565b5b815250508082608001819052505050565b60606000611d9b6101006125c6565b9050611de56040518060400160405280600c81526020017f636f64654c6f636174696f6e0000000000000000000000000000000000000000815250826125ed90919063ffffffff16565b611e0e83600001516002811115611dff57611dfe61445f565b5b8261261690919063ffffffff16565b611e566040518060400160405280600881526020017f6c616e6775616765000000000000000000000000000000000000000000000000815250826125ed90919063ffffffff16565b611e7f83604001516000811115611e7057611e6f61445f565b5b8261261690919063ffffffff16565b611ec76040518060400160405280600681526020017f736f757263650000000000000000000000000000000000000000000000000000815250826125ed90919063ffffffff16565b611ede8360600151826125ed90919063ffffffff16565b60008360a00151511115611f9a57611f346040518060400160405280600481526020017f6172677300000000000000000000000000000000000000000000000000000000815250826125ed90919063ffffffff16565b611f3d81612666565b60005b8360a0015151811015611f8f57611f7e8460a001518281518110611f6757611f66613d86565b5b6020026020010151836125ed90919063ffffffff16565b80611f8890614296565b9050611f40565b50611f998161268e565b5b600083608001515111156120db5760006002811115611fbc57611fbb61445f565b5b83602001516002811115611fd357611fd261445f565b5b0361200a576040517fa80d31f700000000000000000000000000000000000000000000000000000000815260040160405180910390fd5b6120526040518060400160405280600f81526020017f736563726574734c6f636174696f6e0000000000000000000000000000000000815250826125ed90919063ffffffff16565b61207b8360200151600281111561206c5761206b61445f565b5b8261261690919063ffffffff16565b6120c36040518060400160405280600781526020017f7365637265747300000000000000000000000000000000000000000000000000815250826125ed90919063ffffffff16565b6120da8360800151826126b690919063ffffffff16565b5b60008360c00151511115612197576121316040518060400160405280600981526020017f6279746573417267730000000000000000000000000000000000000000000000815250826125ed90919063ffffffff16565b61213a81612666565b60005b8360c001515181101561218c5761217b8460c00151828151811061216457612163613d86565b5b6020026020010151836126b690919063ffffffff16565b8061218590614296565b905061213d565b506121968161268e565b5b806000015160000151915050919050565b6000807f000000000000000000000000000000000000000000000000000000000000000073ffffffffffffffffffffffffffffffffffffffff1663461d27628688600188886040518663ffffffff1660e01b815260040161220d9594939291906144ab565b6020604051808303816000875af115801561222c573d6000803e3d6000fd5b505050506040513d601f19601f82011682018060405250810190612250919061451a565b9050807f1131472297a800fee664d1d89cfa8f7676ff07189ecc53f80bbb5f4969099db860405160405180910390a280915050949350505050565b60008060009054906101000a900473ffffffffffffffffffffffffffffffffffffffff169050816000806101000a81548173ffffffffffffffffffffffffffffffffffffffff021916908373ffffffffffffffffffffffffffffffffffffffff1602179055508173ffffffffffffffffffffffffffffffffffffffff168173ffffffffffffffffffffffffffffffffffffffff167f8be0079c531659141344cd1fd0a4f28419497f9722a3daafe3b4186f6b6457e060405160405180910390a35050565b600080839050600083905081518151111561236f57600092505050612427565b60005b815181101561241f5781818151811061238e5761238d613d86565b5b602001015160f81c60f81b7effffffffffffffffffffffffffffffffffffffffffffffffffffffffffffff19168382815181106123ce576123cd613d86565b5b602001015160f81c60f81b7effffffffffffffffffffffffffffffffffffffffffffffffffffffffffffff19161461240c5760009350505050612427565b808061241790614296565b915050612372565b506001925050505b92915050565b600080839050600083905081518151111561244d57600092505050612552565b60005b8151835161245e9190614396565b811161254a5760006001905060005b83518110156125225783818151811061248957612488613d86565b5b602001015160f81c60f81b7effffffffffffffffffffffffffffffffffffffffffffffffffffffffffffff19168582856124c39190614362565b815181106124d4576124d3613d86565b5b602001015160f81c60f81b7effffffffffffffffffffffffffffffffffffffffffffffffffffffffffffff19161461250f5760009150612522565b808061251a90614296565b91505061246d565b508015612536576001945050505050612552565b50808061254290614296565b915050612450565b506000925050505b92915050565b6000808290506000815103612573576000801b91505061257c565b60208301519150505b919050565b600033905090565b6000600a8260ff1610156125ae576030826125a49190614547565b60f81b90506125c1565b6057826125bb9190614547565b60f81b90505b919050565b6125ce612c07565b6125dc8160000151836126df565b506000816020018181525050919050565b6125fa8260038351612758565b61261181836000015161290190919063ffffffff16565b505050565b61263860026005600660ff16901b17836000015161291d90919063ffffffff16565b50612662828260405160200161264e9190613101565b6040516020818303038152906040526126b6565b5050565b612671816004612987565b6001816020018181516126849190614362565b9150818152505050565b612699816007612987565b6001816020018181516126ac9190614396565b9150818152505050565b6126c38260028351612758565b6126da81836000015161290190919063ffffffff16565b505050565b6126e7612c27565b60006020836126f691906145ab565b146127225760208261270891906145ab565b60206127149190614396565b8261271f9190614362565b91505b81836020018181525050604051808452600081528281016020018181101561274957600080fd5b80604052505082905092915050565b60178167ffffffffffffffff16116127935761278d8160058460ff16901b60ff1617846000015161291d90919063ffffffff16565b506128fc565b60ff8167ffffffffffffffff16116127f1576127c6601860058460ff16901b17846000015161291d90919063ffffffff16565b506127eb8167ffffffffffffffff16600185600001516129ad9092919063ffffffff16565b506128fb565b61ffff8167ffffffffffffffff161161285057612825601960058460ff16901b17846000015161291d90919063ffffffff16565b5061284a8167ffffffffffffffff16600285600001516129ad9092919063ffffffff16565b506128fa565b63ffffffff8167ffffffffffffffff16116128b157612886601a60058460ff16901b17846000015161291d90919063ffffffff16565b506128ab8167ffffffffffffffff16600485600001516129ad9092919063ffffffff16565b506128f9565b6128d2601b60058460ff16901b17846000015161291d90919063ffffffff16565b506128f78167ffffffffffffffff16600885600001516129ad9092919063ffffffff16565b505b5b5b5b505050565b612909612c27565b61291583838451612a3a565b905092915050565b612925612c27565b60008360000151519050600060018261293e9190614362565b905084602001518210612962576129618560028361295c9190614320565b612b1d565b5b8451602083820101858153815183111561297a578282525b5050849250505092915050565b6129a8601f60058360ff16901b17836000015161291d90919063ffffffff16565b505050565b6129b5612c27565b60008460000151519050600081846129cd9190614362565b905085602001518111156129f2576129f1866002836129ec9190614320565b612b1d565b5b6000600185610100612a04919061470f565b612a0e9190614396565b905086518281018783198251161781528151841115612a2b578382525b50508693505050509392505050565b612a42612c27565b8251821115612a5057600080fd5b6000846000015151905060008382612a689190614362565b90508560200151811115612a8d57612a8c86600283612a879190614320565b612b1d565b5b60008087518051856020830101935080851115612aa8578482525b60208901925050505b60208610612aef5780518252602082612aca9190614362565b9150602081612ad99190614362565b9050602086612ae89190614396565b9550612ab1565b60006001876020036101000a0390508019825116818451168181178552505050879450505050509392505050565b600082600001519050612b3083836126df565b50612b3b8382612901565b50505050565b6040518060e0016040528060006002811115612b6057612b5f61445f565b5b815260200160006002811115612b7957612b7861445f565b5b8152602001600080811115612b9157612b9061445f565b5b8152602001606081526020016060815260200160608152602001606081525090565b6040518060c00160405280600073ffffffffffffffffffffffffffffffffffffffff168152602001606081526020016000801916815260200160001515815260200160008152602001600080191681525090565b6040518060400160405280612c1a612c27565b8152602001600081525090565b604051806040016040528060608152602001600081525090565b600067ffffffffffffffff82169050919050565b612c5e81612c41565b82525050565b6000602082019050612c796000830184612c55565b92915050565b6000604051905090565b600080fd5b600080fd5b6000819050919050565b612ca681612c93565b8114612cb157600080fd5b50565b600081359050612cc381612c9d565b92915050565b600080fd5b600080fd5b6000601f19601f8301169050919050565b7f4e487b7100000000000000000000000000000000000000000000000000000000600052604160045260246000fd5b612d1c82612cd3565b810181811067ffffffffffffffff82111715612d3b57612d3a612ce4565b5b80604052505050565b6000612d4e612c7f565b9050612d5a8282612d13565b919050565b600067ffffffffffffffff821115612d7a57612d79612ce4565b5b612d8382612cd3565b9050602081019050919050565b82818337600083830152505050565b6000612db2612dad84612d5f565b612d44565b905082815260208101848484011115612dce57612dcd612cce565b5b612dd9848285612d90565b509392505050565b600082601f830112612df657612df5612cc9565b5b8135612e06848260208601612d9f565b91505092915050565b600080600060608486031215612e2857612e27612c89565b5b6000612e3686828701612cb4565b935050602084013567ffffffffffffffff811115612e5757612e56612c8e565b5b612e6386828701612de1565b925050604084013567ffffffffffffffff811115612e8457612e83612c8e565b5b612e9086828701612de1565b9150509250925092565b600060208284031215612eb057612eaf612c89565b5b6000612ebe84828501612cb4565b91505092915050565b600073ffffffffffffffffffffffffffffffffffffffff82169050919050565b6000612ef282612ec7565b9050919050565b612f0281612ee7565b82525050565b600081519050919050565b600082825260208201905092915050565b60005b83811015612f42578082015181840152602081019050612f27565b60008484015250505050565b6000612f5982612f08565b612f638185612f13565b9350612f73818560208601612f24565b612f7c81612cd3565b840191505092915050565b612f9081612c93565b82525050565b60008115159050919050565b612fab81612f96565b82525050565b6000819050919050565b612fc481612fb1565b82525050565b600060c082019050612fdf6000830189612ef9565b8181036020830152612ff18188612f4e565b90506130006040830187612f87565b61300d6060830186612fa2565b61301a6080830185612fbb565b61302760a0830184612f87565b979650505050505050565b6000602082019050818103600083015261304c8184612f4e565b905092915050565b600080fd5b600080fd5b60008083601f84011261307457613073612cc9565b5b8235905067ffffffffffffffff81111561309157613090613054565b5b6020830191508360018202830111156130ad576130ac613059565b5b9250929050565b600080602083850312156130cb576130ca612c89565b5b600083013567ffffffffffffffff8111156130e9576130e8612c8e565b5b6130f58582860161305e565b92509250509250929050565b60006020820190506131166000830184612fbb565b92915050565b61312581612fb1565b811461313057600080fd5b50565b6000813590506131428161311c565b92915050565b60006020828403121561315e5761315d612c89565b5b600061316c84828501613133565b91505092915050565b61317e81612ee7565b811461318957600080fd5b50565b60008135905061319b81613175565b92915050565b6000806000806000608086880312156131bd576131bc612c89565b5b60006131cb8882890161318c565b955050602086013567ffffffffffffffff8111156131ec576131eb612c8e565b5b6131f88882890161305e565b9450945050604061320b88828901612cb4565b925050606061321c88828901612cb4565b9150509295509295909350565b600060208201905061323e6000830184612f87565b92915050565b61324d81612ee7565b82525050565b600082825260208201905092915050565b600061326f82612f08565b6132798185613253565b9350613289818560208601612f24565b61329281612cd3565b840191505092915050565b6132a681612c93565b82525050565b6132b581612f96565b82525050565b6132c481612fb1565b82525050565b600060c0830160008301516132e26000860182613244565b50602083015184820360208601526132fa8282613264565b915050604083015161330f604086018261329d565b50606083015161332260608601826132ac565b50608083015161333560808601826132bb565b5060a083015161334860a086018261329d565b508091505092915050565b6000602082019050818103600083015261336d81846132ca565b905092915050565b60006020828403121561338b5761338a612c89565b5b60006133998482850161318c565b91505092915050565b60006020820190506133b76000830184612fa2565b92915050565b6133c681612c41565b81146133d157600080fd5b50565b6000813590506133e3816133bd565b92915050565b60008083601f8401126133ff576133fe612cc9565b5b8235905067ffffffffffffffff81111561341c5761341b613054565b5b60208301915083600182028301111561343857613437613059565b5b9250929050565b6000806000806060858703121561345957613458612c89565b5b6000613467878288016133d4565b945050602085013567ffffffffffffffff81111561348857613487612c8e565b5b613494878288016133e9565b935093505060406134a787828801612cb4565b91505092959194509250565b60006080820190506134c86000830187612fa2565b6134d56020830186612fa2565b6134e26040830185612fbb565b6134ef6060830184612f87565b95945050505050565b600060208201905061350d6000830184612ef9565b92915050565b600081519050919050565b600082825260208201905092915050565b600061353a82613513565b613544818561351e565b9350613554818560208601612f24565b61355d81612cd3565b840191505092915050565b60006020820190508181036000830152613582818461352f565b905092915050565b600063ffffffff82169050919050565b6135a38161358a565b82525050565b60006020820190506135be600083018461359a565b92915050565b7f4e487b7100000000000000000000000000000000000000000000000000000000600052602260045260246000fd5b6000600282049050600182168061360b57607f821691505b60208210810361361e5761361d6135c4565b5b50919050565b600082905092915050565b60008190508160005260206000209050919050565b60006020601f8301049050919050565b600082821b905092915050565b6000600883026136917fffffffffffffffffffffffffffffffffffffffffffffffffffffffffffffffff82613654565b61369b8683613654565b95508019841693508086168417925050509392505050565b6000819050919050565b60006136d86136d36136ce84612fb1565b6136b3565b612fb1565b9050919050565b6000819050919050565b6136f2836136bd565b6137066136fe826136df565b848454613661565b825550505050565b600090565b61371b61370e565b6137268184846136e9565b505050565b5b8181101561374a5761373f600082613713565b60018101905061372c565b5050565b601f82111561378f576137608161362f565b61376984613644565b81016020851015613778578190505b61378c61378485613644565b83018261372b565b50505b505050565b600082821c905092915050565b60006137b260001984600802613794565b1980831691505092915050565b60006137cb83836137a1565b9150826002028217905092915050565b6137e58383613624565b67ffffffffffffffff8111156137fe576137fd612ce4565b5b61380882546135f3565b61381382828561374e565b6000601f8311600181146138425760008415613830578287013590505b61383a85826137bf565b8655506138a2565b601f1984166138508661362f565b60005b8281101561387857848901358255600182019150602085019450602081019050613853565b868310156138955784890135613891601f8916826137a1565b8355505b6001600288020188555050505b50505050505050565b60006138b78385612f13565b93506138c4838584612d90565b6138cd83612cd3565b840190509392505050565b600060208201905081810360008301526138f38184866138ab565b90509392505050565b7f5468726573686f6c64206d75737420626520302d313030000000000000000000600082015250565b6000613932601783612f13565b915061393d826138fc565b602082019050919050565b6000602082019050818103600083015261396181613925565b9050919050565b7f43616c6c6572206e6f7420617574686f72697a65640000000000000000000000600082015250565b600061399e601583612f13565b91506139a982613968565b602082019050919050565b600060208201905081810360008301526139cd81613991565b9050919050565b7f536f7572636520636f6465206e6f74207365743a204a6176615363726970742060008201527f6576616c756174696f6e20636f6465206973206d697373696e67000000000000602082015250565b6000613a30603a83612f13565b9150613a3b826139d4565b604082019050919050565b60006020820190508181036000830152613a5f81613a23565b9050919050565b7f537562736372697074696f6e204944206e6f74207365743a20436861696e6c6960008201527f6e6b2046756e6374696f6e7320737562736372697074696f6e2069732072657160208201527f7569726564000000000000000000000000000000000000000000000000000000604082015250565b6000613ae8604583612f13565b9150613af382613a66565b606082019050919050565b60006020820190508181036000830152613b1781613adb565b9050919050565b7f444f4e204944206e6f74207365743a20436861696e6c696e6b2046756e63746960008201527f6f6e7320444f4e20494420697320726571756972656400000000000000000000602082015250565b6000613b7a603683612f13565b9150613b8582613b1e565b604082019050919050565b60006020820190508181036000830152613ba981613b6d565b9050919050565b7f5573657220616464726573732063616e6e6f74206265207a65726f0000000000600082015250565b6000613be6601b83612f13565b9150613bf182613bb0565b602082019050919050565b60006020820190508181036000830152613c1581613bd9565b9050919050565b7f5175657374696f6e207365742049442063616e6e6f7420626520656d70747900600082015250565b6000613c52601f83612f13565b9150613c5d82613c1c565b602082019050919050565b60006020820190508181036000830152613c8181613c45565b9050919050565b7f416e7377657220686173682063616e6e6f74206265207a65726f000000000000600082015250565b6000613cbe601a83612f13565b9150613cc982613c88565b602082019050919050565b60006020820190508181036000830152613ced81613cb1565b9050919050565b7f5175657374696f6e2073657420636f6e74656e7420686173682063616e6e6f7460008201527f206265207a65726f000000000000000000000000000000000000000000000000602082015250565b6000613d50602883612f13565b9150613d5b82613cf4565b604082019050919050565b60006020820190508181036000830152613d7f81613d43565b9050919050565b7f4e487b7100000000000000000000000000000000000000000000000000000000600052603260045260246000fd5b613dbe82612f08565b67ffffffffffffffff811115613dd757613dd6612ce4565b5b613de182546135f3565b613dec82828561374e565b600060209050601f831160018114613e1f5760008415613e0d578287015190505b613e1785826137bf565b865550613e7f565b601f198416613e2d8661362f565b60005b82811015613e5557848901518255600182019150602085019450602081019050613e30565b86831015613e725784890151613e6e601f8916826137a1565b8355505b6001600288020188555050505b505050505050565b600081905092915050565b6000613e9e8385613e87565b9350613eab838584612d90565b82840190509392505050565b6000613ec4828486613e92565b91508190509392505050565b600082905092915050565b60008190508160005260206000209050919050565b601f821115613f3157613f0281613edb565b613f0b84613644565b81016020851015613f1a578190505b613f2e613f2685613644565b83018261372b565b50505b505050565b613f408383613ed0565b67ffffffffffffffff811115613f5957613f58612ce4565b5b613f6382546135f3565b613f6e828285613ef0565b6000601f831160018114613f9d5760008415613f8b578287013590505b613f9585826137bf565b865550613ffd565b601f198416613fab86613edb565b60005b82811015613fd357848901358255600182019150602085019450602081019050613fae565b86831015613ff05784890135613fec601f8916826137a1565b8355505b6001600288020188555050505b50505050505050565b6000614012838561351e565b935061401f838584612d90565b61402883612cd3565b840190509392505050565b60006060820190506140486000830187612c55565b818103602083015261405b818587614006565b905061406a6040830184612f87565b95945050505050565b7f48617368206d7573742062652065786163746c7920363420636861726163746560008201527f7273202b20307820707265666978000000000000000000000000000000000000602082015250565b60006140cf602e83612f13565b91506140da82614073565b604082019050919050565b600060208201905081810360008301526140fe816140c2565b9050919050565b7f48617368206d7573742073746172742077697468203078207072656669780000600082015250565b600061413b601e83612f13565b915061414682614105565b602082019050919050565b6000602082019050818103600083015261416a8161412e565b9050919050565b7f4f776e61626c653a206e6577206f776e657220697320746865207a65726f206160008201527f6464726573730000000000000000000000000000000000000000000000000000602082015250565b60006141cd602683612f13565b91506141d882614171565b604082019050919050565b600060208201905081810360008301526141fc816141c0565b9050919050565b6000819050919050565b600061422861422361421e84614203565b6136b3565b612fb1565b9050919050565b6142388161420d565b82525050565b6000604082019050614253600083018561422f565b6142606020830184612f87565b9392505050565b7f4e487b7100000000000000000000000000000000000000000000000000000000600052601160045260246000fd5b60006142a182612fb1565b91507fffffffffffffffffffffffffffffffffffffffffffffffffffffffffffffffff82036142d3576142d2614267565b5b600182019050919050565b600060ff82169050919050565b60006142f6826142de565b9150614301836142de565b9250828203905060ff81111561431a57614319614267565b5b92915050565b600061432b82612fb1565b915061433683612fb1565b925082820261434481612fb1565b9150828204841483151761435b5761435a614267565b5b5092915050565b600061436d82612fb1565b915061437883612fb1565b92508282019050808211156143905761438f614267565b5b92915050565b60006143a182612fb1565b91506143ac83612fb1565b92508282039050818111156143c4576143c3614267565b5b92915050565b60006040820190506143df6000830185612fbb565b6143ec6020830184612f87565b9392505050565b7f4f776e61626c653a2063616c6c6572206973206e6f7420746865206f776e6572600082015250565b6000614429602083612f13565b9150614434826143f3565b602082019050919050565b600060208201905081810360008301526144588161441c565b9050919050565b7f4e487b7100000000000000000000000000000000000000000000000000000000600052602160045260246000fd5b600061ffff82169050919050565b6144a58161448e565b82525050565b600060a0820190506144c06000830188612c55565b81810360208301526144d2818761352f565b90506144e1604083018661449c565b6144ee606083018561359a565b6144fb6080830184612f87565b9695505050505050565b60008151905061451481612c9d565b92915050565b6000602082840312156145305761452f612c89565b5b600061453e84828501614505565b91505092915050565b6000614552826142de565b915061455d836142de565b9250828201905060ff81111561457657614575614267565b5b92915050565b7f4e487b7100000000000000000000000000000000000000000000000000000000600052601260045260246000fd5b60006145b682612fb1565b91506145c183612fb1565b9250826145d1576145d061457c565b5b828206905092915050565b60008160011c9050919050565b6000808291508390505b60018511156146335780860481111561460f5761460e614267565b5b600185161561461e5780820291505b808102905061462c856145dc565b94506145f3565b94509492505050565b60008261464c5760019050614708565b8161465a5760009050614708565b8160018114614670576002811461467a576146a9565b6001915050614708565b60ff84111561468c5761468b614267565b5b8360020a9150848211156146a3576146a2614267565b5b50614708565b5060208310610133831016604e8410600b84101617156146de5782820a9050838111156146d9576146d8614267565b5b614708565b6146eb84848460016145e9565b9250905081840481111561470257614701614267565b5b81810290505b9392505050565b600061471a82612fb1565b915061472583612fb1565b92506147527fffffffffffffffffffffffffffffffffffffffffffffffffffffffffffffffff848461463c565b90509291505056fea2646970667358221220fc4e21579f95a3ace8e320e2e683981df4d61266b4797aac927c595ec666645664736f6c63430008130033",
  "linkReferences": {},
  "deployedLinkReferences": {}
}