{
  "_format": "hh-sol-artifact-1",
  "contractName": "QuestionManager",
  "sourceName": "contracts/QuestionManager.sol",
  "abi": [
    {
      "inputs": [
        {
          "internalType": "address",
          "name": "_puzzlePointsAddress",
          "type": "address"
        }
      ],
      "stateMutability": "nonpayable",
      "type": "constructor"
    },
    {
      "anonymous": false,
      "inputs": [
        {
          "indexed": false,
          "internalType": "address",
          "name": "verifierAddress",
          "type": "address"
        }
      ],
      "name": "AnswerVerifierSet",
      "type": "event"
    },
    {
      "anonymous": false,
      "inputs": [
        {
          "indexed": true,
          "internalType": "address",
          "name": "user",
          "type": "address"
        },
        {
          "indexed": false,
          "internalType": "bytes32",
          "name": "answersHash",
          "type": "bytes32"
        },
        {
          "indexed": false,
          "internalType": "uint256",
          "name": "timestamp",
          "type": "uint256"
        }
      ],
      "name": "AnswersSubmitted",
      "type": "event"
    },
    {
      "anonymous": false,
      "inputs": [
        {
          "indexed": true,
          "internalType": "address",
          "name": "user",
          "type": "address"
        },
        {
          "indexed": false,
          "internalType": "bytes32",
          "name": "resultsHash",
          "type": "bytes32"
        },
        {
          "indexed": false,
          "internalType": "uint256",
          "name": "score",
          "type": "uint256"
        },
        {
          "indexed": false,
          "internalType": "uint256",
          "name": "timestamp",
          "type": "uint256"
        }
      ],
      "name": "AssessmentCompleted",
      "type": "event"
    },
    {
      "anonymous": false,
      "inputs": [
        {
          "indexed": true,
          "internalType": "address",
          "name": "user",
          "type": "address"
        },
        {
          "indexed": false,
          "internalType": "string",
          "name": "questionSetId",
          "type": "string"
        },
        {
          "indexed": false,
          "internalType": "uint256",
          "name": "timestamp",
          "type": "uint256"
        }
      ],
      "name": "AssessmentStarted",
      "type": "event"
    },
    {
      "anonymous": false,
      "inputs": [
        {
          "indexed": true,
          "internalType": "address",
          "name": "previousOwner",
          "type": "address"
        },
        {
          "indexed": true,
          "internalType": "address",
          "name": "newOwner",
          "type": "address"
        }
      ],
      "name": "OwnershipTransferred",
      "type": "event"
    },
    {
      "anonymous": false,
      "inputs": [
        {
          "indexed": true,
          "internalType": "string",
          "name": "questionSetId",
          "type": "string"
        },
        {
          "indexed": false,
          "internalType": "bytes32",
          "name": "contentHash",
          "type": "bytes32"
        },
        {
          "indexed": false,
          "internalType": "uint256",
          "name": "questionCount",
          "type": "uint256"
        },
        {
          "indexed": false,
          "internalType": "uint256",
          "name": "timestamp",
          "type": "uint256"
        }
      ],
      "name": "QuestionSetSubmitted",
      "type": "event"
    },
    {
      "anonymous": false,
      "inputs": [
        {
          "indexed": true,
          "internalType": "address",
          "name": "user",
          "type": "address"
        },
        {
          "indexed": false,
          "internalType": "string",
          "name": "questionSetId",
          "type": "string"
        },
        {
          "indexed": false,
          "internalType": "bytes32",
          "name": "requestId",
          "type": "bytes32"
        }
      ],
      "name": "VerificationPending",
      "type": "event"
    },
    {
      "inputs": [],
      "name": "MAX_REWARD_AMOUNT",
      "outputs": [
        {
          "internalType": "uint256",
          "name": "",
          "type": "uint256"
        }
      ],
      "stateMutability": "view",
      "type": "function"
    },
    {
      "inputs": [
        {
          "internalType": "string",
          "name": "setId",
          "type": "string"
        }
      ],
      "name": "activateQuestionSet",
      "outputs": [],
      "stateMutability": "nonpayable",
      "type": "function"
    },
    {
      "inputs": [],
      "name": "answerVerifier",
      "outputs": [
        {
          "internalType": "contract ChainlinkAnswerVerifier",
          "name": "",
          "type": "address"
        }
      ],
      "stateMutability": "view",
      "type": "function"
    },
    {
      "inputs": [],
      "name": "checkPendingVerification",
      "outputs": [],
      "stateMutability": "nonpayable",
      "type": "function"
    },
    {
      "inputs": [
        {
          "internalType": "string",
          "name": "setId",
          "type": "string"
        }
      ],
      "name": "deactivateQuestionSet",
      "outputs": [],
      "stateMutability": "nonpayable",
      "type": "function"
    },
    {
      "inputs": [],
      "name": "getActiveQuestionSets",
      "outputs": [
        {
          "internalType": "string[]",
          "name": "",
          "type": "string[]"
        }
      ],
      "stateMutability": "view",
      "type": "function"
    },
    {
      "inputs": [
        {
          "internalType": "string",
          "name": "questionSetId",
          "type": "string"
        }
      ],
      "name": "getQuestionSetMetadata",
      "outputs": [
        {
          "components": [
            {
              "internalType": "string",
              "name": "setId",
              "type": "string"
            },
            {
              "internalType": "bytes32",
              "name": "contentHash",
              "type": "bytes32"
            },
            {
              "internalType": "uint256",
              "name": "questionCount",
              "type": "uint256"
            },
            {
              "internalType": "uint256",
              "name": "timestamp",
              "type": "uint256"
            },
            {
              "internalType": "bool",
              "name": "active",
              "type": "bool"
            }
          ],
          "internalType": "struct QuestionManager.QuestionSetMetadata",
          "name": "",
          "type": "tuple"
        }
      ],
      "stateMutability": "view",
      "type": "function"
    },
    {
      "inputs": [],
      "name": "getQuestionSets",
      "outputs": [
        {
          "internalType": "string[]",
          "name": "",
          "type": "string[]"
        }
      ],
      "stateMutability": "view",
      "type": "function"
    },
    {
      "inputs": [
        {
          "internalType": "address",
          "name": "user",
          "type": "address"
        }
      ],
      "name": "getUserAssessment",
      "outputs": [
        {
          "components": [
            {
              "internalType": "address",
              "name": "user",
              "type": "address"
            },
            {
              "internalType": "string",
              "name": "questionSetId",
              "type": "string"
            },
            {
              "internalType": "bytes32",
              "name": "answersHash",
              "type": "bytes32"
            },
            {
              "internalType": "bytes32",
              "name": "resultsHash",
              "type": "bytes32"
            },
            {
              "internalType": "uint256",
              "name": "score",
              "type": "uint256"
            },
            {
              "internalType": "uint256",
              "name": "startTimestamp",
              "type": "uint256"
            },
            {
              "internalType": "uint256",
              "name": "completionTimestamp",
              "type": "uint256"
            },
            {
              "internalType": "bool",
              "name": "completed",
              "type": "bool"
            },
            {
              "internalType": "bytes32",
              "name": "pendingVerificationId",
              "type": "bytes32"
            }
          ],
          "internalType": "struct QuestionManager.UserAssessment",
          "name": "",
          "type": "tuple"
        }
      ],
      "stateMutability": "view",
      "type": "function"
    },
    {
      "inputs": [
        {
          "internalType": "address",
          "name": "user",
          "type": "address"
        }
      ],
      "name": "getUserAssessmentStatus",
      "outputs": [
        {
          "internalType": "bool",
          "name": "hasAssessment",
          "type": "bool"
        },
        {
          "internalType": "string",
          "name": "questionSetId",
          "type": "string"
        },
        {
          "internalType": "bool",
          "name": "completed",
          "type": "bool"
        }
      ],
      "stateMutability": "view",
      "type": "function"
    },
    {
      "inputs": [],
      "name": "owner",
      "outputs": [
        {
          "internalType": "address",
          "name": "",
          "type": "address"
        }
      ],
      "stateMutability": "view",
      "type": "function"
    },
    {
      "inputs": [],
      "name": "passingScoreThreshold",
      "outputs": [
        {
          "internalType": "uint256",
          "name": "",
          "type": "uint256"
        }
      ],
      "stateMutability": "view",
      "type": "function"
    },
    {
      "inputs": [],
      "name": "puzzlePoints",
      "outputs": [
        {
          "internalType": "contract PuzzlePoints",
          "name": "",
          "type": "address"
        }
      ],
      "stateMutability": "view",
      "type": "function"
    },
    {
      "inputs": [
        {
          "internalType": "uint256",
          "name": "",
          "type": "uint256"
        }
      ],
      "name": "questionSetIds",
      "outputs": [
        {
          "internalType": "string",
          "name": "",
          "type": "string"
        }
      ],
      "stateMutability": "view",
      "type": "function"
    },
    {
      "inputs": [
        {
          "internalType": "string",
          "name": "",
          "type": "string"
        }
      ],
      "name": "questionSets",
      "outputs": [
        {
          "internalType": "string",
          "name": "setId",
          "type": "string"
        },
        {
          "internalType": "bytes32",
          "name": "contentHash",
          "type": "bytes32"
        },
        {
          "internalType": "uint256",
          "name": "questionCount",
          "type": "uint256"
        },
        {
          "internalType": "uint256",
          "name": "timestamp",
          "type": "uint256"
        },
        {
          "internalType": "bool",
          "name": "active",
          "type": "bool"
        }
      ],
      "stateMutability": "view",
      "type": "function"
    },
    {
      "inputs": [],
      "name": "renounceOwnership",
      "outputs": [],
      "stateMutability": "nonpayable",
      "type": "function"
    },
    {
      "inputs": [],
      "name": "restartAssessment",
      "outputs": [],
      "stateMutability": "nonpayable",
      "type": "function"
    },
    {
      "inputs": [
        {
          "internalType": "address",
          "name": "verifierAddress",
          "type": "address"
        }
      ],
      "name": "setAnswerVerifier",
      "outputs": [],
      "stateMutability": "nonpayable",
      "type": "function"
    },
    {
      "inputs": [
        {
          "internalType": "uint256",
          "name": "threshold",
          "type": "uint256"
        }
      ],
      "name": "setPassingScoreThreshold",
      "outputs": [],
      "stateMutability": "nonpayable",
      "type": "function"
    },
    {
      "inputs": [
        {
          "internalType": "address",
          "name": "puzzlePointsAddr",
          "type": "address"
        }
      ],
      "name": "setPuzzlePoints",
      "outputs": [],
      "stateMutability": "nonpayable",
      "type": "function"
    },
    {
      "inputs": [
        {
          "internalType": "bool",
          "name": "enabled",
          "type": "bool"
        }
      ],
      "name": "setUseChainlinkFunctions",
      "outputs": [],
      "stateMutability": "nonpayable",
      "type": "function"
    },
    {
      "inputs": [
        {
          "internalType": "string",
          "name": "questionSetId",
          "type": "string"
        }
      ],
      "name": "startAssessment",
      "outputs": [],
      "stateMutability": "nonpayable",
      "type": "function"
    },
    {
      "inputs": [
        {
          "internalType": "bytes32",
          "name": "answersHash",
          "type": "bytes32"
        }
      ],
      "name": "submitAnswers",
      "outputs": [],
      "stateMutability": "nonpayable",
      "type": "function"
    },
    {
      "inputs": [
        {
          "internalType": "address",
          "name": "user",
          "type": "address"
        },
        {
          "internalType": "bytes32",
          "name": "resultsHash",
          "type": "bytes32"
        },
        {
          "internalType": "uint256",
          "name": "score",
          "type": "uint256"
        }
      ],
      "name": "submitEvaluationResults",
      "outputs": [],
      "stateMutability": "nonpayable",
      "type": "function"
    },
    {
      "inputs": [
        {
          "internalType": "string",
          "name": "setId",
          "type": "string"
        },
        {
          "internalType": "bytes32",
          "name": "contentHash",
          "type": "bytes32"
        },
        {
          "internalType": "uint256",
          "name": "questionCount",
          "type": "uint256"
        }
      ],
      "name": "submitQuestionSetHash",
      "outputs": [],
      "stateMutability": "nonpayable",
      "type": "function"
    },
    {
      "inputs": [
        {
          "internalType": "address",
          "name": "newOwner",
          "type": "address"
        }
      ],
      "name": "transferOwnership",
      "outputs": [],
      "stateMutability": "nonpayable",
      "type": "function"
    },
    {
      "inputs": [],
      "name": "triggerVerification",
      "outputs": [],
      "stateMutability": "nonpayable",
      "type": "function"
    },
    {
      "inputs": [],
      "name": "useChainlinkFunctions",
      "outputs": [
        {
          "internalType": "bool",
          "name": "",
          "type": "bool"
        }
      ],
      "stateMutability": "view",
      "type": "function"
    },
    {
      "inputs": [
        {
          "internalType": "address",
          "name": "",
          "type": "address"
        }
      ],
      "name": "userAssessments",
      "outputs": [
        {
          "internalType": "address",
          "name": "user",
          "type": "address"
        },
        {
          "internalType": "string",
          "name": "questionSetId",
          "type": "string"
        },
        {
          "internalType": "bytes32",
          "name": "answersHash",
          "type": "bytes32"
        },
        {
          "internalType": "bytes32",
          "name": "resultsHash",
          "type": "bytes32"
        },
        {
          "internalType": "uint256",
          "name": "score",
          "type": "uint256"
        },
        {
          "internalType": "uint256",
          "name": "startTimestamp",
          "type": "uint256"
        },
        {
          "internalType": "uint256",
          "name": "completionTimestamp",
          "type": "uint256"
        },
        {
          "internalType": "bool",
          "name": "completed",
          "type": "bool"
        },
        {
          "internalType": "bytes32",
          "name": "pendingVerificationId",
          "type": "bytes32"
        }
      ],
      "stateMutability": "view",
      "type": "function"
    }
  ],
  "bytecode": "0x608060405260466001556001600360146101000a81548160ff0219169083151502179055503480156200003157600080fd5b50604051620042303803806200423083398181016040528101906200005791906200023c565b620000776200006b6200010660201b60201c565b6200010e60201b60201c565b600073ffffffffffffffffffffffffffffffffffffffff168173ffffffffffffffffffffffffffffffffffffffff1614620000ee5780600260006101000a81548173ffffffffffffffffffffffffffffffffffffffff021916908373ffffffffffffffffffffffffffffffffffffffff1602179055505b620000ff336200010e60201b60201c565b506200026e565b600033905090565b60008060009054906101000a900473ffffffffffffffffffffffffffffffffffffffff169050816000806101000a81548173ffffffffffffffffffffffffffffffffffffffff021916908373ffffffffffffffffffffffffffffffffffffffff1602179055508173ffffffffffffffffffffffffffffffffffffffff168173ffffffffffffffffffffffffffffffffffffffff167f8be0079c531659141344cd1fd0a4f28419497f9722a3daafe3b4186f6b6457e060405160405180910390a35050565b600080fd5b600073ffffffffffffffffffffffffffffffffffffffff82169050919050565b60006200020482620001d7565b9050919050565b6200021681620001f7565b81146200022257600080fd5b50565b60008151905062000236816200020b565b92915050565b600060208284031215620002555762000254620001d2565b5b6000620002658482850162000225565b91505092915050565b613fb2806200027e6000396000f3fe608060405234801561001057600080fd5b50600436106101cf5760003560e01c80637156e03e11610104578063a069dc40116100a2578063e2562b1411610071578063e2562b14146104ee578063f2fde38b1461050a578063fda3d08c14610526578063ff8f270a14610530576101cf565b8063a069dc401461044a578063ae9c63b314610466578063ce2ca64a14610498578063de596dba146104b6576101cf565b806387dffbb8116100de57806387dffbb8146103d45780638b329195146103f25780638da5cb5b1461040e578063a04f6b4b1461042c576101cf565b80637156e03e1461037c5780637a8b0545146103ac5780638062cf52146103ca576101cf565b80633d85a4921161017157806356ad48b21161014b57806356ad48b2146103185780635d00d426146103345780636914a6ec1461033e578063715018a614610372576101cf565b80633d85a492146102b05780633ee6b544146102cc57806342885ea3146102e8576101cf565b8063276e0c1d116101ad578063276e0c1d1461023e5780632c39e7f71461025c5780632f36dc30146102785780633becf84814610294576101cf565b80630a859af2146101d45780630f447db61461020457806315d85f0a14610222575b600080fd5b6101ee60048036038101906101e991906126d2565b61054e565b6040516101fb91906128b0565b60405180910390f35b61020c6106e7565b6040516102199190612931565b60405180910390f35b61023c60048036038101906102379190612978565b61070d565b005b6102466107cd565b60405161025391906129b4565b60405180910390f35b610276600480360381019061027191906126d2565b6107d3565b005b610292600480360381019061028d91906129fb565b610871565b005b6102ae60048036038101906102a99190612a54565b610a75565b005b6102ca60048036038101906102c59190612bdc565b610d59565b005b6102e660048036038101906102e19190612c25565b610f81565b005b61030260048036038101906102fd9190612bdc565b610fd7565b60405161030f9190612cc8565b60405180910390f35b610332600480360381019061032d9190612bdc565b6110da565b005b61033c61118f565b005b61035860048036038101906103539190612bdc565b61124e565b604051610369959493929190612d52565b60405180910390f35b61037a61132f565b005b61039660048036038101906103919190612c25565b611343565b6040516103a39190612dac565b60405180910390f35b6103b46113ef565b6040516103c19190612dce565b60405180910390f35b6103d2611402565b005b6103dc61164a565b6040516103e99190612eab565b60405180910390f35b61040c60048036038101906104079190612bdc565b611876565b005b61041661192b565b6040516104239190612edc565b60405180910390f35b610434611954565b60405161044191906129b4565b60405180910390f35b610464600480360381019061045f9190612ef7565b611960565b005b610480600480360381019061047b91906126d2565b611b68565b60405161048f93929190612f66565b60405180910390f35b6104a0611c71565b6040516104ad9190612eab565b60405180910390f35b6104d060048036038101906104cb91906126d2565b611d4a565b6040516104e599989796959493929190612fa4565b60405180910390f35b610508600480360381019061050391906126d2565b611e4d565b005b610524600480360381019061051f91906126d2565b611e99565b005b61052e611f1c565b005b610538611fb4565b6040516105459190613059565b60405180910390f35b610556612562565b600660008373ffffffffffffffffffffffffffffffffffffffff1673ffffffffffffffffffffffffffffffffffffffff168152602001908152602001600020604051806101200160405290816000820160009054906101000a900473ffffffffffffffffffffffffffffffffffffffff1673ffffffffffffffffffffffffffffffffffffffff1673ffffffffffffffffffffffffffffffffffffffff168152602001600182018054610607906130a3565b80601f0160208091040260200160405190810160405280929190818152602001828054610633906130a3565b80156106805780601f1061065557610100808354040283529160200191610680565b820191906000526020600020905b81548152906001019060200180831161066357829003601f168201915b5050505050815260200160028201548152602001600382015481526020016004820154815260200160058201548152602001600682015481526020016007820160009054906101000a900460ff161515151581526020016008820154815250509050919050565b600260009054906101000a900473ffffffffffffffffffffffffffffffffffffffff1681565b610715611fda565b600073ffffffffffffffffffffffffffffffffffffffff16600360009054906101000a900473ffffffffffffffffffffffffffffffffffffffff1673ffffffffffffffffffffffffffffffffffffffff16141580610771575080155b6107b0576040517f08c379a00000000000000000000000000000000000000000000000000000000081526004016107a790613120565b60405180910390fd5b80600360146101000a81548160ff02191690831515021790555050565b60015481565b6107db611fda565b80600360006101000a81548173ffffffffffffffffffffffffffffffffffffffff021916908373ffffffffffffffffffffffffffffffffffffffff1602179055506001600360146101000a81548160ff0219169083151502179055507f25f8a4231562132928c8f2339f42d40b6ae437ec645d8e3e8677710a30704fda816040516108669190612edc565b60405180910390a150565b6000600660003373ffffffffffffffffffffffffffffffffffffffff1673ffffffffffffffffffffffffffffffffffffffff168152602001908152602001600020905060008160010180546108c5906130a3565b905011610907576040517f08c379a00000000000000000000000000000000000000000000000000000000081526004016108fe9061318c565b60405180910390fd5b8060070160009054906101000a900460ff1615610959576040517f08c379a0000000000000000000000000000000000000000000000000000000008152600401610950906131f8565b60405180910390fd5b6000801b820361099e576040517f08c379a000000000000000000000000000000000000000000000000000000000815260040161099590613264565b60405180910390fd5b8181600201819055503373ffffffffffffffffffffffffffffffffffffffff167fd963f150110bd30c85d76feee9fa985e297f8e699fc1e1b80e11e1f8577cb47c83426040516109ef929190613284565b60405180910390a2600360149054906101000a900460ff168015610a625750600073ffffffffffffffffffffffffffffffffffffffff16600360009054906101000a900473ffffffffffffffffffffffffffffffffffffffff1673ffffffffffffffffffffffffffffffffffffffff1614155b15610a7157610a7081612058565b5b5050565b610a7d611fda565b6000600660008573ffffffffffffffffffffffffffffffffffffffff1673ffffffffffffffffffffffffffffffffffffffff16815260200190815260200160002090506000816001018054610ad1906130a3565b905011610b13576040517f08c379a0000000000000000000000000000000000000000000000000000000008152600401610b0a9061318c565b60405180910390fd5b6000801b816002015403610b5c576040517f08c379a0000000000000000000000000000000000000000000000000000000008152600401610b53906132f9565b60405180910390fd5b8060070160009054906101000a900460ff1615610bae576040517f08c379a0000000000000000000000000000000000000000000000000000000008152600401610ba5906131f8565b60405180910390fd5b82816003018190555081816004018190555042816006018190555060018160070160006101000a81548160ff0219169083151502179055506001548210158015610c475750600073ffffffffffffffffffffffffffffffffffffffff16600260009054906101000a900473ffffffffffffffffffffffffffffffffffffffff1673ffffffffffffffffffffffffffffffffffffffff1614155b15610d015760006064670de0b6b3a764000084610c649190613348565b610c6e91906133b9565b9050600260009054906101000a900473ffffffffffffffffffffffffffffffffffffffff1673ffffffffffffffffffffffffffffffffffffffff166340c10f1986836040518363ffffffff1660e01b8152600401610ccd9291906133ea565b600060405180830381600087803b158015610ce757600080fd5b505af1158015610cfb573d6000803e3d6000fd5b50505050505b8373ffffffffffffffffffffffffffffffffffffffff167fee124b935fb88e2cece5ffba3ba998364a0bfed62434c027226ebefde125c7d5848442604051610d4b93929190613413565b60405180910390a250505050565b6000600482604051610d6b9190613486565b90815260200160405180910390206000018054610d87906130a3565b905011610dc9576040517f08c379a0000000000000000000000000000000000000000000000000000000008152600401610dc0906134e9565b60405180910390fd5b600481604051610dd99190613486565b908152602001604051809103902060040160009054906101000a900460ff16610e37576040517f08c379a0000000000000000000000000000000000000000000000000000000008152600401610e2e90613555565b60405180910390fd5b6000600660003373ffffffffffffffffffffffffffffffffffffffff1673ffffffffffffffffffffffffffffffffffffffff1681526020019081526020016000209050338160000160006101000a81548173ffffffffffffffffffffffffffffffffffffffff021916908373ffffffffffffffffffffffffffffffffffffffff16021790555081816001019081610ece9190613717565b504281600501819055506000801b81600201819055506000801b8160030181905550600081600401819055506000816006018190555060008160070160006101000a81548160ff0219169083151502179055506000801b81600801819055503373ffffffffffffffffffffffffffffffffffffffff167f911739041ede0438af029a3293231b82c7f6d91ecbb8632c13846b1b2d6a9daf8342604051610f759291906137e9565b60405180910390a25050565b610f89611fda565b6064811115610fcd576040517f08c379a0000000000000000000000000000000000000000000000000000000008152600401610fc49061388b565b60405180910390fd5b8060018190555050565b610fdf6125cf565b600482604051610fef9190613486565b90815260200160405180910390206040518060a0016040529081600082018054611018906130a3565b80601f0160208091040260200160405190810160405280929190818152602001828054611044906130a3565b80156110915780601f1061106657610100808354040283529160200191611091565b820191906000526020600020905b81548152906001019060200180831161107457829003601f168201915b505050505081526020016001820154815260200160028201548152602001600382015481526020016004820160009054906101000a900460ff1615151515815250509050919050565b6110e2611fda565b60006004826040516110f49190613486565b90815260200160405180910390206000018054611110906130a3565b905011611152576040517f08c379a0000000000000000000000000000000000000000000000000000000008152600401611149906134e9565b60405180910390fd5b60016004826040516111649190613486565b908152602001604051809103902060040160006101000a81548160ff02191690831515021790555050565b600660003373ffffffffffffffffffffffffffffffffffffffff1673ffffffffffffffffffffffffffffffffffffffff168152602001908152602001600020600080820160006101000a81549073ffffffffffffffffffffffffffffffffffffffff02191690556001820160006112069190612603565b600282016000905560038201600090556004820160009055600582016000905560068201600090556007820160006101000a81549060ff021916905560088201600090555050565b600481805160208101820180518482526020830160208501208183528095505050505050600091509050806000018054611287906130a3565b80601f01602080910402602001604051908101604052809291908181526020018280546112b3906130a3565b80156113005780601f106112d557610100808354040283529160200191611300565b820191906000526020600020905b8154815290600101906020018083116112e357829003601f168201915b5050505050908060010154908060020154908060030154908060040160009054906101000a900460ff16905085565b611337611fda565b61134160006121d9565b565b6005818154811061135357600080fd5b90600052602060002001600091509050805461136e906130a3565b80601f016020809104026020016040519081016040528092919081815260200182805461139a906130a3565b80156113e75780601f106113bc576101008083540402835291602001916113e7565b820191906000526020600020905b8154815290600101906020018083116113ca57829003601f168201915b505050505081565b600360149054906101000a900460ff1681565b6000600660003373ffffffffffffffffffffffffffffffffffffffff1673ffffffffffffffffffffffffffffffffffffffff16815260200190815260200160002090506000816001018054611456906130a3565b905011611498576040517f08c379a000000000000000000000000000000000000000000000000000000000815260040161148f9061318c565b60405180910390fd5b8060070160009054906101000a900460ff16156114ea576040517f08c379a00000000000000000000000000000000000000000000000000000000081526004016114e1906131f8565b60405180910390fd5b6000801b816002015403611533576040517f08c379a000000000000000000000000000000000000000000000000000000000815260040161152a906132f9565b60405180910390fd5b600360149054906101000a900460ff16801561159e5750600073ffffffffffffffffffffffffffffffffffffffff16600360009054906101000a900473ffffffffffffffffffffffffffffffffffffffff1673ffffffffffffffffffffffffffffffffffffffff1614155b6115dd576040517f08c379a00000000000000000000000000000000000000000000000000000000081526004016115d4906138f7565b60405180910390fd5b6000801b81600801541461163e576115f48161229d565b6000801b81600801541461163d576040517f08c379a000000000000000000000000000000000000000000000000000000000815260040161163490613989565b60405180910390fd5b5b61164781612058565b50565b60606000805b6005805490508110156116d057600460058281548110611673576116726139a9565b5b9060005260206000200160405161168a9190613a5b565b908152602001604051809103902060040160009054906101000a900460ff16156116bd5781806116b990613a72565b9250505b80806116c890613a72565b915050611650565b5060008167ffffffffffffffff8111156116ed576116ec612ab1565b5b60405190808252806020026020018201604052801561172057816020015b606081526020019060019003908161170b5790505b5090506000805b60058054905081101561186c5760046005828154811061174a576117496139a9565b5b906000526020600020016040516117619190613a5b565b908152602001604051809103902060040160009054906101000a900460ff16156118595760058181548110611799576117986139a9565b5b9060005260206000200180546117ae906130a3565b80601f01602080910402602001604051908101604052809291908181526020018280546117da906130a3565b80156118275780601f106117fc57610100808354040283529160200191611827565b820191906000526020600020905b81548152906001019060200180831161180a57829003601f168201915b505050505083838151811061183f5761183e6139a9565b5b6020026020010181905250818061185590613a72565b9250505b808061186490613a72565b915050611727565b5081935050505090565b61187e611fda565b60006004826040516118909190613486565b908152602001604051809103902060000180546118ac906130a3565b9050116118ee576040517f08c379a00000000000000000000000000000000000000000000000000000000081526004016118e5906134e9565b60405180910390fd5b60006004826040516119009190613486565b908152602001604051809103902060040160006101000a81548160ff02191690831515021790555050565b60008060009054906101000a900473ffffffffffffffffffffffffffffffffffffffff16905090565b670de0b6b3a764000081565b611968611fda565b60008351116119ac576040517f08c379a00000000000000000000000000000000000000000000000000000000081526004016119a390613b06565b60405180910390fd5b6000801b82036119f1576040517f08c379a00000000000000000000000000000000000000000000000000000000081526004016119e890613b72565b60405180910390fd5b60008111611a34576040517f08c379a0000000000000000000000000000000000000000000000000000000008152600401611a2b90613c04565b60405180910390fd5b600080600485604051611a479190613486565b90815260200160405180910390206000018054611a63906130a3565b90501490506000600485604051611a7a9190613486565b9081526020016040518091039020905084816000019081611a9b9190613717565b5083816001018190555082816002018190555042816003018190555060018160040160006101000a81548160ff0219169083151502179055508115611b1057600585908060018154018082558091505060019003906000526020600020016000909190919091509081611b0e9190613717565b505b84604051611b1e9190613486565b60405180910390207f281fb0247c7507ae47c4bb0224de4e85084c1c6a9d5ba89d595a426902161fa5858542604051611b5993929190613413565b60405180910390a25050505050565b60006060600080600660008673ffffffffffffffffffffffffffffffffffffffff1673ffffffffffffffffffffffffffffffffffffffff16815260200190815260200160002090506000816001018054611bc1906130a3565b9050119350806001018054611bd5906130a3565b80601f0160208091040260200160405190810160405280929190818152602001828054611c01906130a3565b8015611c4e5780601f10611c2357610100808354040283529160200191611c4e565b820191906000526020600020905b815481529060010190602001808311611c3157829003601f168201915b505050505092508060070160009054906101000a900460ff169150509193909250565b60606005805480602002602001604051908101604052809291908181526020016000905b82821015611d41578382906000526020600020018054611cb4906130a3565b80601f0160208091040260200160405190810160405280929190818152602001828054611ce0906130a3565b8015611d2d5780601f10611d0257610100808354040283529160200191611d2d565b820191906000526020600020905b815481529060010190602001808311611d1057829003601f168201915b505050505081526020019060010190611c95565b50505050905090565b60066020528060005260406000206000915090508060000160009054906101000a900473ffffffffffffffffffffffffffffffffffffffff1690806001018054611d93906130a3565b80601f0160208091040260200160405190810160405280929190818152602001828054611dbf906130a3565b8015611e0c5780601f10611de157610100808354040283529160200191611e0c565b820191906000526020600020905b815481529060010190602001808311611def57829003601f168201915b5050505050908060020154908060030154908060040154908060050154908060060154908060070160009054906101000a900460ff16908060080154905089565b611e55611fda565b80600260006101000a81548173ffffffffffffffffffffffffffffffffffffffff021916908373ffffffffffffffffffffffffffffffffffffffff16021790555050565b611ea1611fda565b600073ffffffffffffffffffffffffffffffffffffffff168173ffffffffffffffffffffffffffffffffffffffff1603611f10576040517f08c379a0000000000000000000000000000000000000000000000000000000008152600401611f0790613c96565b60405180910390fd5b611f19816121d9565b50565b6000600660003373ffffffffffffffffffffffffffffffffffffffff1673ffffffffffffffffffffffffffffffffffffffff16815260200190815260200160002090506000801b816008015403611fa8576040517f08c379a0000000000000000000000000000000000000000000000000000000008152600401611f9f90613d02565b60405180910390fd5b611fb18161229d565b50565b600360009054906101000a900473ffffffffffffffffffffffffffffffffffffffff1681565b611fe261255a565b73ffffffffffffffffffffffffffffffffffffffff1661200061192b565b73ffffffffffffffffffffffffffffffffffffffff1614612056576040517f08c379a000000000000000000000000000000000000000000000000000000000815260040161204d90613d6e565b60405180910390fd5b565b600060048260010160405161206d9190613a5b565b90815260200160405180910390206001015490506000600360009054906101000a900473ffffffffffffffffffffffffffffffffffffffff1673ffffffffffffffffffffffffffffffffffffffff1663428199378460000160009054906101000a900473ffffffffffffffffffffffffffffffffffffffff16856001018660020154866040518563ffffffff1660e01b815260040161210f9493929190613e12565b6020604051808303816000875af115801561212e573d6000803e3d6000fd5b505050506040513d601f19601f820116820180604052508101906121529190613e73565b90508083600801819055508260000160009054906101000a900473ffffffffffffffffffffffffffffffffffffffff1673ffffffffffffffffffffffffffffffffffffffff167fe15c9a8d8a7137796a9917b85b2ba66feaad317998334d659a9c01f11f25090e84600101836040516121cc929190613ea0565b60405180910390a2505050565b60008060009054906101000a900473ffffffffffffffffffffffffffffffffffffffff169050816000806101000a81548173ffffffffffffffffffffffffffffffffffffffff021916908373ffffffffffffffffffffffffffffffffffffffff1602179055508173ffffffffffffffffffffffffffffffffffffffff168173ffffffffffffffffffffffffffffffffffffffff167f8be0079c531659141344cd1fd0a4f28419497f9722a3daafe3b4186f6b6457e060405160405180910390a35050565b600080600080600360009054906101000a900473ffffffffffffffffffffffffffffffffffffffff1673ffffffffffffffffffffffffffffffffffffffff16637a21baa086600801546040518263ffffffff1660e01b81526004016123029190613ed0565b608060405180830381865afa15801561231f573d6000803e3d6000fd5b505050506040513d601f19601f820116820180604052508101906123439190613f15565b9350935093509350836123595750505050612557565b6000801b856008018190555080856003018190555081856004018190555042856006018190555060018560070160006101000a81548160ff02191690831515021790555060015482101580156123fe5750600073ffffffffffffffffffffffffffffffffffffffff16600260009054906101000a900473ffffffffffffffffffffffffffffffffffffffff1673ffffffffffffffffffffffffffffffffffffffff1614155b156124dc5760006064670de0b6b3a76400008461241b9190613348565b61242591906133b9565b9050600260009054906101000a900473ffffffffffffffffffffffffffffffffffffffff1673ffffffffffffffffffffffffffffffffffffffff166340c10f198760000160009054906101000a900473ffffffffffffffffffffffffffffffffffffffff16836040518363ffffffff1660e01b81526004016124a89291906133ea565b600060405180830381600087803b1580156124c257600080fd5b505af11580156124d6573d6000803e3d6000fd5b50505050505b8460000160009054906101000a900473ffffffffffffffffffffffffffffffffffffffff1673ffffffffffffffffffffffffffffffffffffffff167fee124b935fb88e2cece5ffba3ba998364a0bfed62434c027226ebefde125c7d582844260405161254a93929190613413565b60405180910390a2505050505b50565b600033905090565b604051806101200160405280600073ffffffffffffffffffffffffffffffffffffffff168152602001606081526020016000801916815260200160008019168152602001600081526020016000815260200160008152602001600015158152602001600080191681525090565b6040518060a00160405280606081526020016000801916815260200160008152602001600081526020016000151581525090565b50805461260f906130a3565b6000825580601f106126215750612640565b601f01602090049060005260206000209081019061263f9190612643565b5b50565b5b8082111561265c576000816000905550600101612644565b5090565b6000604051905090565b600080fd5b600080fd5b600073ffffffffffffffffffffffffffffffffffffffff82169050919050565b600061269f82612674565b9050919050565b6126af81612694565b81146126ba57600080fd5b50565b6000813590506126cc816126a6565b92915050565b6000602082840312156126e8576126e761266a565b5b60006126f6848285016126bd565b91505092915050565b61270881612694565b82525050565b600081519050919050565b600082825260208201905092915050565b60005b8381101561274857808201518184015260208101905061272d565b60008484015250505050565b6000601f19601f8301169050919050565b60006127708261270e565b61277a8185612719565b935061278a81856020860161272a565b61279381612754565b840191505092915050565b6000819050919050565b6127b18161279e565b82525050565b6000819050919050565b6127ca816127b7565b82525050565b60008115159050919050565b6127e5816127d0565b82525050565b60006101208301600083015161280460008601826126ff565b506020830151848203602086015261281c8282612765565b915050604083015161283160408601826127a8565b50606083015161284460608601826127a8565b50608083015161285760808601826127c1565b5060a083015161286a60a08601826127c1565b5060c083015161287d60c08601826127c1565b5060e083015161289060e08601826127dc565b506101008301516128a56101008601826127a8565b508091505092915050565b600060208201905081810360008301526128ca81846127eb565b905092915050565b6000819050919050565b60006128f76128f26128ed84612674565b6128d2565b612674565b9050919050565b6000612909826128dc565b9050919050565b600061291b826128fe565b9050919050565b61292b81612910565b82525050565b60006020820190506129466000830184612922565b92915050565b612955816127d0565b811461296057600080fd5b50565b6000813590506129728161294c565b92915050565b60006020828403121561298e5761298d61266a565b5b600061299c84828501612963565b91505092915050565b6129ae816127b7565b82525050565b60006020820190506129c960008301846129a5565b92915050565b6129d88161279e565b81146129e357600080fd5b50565b6000813590506129f5816129cf565b92915050565b600060208284031215612a1157612a1061266a565b5b6000612a1f848285016129e6565b91505092915050565b612a31816127b7565b8114612a3c57600080fd5b50565b600081359050612a4e81612a28565b92915050565b600080600060608486031215612a6d57612a6c61266a565b5b6000612a7b868287016126bd565b9350506020612a8c868287016129e6565b9250506040612a9d86828701612a3f565b9150509250925092565b600080fd5b600080fd5b7f4e487b7100000000000000000000000000000000000000000000000000000000600052604160045260246000fd5b612ae982612754565b810181811067ffffffffffffffff82111715612b0857612b07612ab1565b5b80604052505050565b6000612b1b612660565b9050612b278282612ae0565b919050565b600067ffffffffffffffff821115612b4757612b46612ab1565b5b612b5082612754565b9050602081019050919050565b82818337600083830152505050565b6000612b7f612b7a84612b2c565b612b11565b905082815260208101848484011115612b9b57612b9a612aac565b5b612ba6848285612b5d565b509392505050565b600082601f830112612bc357612bc2612aa7565b5b8135612bd3848260208601612b6c565b91505092915050565b600060208284031215612bf257612bf161266a565b5b600082013567ffffffffffffffff811115612c1057612c0f61266f565b5b612c1c84828501612bae565b91505092915050565b600060208284031215612c3b57612c3a61266a565b5b6000612c4984828501612a3f565b91505092915050565b600060a0830160008301518482036000860152612c6f8282612765565b9150506020830151612c8460208601826127a8565b506040830151612c9760408601826127c1565b506060830151612caa60608601826127c1565b506080830151612cbd60808601826127dc565b508091505092915050565b60006020820190508181036000830152612ce28184612c52565b905092915050565b600082825260208201905092915050565b6000612d068261270e565b612d108185612cea565b9350612d2081856020860161272a565b612d2981612754565b840191505092915050565b612d3d8161279e565b82525050565b612d4c816127d0565b82525050565b600060a0820190508181036000830152612d6c8188612cfb565b9050612d7b6020830187612d34565b612d8860408301866129a5565b612d9560608301856129a5565b612da26080830184612d43565b9695505050505050565b60006020820190508181036000830152612dc68184612cfb565b905092915050565b6000602082019050612de36000830184612d43565b92915050565b600081519050919050565b600082825260208201905092915050565b6000819050602082019050919050565b6000612e218383612765565b905092915050565b6000602082019050919050565b6000612e4182612de9565b612e4b8185612df4565b935083602082028501612e5d85612e05565b8060005b85811015612e995784840389528151612e7a8582612e15565b9450612e8583612e29565b925060208a01995050600181019050612e61565b50829750879550505050505092915050565b60006020820190508181036000830152612ec58184612e36565b905092915050565b612ed681612694565b82525050565b6000602082019050612ef16000830184612ecd565b92915050565b600080600060608486031215612f1057612f0f61266a565b5b600084013567ffffffffffffffff811115612f2e57612f2d61266f565b5b612f3a86828701612bae565b9350506020612f4b868287016129e6565b9250506040612f5c86828701612a3f565b9150509250925092565b6000606082019050612f7b6000830186612d43565b8181036020830152612f8d8185612cfb565b9050612f9c6040830184612d43565b949350505050565b600061012082019050612fba600083018c612ecd565b8181036020830152612fcc818b612cfb565b9050612fdb604083018a612d34565b612fe86060830189612d34565b612ff560808301886129a5565b61300260a08301876129a5565b61300f60c08301866129a5565b61301c60e0830185612d43565b61302a610100830184612d34565b9a9950505050505050505050565b6000613043826128fe565b9050919050565b61305381613038565b82525050565b600060208201905061306e600083018461304a565b92915050565b7f4e487b7100000000000000000000000000000000000000000000000000000000600052602260045260246000fd5b600060028204905060018216806130bb57607f821691505b6020821081036130ce576130cd613074565b5b50919050565b7f43616e6e6f7420656e61626c6520776974686f75742076657269666965720000600082015250565b600061310a601e83612cea565b9150613115826130d4565b602082019050919050565b60006020820190508181036000830152613139816130fd565b9050919050565b7f4e6f20616374697665206173736573736d656e74000000000000000000000000600082015250565b6000613176601483612cea565b915061318182613140565b602082019050919050565b600060208201905081810360008301526131a581613169565b9050919050565b7f4173736573736d656e7420616c726561647920636f6d706c6574656400000000600082015250565b60006131e2601c83612cea565b91506131ed826131ac565b602082019050919050565b60006020820190508181036000830152613211816131d5565b9050919050565b7f416e737765727320686173682063616e6e6f7420626520656d70747900000000600082015250565b600061324e601c83612cea565b915061325982613218565b602082019050919050565b6000602082019050818103600083015261327d81613241565b9050919050565b60006040820190506132996000830185612d34565b6132a660208301846129a5565b9392505050565b7f4e6f20616e7377657273207375626d6974746564000000000000000000000000600082015250565b60006132e3601483612cea565b91506132ee826132ad565b602082019050919050565b60006020820190508181036000830152613312816132d6565b9050919050565b7f4e487b7100000000000000000000000000000000000000000000000000000000600052601160045260246000fd5b6000613353826127b7565b915061335e836127b7565b925082820261336c816127b7565b9150828204841483151761338357613382613319565b5b5092915050565b7f4e487b7100000000000000000000000000000000000000000000000000000000600052601260045260246000fd5b60006133c4826127b7565b91506133cf836127b7565b9250826133df576133de61338a565b5b828204905092915050565b60006040820190506133ff6000830185612ecd565b61340c60208301846129a5565b9392505050565b60006060820190506134286000830186612d34565b61343560208301856129a5565b61344260408301846129a5565b949350505050565b600081905092915050565b60006134608261270e565b61346a818561344a565b935061347a81856020860161272a565b80840191505092915050565b60006134928284613455565b915081905092915050565b7f5175657374696f6e2073657420646f6573206e6f742065786973740000000000600082015250565b60006134d3601b83612cea565b91506134de8261349d565b602082019050919050565b60006020820190508181036000830152613502816134c6565b9050919050565b7f5175657374696f6e20736574206973206e6f7420616374697665000000000000600082015250565b600061353f601a83612cea565b915061354a82613509565b602082019050919050565b6000602082019050818103600083015261356e81613532565b9050919050565b60008190508160005260206000209050919050565b60006020601f8301049050919050565b600082821b905092915050565b6000600883026135d77fffffffffffffffffffffffffffffffffffffffffffffffffffffffffffffffff8261359a565b6135e1868361359a565b95508019841693508086168417925050509392505050565b600061361461360f61360a846127b7565b6128d2565b6127b7565b9050919050565b6000819050919050565b61362e836135f9565b61364261363a8261361b565b8484546135a7565b825550505050565b600090565b61365761364a565b613662818484613625565b505050565b5b818110156136865761367b60008261364f565b600181019050613668565b5050565b601f8211156136cb5761369c81613575565b6136a58461358a565b810160208510156136b4578190505b6136c86136c08561358a565b830182613667565b50505b505050565b600082821c905092915050565b60006136ee600019846008026136d0565b1980831691505092915050565b600061370783836136dd565b9150826002028217905092915050565b6137208261270e565b67ffffffffffffffff81111561373957613738612ab1565b5b61374382546130a3565b61374e82828561368a565b600060209050601f831160018114613781576000841561376f578287015190505b61377985826136fb565b8655506137e1565b601f19841661378f86613575565b60005b828110156137b757848901518255600182019150602085019450602081019050613792565b868310156137d457848901516137d0601f8916826136dd565b8355505b6001600288020188555050505b505050505050565b600060408201905081810360008301526138038185612cfb565b905061381260208301846129a5565b9392505050565b7f5468726573686f6c64206d757374206265206265747765656e203020616e642060008201527f3130300000000000000000000000000000000000000000000000000000000000602082015250565b6000613875602383612cea565b915061388082613819565b604082019050919050565b600060208201905081810360008301526138a481613868565b9050919050565b7f566572696669636174696f6e206e6f7420656e61626c65640000000000000000600082015250565b60006138e1601883612cea565b91506138ec826138ab565b602082019050919050565b60006020820190508181036000830152613910816138d4565b9050919050565b7f50726576696f757320766572696669636174696f6e207374696c6c2070656e6460008201527f696e670000000000000000000000000000000000000000000000000000000000602082015250565b6000613973602383612cea565b915061397e82613917565b604082019050919050565b600060208201905081810360008301526139a281613966565b9050919050565b7f4e487b7100000000000000000000000000000000000000000000000000000000600052603260045260246000fd5b600081546139e5816130a3565b6139ef818661344a565b94506001821660008114613a0a5760018114613a1f57613a52565b60ff1983168652811515820286019350613a52565b613a2885613575565b60005b83811015613a4a57815481890152600182019150602081019050613a2b565b838801955050505b50505092915050565b6000613a6782846139d8565b915081905092915050565b6000613a7d826127b7565b91507fffffffffffffffffffffffffffffffffffffffffffffffffffffffffffffffff8203613aaf57613aae613319565b5b600182019050919050565b7f5175657374696f6e207365742049442063616e6e6f7420626520656d70747900600082015250565b6000613af0601f83612cea565b9150613afb82613aba565b602082019050919050565b60006020820190508181036000830152613b1f81613ae3565b9050919050565b7f436f6e74656e7420686173682063616e6e6f7420626520656d70747900000000600082015250565b6000613b5c601c83612cea565b9150613b6782613b26565b602082019050919050565b60006020820190508181036000830152613b8b81613b4f565b9050919050565b7f5175657374696f6e20636f756e74206d7573742062652067726561746572207460008201527f68616e207a65726f000000000000000000000000000000000000000000000000602082015250565b6000613bee602883612cea565b9150613bf982613b92565b604082019050919050565b60006020820190508181036000830152613c1d81613be1565b9050919050565b7f4f776e61626c653a206e6577206f776e657220697320746865207a65726f206160008201527f6464726573730000000000000000000000000000000000000000000000000000602082015250565b6000613c80602683612cea565b9150613c8b82613c24565b604082019050919050565b60006020820190508181036000830152613caf81613c73565b9050919050565b7f4e6f2070656e64696e6720766572696669636174696f6e000000000000000000600082015250565b6000613cec601783612cea565b9150613cf782613cb6565b602082019050919050565b60006020820190508181036000830152613d1b81613cdf565b9050919050565b7f4f776e61626c653a2063616c6c6572206973206e6f7420746865206f776e6572600082015250565b6000613d58602083612cea565b9150613d6382613d22565b602082019050919050565b60006020820190508181036000830152613d8781613d4b565b9050919050565b60008154613d9b816130a3565b613da58186612cea565b94506001821660008114613dc05760018114613dd657613e09565b60ff198316865281151560200286019350613e09565b613ddf85613575565b60005b83811015613e0157815481890152600182019150602081019050613de2565b808801955050505b50505092915050565b6000608082019050613e276000830187612ecd565b8181036020830152613e398186613d8e565b9050613e486040830185612d34565b613e556060830184612d34565b95945050505050565b600081519050613e6d816129cf565b92915050565b600060208284031215613e8957613e8861266a565b5b6000613e9784828501613e5e565b91505092915050565b60006040820190508181036000830152613eba8185613d8e565b9050613ec96020830184612d34565b9392505050565b6000602082019050613ee56000830184612d34565b92915050565b600081519050613efa8161294c565b92915050565b600081519050613f0f81612a28565b92915050565b60008060008060808587031215613f2f57613f2e61266a565b5b6000613f3d87828801613eeb565b9450506020613f4e87828801613eeb565b9350506040613f5f87828801613f00565b9250506060613f7087828801613e5e565b9150509295919450925056fea264697066735822122073b59e1d446cf04f78716d65fec4c02d0d0acba2f67ff0e62a3c88b7bfe88c9764736f6c63430008130033",
  "linkReferences": {},
  "deployedLinkReferences": {}
}