{
  "_format": "hh-sol-artifact-1",
  "contractName": "QuestionManager",
  "sourceName": "contracts/QuestionManager.sol",
  "abi": [
    {
      "inputs": [
        {
          "internalType": "address",
          "name": "_puzzlePointsAddress",
          "type": "address"
        }
      ],
      "stateMutability": "nonpayable",
      "type": "constructor"
    },
    {
      "anonymous": false,
      "inputs": [
        {
          "indexed": false,
          "internalType": "address",
          "name": "verifierAddress",
          "type": "address"
        }
      ],
      "name": "AnswerVerifierSet",
      "type": "event"
    },
    {
      "anonymous": false,
      "inputs": [
        {
          "indexed": true,
          "internalType": "address",
          "name": "user",
          "type": "address"
        },
        {
          "indexed": false,
          "internalType": "bytes32",
          "name": "answersHash",
          "type": "bytes32"
        },
        {
          "indexed": false,
          "internalType": "uint256",
          "name": "timestamp",
          "type": "uint256"
        }
      ],
      "name": "AnswersSubmitted",
      "type": "event"
    },
    {
      "anonymous": false,
      "inputs": [
        {
          "indexed": true,
          "internalType": "address",
          "name": "user",
          "type": "address"
        },
        {
          "indexed": false,
          "internalType": "bytes32",
          "name": "resultsHash",
          "type": "bytes32"
        },
        {
          "indexed": false,
          "internalType": "uint256",
          "name": "score",
          "type": "uint256"
        },
        {
          "indexed": false,
          "internalType": "uint256",
          "name": "timestamp",
          "type": "uint256"
        }
      ],
      "name": "AssessmentCompleted",
      "type": "event"
    },
    {
      "anonymous": false,
      "inputs": [
        {
          "indexed": true,
          "internalType": "address",
          "name": "user",
          "type": "address"
        },
        {
          "indexed": false,
          "internalType": "string",
          "name": "questionSetId",
          "type": "string"
        },
        {
          "indexed": false,
          "internalType": "uint256",
          "name": "timestamp",
          "type": "uint256"
        }
      ],
      "name": "AssessmentStarted",
      "type": "event"
    },
    {
      "anonymous": false,
      "inputs": [
        {
          "indexed": true,
          "internalType": "address",
          "name": "previousOwner",
          "type": "address"
        },
        {
          "indexed": true,
          "internalType": "address",
          "name": "newOwner",
          "type": "address"
        }
      ],
      "name": "OwnershipTransferred",
      "type": "event"
    },
    {
      "anonymous": false,
      "inputs": [
        {
          "indexed": true,
          "internalType": "string",
          "name": "questionSetId",
          "type": "string"
        },
        {
          "indexed": false,
          "internalType": "bytes32",
          "name": "contentHash",
          "type": "bytes32"
        },
        {
          "indexed": false,
          "internalType": "uint256",
          "name": "questionCount",
          "type": "uint256"
        },
        {
          "indexed": false,
          "internalType": "uint256",
          "name": "timestamp",
          "type": "uint256"
        }
      ],
      "name": "QuestionSetSubmitted",
      "type": "event"
    },
    {
      "anonymous": false,
      "inputs": [
        {
          "indexed": true,
          "internalType": "address",
          "name": "user",
          "type": "address"
        },
        {
          "indexed": false,
          "internalType": "string",
          "name": "questionSetId",
          "type": "string"
        },
        {
          "indexed": false,
          "internalType": "bytes32",
          "name": "requestId",
          "type": "bytes32"
        }
      ],
      "name": "VerificationPending",
      "type": "event"
    },
    {
      "inputs": [],
      "name": "MAX_REWARD_AMOUNT",
      "outputs": [
        {
          "internalType": "uint256",
          "name": "",
          "type": "uint256"
        }
      ],
      "stateMutability": "view",
      "type": "function"
    },
    {
      "inputs": [
        {
          "internalType": "string",
          "name": "setId",
          "type": "string"
        }
      ],
      "name": "activateQuestionSet",
      "outputs": [],
      "stateMutability": "nonpayable",
      "type": "function"
    },
    {
      "inputs": [],
      "name": "answerVerifier",
      "outputs": [
        {
          "internalType": "contract ChainlinkAnswerVerifier",
          "name": "",
          "type": "address"
        }
      ],
      "stateMutability": "view",
      "type": "function"
    },
    {
      "inputs": [],
      "name": "checkPendingVerification",
      "outputs": [],
      "stateMutability": "nonpayable",
      "type": "function"
    },
    {
      "inputs": [
        {
          "internalType": "string",
          "name": "setId",
          "type": "string"
        }
      ],
      "name": "deactivateQuestionSet",
      "outputs": [],
      "stateMutability": "nonpayable",
      "type": "function"
    },
    {
      "inputs": [],
      "name": "getActiveQuestionSets",
      "outputs": [
        {
          "internalType": "string[]",
          "name": "",
          "type": "string[]"
        }
      ],
      "stateMutability": "view",
      "type": "function"
    },
    {
      "inputs": [
        {
          "internalType": "string",
          "name": "questionSetId",
          "type": "string"
        }
      ],
      "name": "getQuestionSetMetadata",
      "outputs": [
        {
          "components": [
            {
              "internalType": "string",
              "name": "setId",
              "type": "string"
            },
            {
              "internalType": "bytes32",
              "name": "contentHash",
              "type": "bytes32"
            },
            {
              "internalType": "uint256",
              "name": "questionCount",
              "type": "uint256"
            },
            {
              "internalType": "uint256",
              "name": "timestamp",
              "type": "uint256"
            },
            {
              "internalType": "bool",
              "name": "active",
              "type": "bool"
            }
          ],
          "internalType": "struct QuestionManager.QuestionSetMetadata",
          "name": "",
          "type": "tuple"
        }
      ],
      "stateMutability": "view",
      "type": "function"
    },
    {
      "inputs": [],
      "name": "getQuestionSets",
      "outputs": [
        {
          "internalType": "string[]",
          "name": "",
          "type": "string[]"
        }
      ],
      "stateMutability": "view",
      "type": "function"
    },
    {
      "inputs": [
        {
          "internalType": "address",
          "name": "user",
          "type": "address"
        }
      ],
      "name": "getUserAssessment",
      "outputs": [
        {
          "components": [
            {
              "internalType": "address",
              "name": "user",
              "type": "address"
            },
            {
              "internalType": "string",
              "name": "questionSetId",
              "type": "string"
            },
            {
              "internalType": "bytes32",
              "name": "answersHash",
              "type": "bytes32"
            },
            {
              "internalType": "bytes32",
              "name": "resultsHash",
              "type": "bytes32"
            },
            {
              "internalType": "uint256",
              "name": "score",
              "type": "uint256"
            },
            {
              "internalType": "uint256",
              "name": "startTimestamp",
              "type": "uint256"
            },
            {
              "internalType": "uint256",
              "name": "completionTimestamp",
              "type": "uint256"
            },
            {
              "internalType": "bool",
              "name": "completed",
              "type": "bool"
            },
            {
              "internalType": "bytes32",
              "name": "pendingVerificationId",
              "type": "bytes32"
            }
          ],
          "internalType": "struct QuestionManager.UserAssessment",
          "name": "",
          "type": "tuple"
        }
      ],
      "stateMutability": "view",
      "type": "function"
    },
    {
      "inputs": [
        {
          "internalType": "address",
          "name": "user",
          "type": "address"
        }
      ],
      "name": "getUserAssessmentStatus",
      "outputs": [
        {
          "internalType": "bool",
          "name": "hasAssessment",
          "type": "bool"
        },
        {
          "internalType": "string",
          "name": "questionSetId",
          "type": "string"
        },
        {
          "internalType": "bool",
          "name": "completed",
          "type": "bool"
        }
      ],
      "stateMutability": "view",
      "type": "function"
    },
    {
      "inputs": [],
      "name": "owner",
      "outputs": [
        {
          "internalType": "address",
          "name": "",
          "type": "address"
        }
      ],
      "stateMutability": "view",
      "type": "function"
    },
    {
      "inputs": [],
      "name": "passingScoreThreshold",
      "outputs": [
        {
          "internalType": "uint256",
          "name": "",
          "type": "uint256"
        }
      ],
      "stateMutability": "view",
      "type": "function"
    },
    {
      "inputs": [],
      "name": "puzzlePoints",
      "outputs": [
        {
          "internalType": "contract PuzzlePoints",
          "name": "",
          "type": "address"
        }
      ],
      "stateMutability": "view",
      "type": "function"
    },
    {
      "inputs": [
        {
          "internalType": "uint256",
          "name": "",
          "type": "uint256"
        }
      ],
      "name": "questionSetIds",
      "outputs": [
        {
          "internalType": "string",
          "name": "",
          "type": "string"
        }
      ],
      "stateMutability": "view",
      "type": "function"
    },
    {
      "inputs": [
        {
          "internalType": "string",
          "name": "",
          "type": "string"
        }
      ],
      "name": "questionSets",
      "outputs": [
        {
          "internalType": "string",
          "name": "setId",
          "type": "string"
        },
        {
          "internalType": "bytes32",
          "name": "contentHash",
          "type": "bytes32"
        },
        {
          "internalType": "uint256",
          "name": "questionCount",
          "type": "uint256"
        },
        {
          "internalType": "uint256",
          "name": "timestamp",
          "type": "uint256"
        },
        {
          "internalType": "bool",
          "name": "active",
          "type": "bool"
        }
      ],
      "stateMutability": "view",
      "type": "function"
    },
    {
      "inputs": [],
      "name": "renounceOwnership",
      "outputs": [],
      "stateMutability": "nonpayable",
      "type": "function"
    },
    {
      "inputs": [],
      "name": "restartAssessment",
      "outputs": [],
      "stateMutability": "nonpayable",
      "type": "function"
    },
    {
      "inputs": [
        {
          "internalType": "address",
          "name": "verifierAddress",
          "type": "address"
        }
      ],
      "name": "setAnswerVerifier",
      "outputs": [],
      "stateMutability": "nonpayable",
      "type": "function"
    },
    {
      "inputs": [
        {
          "internalType": "uint256",
          "name": "threshold",
          "type": "uint256"
        }
      ],
      "name": "setPassingScoreThreshold",
      "outputs": [],
      "stateMutability": "nonpayable",
      "type": "function"
    },
    {
      "inputs": [
        {
          "internalType": "address",
          "name": "puzzlePointsAddr",
          "type": "address"
        }
      ],
      "name": "setPuzzlePoints",
      "outputs": [],
      "stateMutability": "nonpayable",
      "type": "function"
    },
    {
      "inputs": [
        {
          "internalType": "bool",
          "name": "enabled",
          "type": "bool"
        }
      ],
      "name": "setUseChainlinkFunctions",
      "outputs": [],
      "stateMutability": "nonpayable",
      "type": "function"
    },
    {
      "inputs": [
        {
          "internalType": "string",
          "name": "questionSetId",
          "type": "string"
        }
      ],
      "name": "startAssessment",
      "outputs": [],
      "stateMutability": "nonpayable",
      "type": "function"
    },
    {
      "inputs": [
        {
          "internalType": "bytes32",
          "name": "answersHash",
          "type": "bytes32"
        }
      ],
      "name": "submitAnswers",
      "outputs": [],
      "stateMutability": "nonpayable",
      "type": "function"
    },
    {
      "inputs": [
        {
          "internalType": "string",
          "name": "questionSetId",
          "type": "string"
        },
        {
          "internalType": "bytes32",
          "name": "answersHash",
          "type": "bytes32"
        }
      ],
      "name": "submitAssessmentAnswers",
      "outputs": [],
      "stateMutability": "nonpayable",
      "type": "function"
    },
    {
      "inputs": [
        {
          "internalType": "address",
          "name": "user",
          "type": "address"
        },
        {
          "internalType": "bytes32",
          "name": "resultsHash",
          "type": "bytes32"
        },
        {
          "internalType": "uint256",
          "name": "score",
          "type": "uint256"
        }
      ],
      "name": "submitEvaluationResults",
      "outputs": [],
      "stateMutability": "nonpayable",
      "type": "function"
    },
    {
      "inputs": [
        {
          "internalType": "string",
          "name": "setId",
          "type": "string"
        },
        {
          "internalType": "bytes32",
          "name": "contentHash",
          "type": "bytes32"
        },
        {
          "internalType": "uint256",
          "name": "questionCount",
          "type": "uint256"
        }
      ],
      "name": "submitQuestionSetHash",
      "outputs": [],
      "stateMutability": "nonpayable",
      "type": "function"
    },
    {
      "inputs": [
        {
          "internalType": "address",
          "name": "newOwner",
          "type": "address"
        }
      ],
      "name": "transferOwnership",
      "outputs": [],
      "stateMutability": "nonpayable",
      "type": "function"
    },
    {
      "inputs": [],
      "name": "triggerVerification",
      "outputs": [],
      "stateMutability": "nonpayable",
      "type": "function"
    },
    {
      "inputs": [],
      "name": "useChainlinkFunctions",
      "outputs": [
        {
          "internalType": "bool",
          "name": "",
          "type": "bool"
        }
      ],
      "stateMutability": "view",
      "type": "function"
    },
    {
      "inputs": [
        {
          "internalType": "address",
          "name": "",
          "type": "address"
        }
      ],
      "name": "userAssessments",
      "outputs": [
        {
          "internalType": "address",
          "name": "user",
          "type": "address"
        },
        {
          "internalType": "string",
          "name": "questionSetId",
          "type": "string"
        },
        {
          "internalType": "bytes32",
          "name": "answersHash",
          "type": "bytes32"
        },
        {
          "internalType": "bytes32",
          "name": "resultsHash",
          "type": "bytes32"
        },
        {
          "internalType": "uint256",
          "name": "score",
          "type": "uint256"
        },
        {
          "internalType": "uint256",
          "name": "startTimestamp",
          "type": "uint256"
        },
        {
          "internalType": "uint256",
          "name": "completionTimestamp",
          "type": "uint256"
        },
        {
          "internalType": "bool",
          "name": "completed",
          "type": "bool"
        },
        {
          "internalType": "bytes32",
          "name": "pendingVerificationId",
          "type": "bytes32"
        }
      ],
      "stateMutability": "view",
      "type": "function"
    }
  ],
  "bytecode": "0x608060405260466001556001600360146101000a81548160ff0219169083151502179055503480156200003157600080fd5b50604051620047cc380380620047cc83398181016040528101906200005791906200023c565b620000776200006b6200010660201b60201c565b6200010e60201b60201c565b600073ffffffffffffffffffffffffffffffffffffffff168173ffffffffffffffffffffffffffffffffffffffff1614620000ee5780600260006101000a81548173ffffffffffffffffffffffffffffffffffffffff021916908373ffffffffffffffffffffffffffffffffffffffff1602179055505b620000ff336200010e60201b60201c565b506200026e565b600033905090565b60008060009054906101000a900473ffffffffffffffffffffffffffffffffffffffff169050816000806101000a81548173ffffffffffffffffffffffffffffffffffffffff021916908373ffffffffffffffffffffffffffffffffffffffff1602179055508173ffffffffffffffffffffffffffffffffffffffff168173ffffffffffffffffffffffffffffffffffffffff167f8be0079c531659141344cd1fd0a4f28419497f9722a3daafe3b4186f6b6457e060405160405180910390a35050565b600080fd5b600073ffffffffffffffffffffffffffffffffffffffff82169050919050565b60006200020482620001d7565b9050919050565b6200021681620001f7565b81146200022257600080fd5b50565b60008151905062000236816200020b565b92915050565b600060208284031215620002555762000254620001d2565b5b6000620002658482850162000225565b91505092915050565b61454e806200027e6000396000f3fe608060405234801561001057600080fd5b50600436106101da5760003560e01c80637a8b054511610104578063a069dc40116100a2578063e2562b1411610071578063e2562b1414610515578063f2fde38b14610531578063fda3d08c1461054d578063ff8f270a14610557576101da565b8063a069dc4014610471578063ae9c63b31461048d578063ce2ca64a146104bf578063de596dba146104dd576101da565b80638b329195116100de5780638b329195146103fd5780638da5cb5b1461041957806398182dad14610437578063a04f6b4b14610453576101da565b80637a8b0545146103b75780638062cf52146103d557806387dffbb8146103df576101da565b80633d85a4921161017c5780635d00d4261161014b5780635d00d4261461033f5780636914a6ec14610349578063715018a61461037d5780637156e03e14610387576101da565b80633d85a492146102bb5780633ee6b544146102d757806342885ea3146102f357806356ad48b214610323576101da565b8063276e0c1d116101b8578063276e0c1d146102495780632c39e7f7146102675780632f36dc30146102835780633becf8481461029f576101da565b80630a859af2146101df5780630f447db61461020f57806315d85f0a1461022d575b600080fd5b6101f960048036038101906101f49190612ac6565b610575565b6040516102069190612ca4565b60405180910390f35b61021761070e565b6040516102249190612d25565b60405180910390f35b61024760048036038101906102429190612d6c565b610734565b005b6102516107f4565b60405161025e9190612da8565b60405180910390f35b610281600480360381019061027c9190612ac6565b6107fa565b005b61029d60048036038101906102989190612def565b610898565b005b6102b960048036038101906102b49190612e48565b610a9c565b005b6102d560048036038101906102d09190612fd0565b610d80565b005b6102f160048036038101906102ec9190613019565b610fa8565b005b61030d60048036038101906103089190612fd0565b610ffe565b60405161031a91906130bc565b60405180910390f35b61033d60048036038101906103389190612fd0565b611101565b005b6103476111b6565b005b610363600480360381019061035e9190612fd0565b611275565b604051610374959493929190613146565b60405180910390f35b610385611356565b005b6103a1600480360381019061039c9190613019565b61136a565b6040516103ae91906131a0565b60405180910390f35b6103bf611416565b6040516103cc91906131c2565b60405180910390f35b6103dd611429565b005b6103e7611671565b6040516103f4919061329f565b60405180910390f35b61041760048036038101906104129190612fd0565b61189d565b005b610421611952565b60405161042e91906132d0565b60405180910390f35b610451600480360381019061044c91906132eb565b61197b565b005b61045b611d48565b6040516104689190612da8565b60405180910390f35b61048b60048036038101906104869190613347565b611d54565b005b6104a760048036038101906104a29190612ac6565b611f5c565b6040516104b6939291906133b6565b60405180910390f35b6104c7612065565b6040516104d4919061329f565b60405180910390f35b6104f760048036038101906104f29190612ac6565b61213e565b60405161050c999897969594939291906133f4565b60405180910390f35b61052f600480360381019061052a9190612ac6565b612241565b005b61054b60048036038101906105469190612ac6565b61228d565b005b610555612310565b005b61055f6123a8565b60405161056c91906134a9565b60405180910390f35b61057d612956565b600660008373ffffffffffffffffffffffffffffffffffffffff1673ffffffffffffffffffffffffffffffffffffffff168152602001908152602001600020604051806101200160405290816000820160009054906101000a900473ffffffffffffffffffffffffffffffffffffffff1673ffffffffffffffffffffffffffffffffffffffff1673ffffffffffffffffffffffffffffffffffffffff16815260200160018201805461062e906134f3565b80601f016020809104026020016040519081016040528092919081815260200182805461065a906134f3565b80156106a75780601f1061067c576101008083540402835291602001916106a7565b820191906000526020600020905b81548152906001019060200180831161068a57829003601f168201915b5050505050815260200160028201548152602001600382015481526020016004820154815260200160058201548152602001600682015481526020016007820160009054906101000a900460ff161515151581526020016008820154815250509050919050565b600260009054906101000a900473ffffffffffffffffffffffffffffffffffffffff1681565b61073c6123ce565b600073ffffffffffffffffffffffffffffffffffffffff16600360009054906101000a900473ffffffffffffffffffffffffffffffffffffffff1673ffffffffffffffffffffffffffffffffffffffff16141580610798575080155b6107d7576040517f08c379a00000000000000000000000000000000000000000000000000000000081526004016107ce90613570565b60405180910390fd5b80600360146101000a81548160ff02191690831515021790555050565b60015481565b6108026123ce565b80600360006101000a81548173ffffffffffffffffffffffffffffffffffffffff021916908373ffffffffffffffffffffffffffffffffffffffff1602179055506001600360146101000a81548160ff0219169083151502179055507f25f8a4231562132928c8f2339f42d40b6ae437ec645d8e3e8677710a30704fda8160405161088d91906132d0565b60405180910390a150565b6000600660003373ffffffffffffffffffffffffffffffffffffffff1673ffffffffffffffffffffffffffffffffffffffff168152602001908152602001600020905060008160010180546108ec906134f3565b90501161092e576040517f08c379a0000000000000000000000000000000000000000000000000000000008152600401610925906135dc565b60405180910390fd5b8060070160009054906101000a900460ff1615610980576040517f08c379a000000000000000000000000000000000000000000000000000000000815260040161097790613648565b60405180910390fd5b6000801b82036109c5576040517f08c379a00000000000000000000000000000000000000000000000000000000081526004016109bc906136b4565b60405180910390fd5b8181600201819055503373ffffffffffffffffffffffffffffffffffffffff167fd963f150110bd30c85d76feee9fa985e297f8e699fc1e1b80e11e1f8577cb47c8342604051610a169291906136d4565b60405180910390a2600360149054906101000a900460ff168015610a895750600073ffffffffffffffffffffffffffffffffffffffff16600360009054906101000a900473ffffffffffffffffffffffffffffffffffffffff1673ffffffffffffffffffffffffffffffffffffffff1614155b15610a9857610a978161244c565b5b5050565b610aa46123ce565b6000600660008573ffffffffffffffffffffffffffffffffffffffff1673ffffffffffffffffffffffffffffffffffffffff16815260200190815260200160002090506000816001018054610af8906134f3565b905011610b3a576040517f08c379a0000000000000000000000000000000000000000000000000000000008152600401610b31906135dc565b60405180910390fd5b6000801b816002015403610b83576040517f08c379a0000000000000000000000000000000000000000000000000000000008152600401610b7a90613749565b60405180910390fd5b8060070160009054906101000a900460ff1615610bd5576040517f08c379a0000000000000000000000000000000000000000000000000000000008152600401610bcc90613648565b60405180910390fd5b82816003018190555081816004018190555042816006018190555060018160070160006101000a81548160ff0219169083151502179055506001548210158015610c6e5750600073ffffffffffffffffffffffffffffffffffffffff16600260009054906101000a900473ffffffffffffffffffffffffffffffffffffffff1673ffffffffffffffffffffffffffffffffffffffff1614155b15610d285760006064670de0b6b3a764000084610c8b9190613798565b610c959190613809565b9050600260009054906101000a900473ffffffffffffffffffffffffffffffffffffffff1673ffffffffffffffffffffffffffffffffffffffff166340c10f1986836040518363ffffffff1660e01b8152600401610cf492919061383a565b600060405180830381600087803b158015610d0e57600080fd5b505af1158015610d22573d6000803e3d6000fd5b50505050505b8373ffffffffffffffffffffffffffffffffffffffff167fee124b935fb88e2cece5ffba3ba998364a0bfed62434c027226ebefde125c7d5848442604051610d7293929190613863565b60405180910390a250505050565b6000600482604051610d9291906138d6565b90815260200160405180910390206000018054610dae906134f3565b905011610df0576040517f08c379a0000000000000000000000000000000000000000000000000000000008152600401610de790613939565b60405180910390fd5b600481604051610e0091906138d6565b908152602001604051809103902060040160009054906101000a900460ff16610e5e576040517f08c379a0000000000000000000000000000000000000000000000000000000008152600401610e55906139a5565b60405180910390fd5b6000600660003373ffffffffffffffffffffffffffffffffffffffff1673ffffffffffffffffffffffffffffffffffffffff1681526020019081526020016000209050338160000160006101000a81548173ffffffffffffffffffffffffffffffffffffffff021916908373ffffffffffffffffffffffffffffffffffffffff16021790555081816001019081610ef59190613b67565b504281600501819055506000801b81600201819055506000801b8160030181905550600081600401819055506000816006018190555060008160070160006101000a81548160ff0219169083151502179055506000801b81600801819055503373ffffffffffffffffffffffffffffffffffffffff167f911739041ede0438af029a3293231b82c7f6d91ecbb8632c13846b1b2d6a9daf8342604051610f9c929190613c39565b60405180910390a25050565b610fb06123ce565b6064811115610ff4576040517f08c379a0000000000000000000000000000000000000000000000000000000008152600401610feb90613cdb565b60405180910390fd5b8060018190555050565b6110066129c3565b60048260405161101691906138d6565b90815260200160405180910390206040518060a001604052908160008201805461103f906134f3565b80601f016020809104026020016040519081016040528092919081815260200182805461106b906134f3565b80156110b85780601f1061108d576101008083540402835291602001916110b8565b820191906000526020600020905b81548152906001019060200180831161109b57829003601f168201915b505050505081526020016001820154815260200160028201548152602001600382015481526020016004820160009054906101000a900460ff1615151515815250509050919050565b6111096123ce565b600060048260405161111b91906138d6565b90815260200160405180910390206000018054611137906134f3565b905011611179576040517f08c379a000000000000000000000000000000000000000000000000000000000815260040161117090613939565b60405180910390fd5b600160048260405161118b91906138d6565b908152602001604051809103902060040160006101000a81548160ff02191690831515021790555050565b600660003373ffffffffffffffffffffffffffffffffffffffff1673ffffffffffffffffffffffffffffffffffffffff168152602001908152602001600020600080820160006101000a81549073ffffffffffffffffffffffffffffffffffffffff021916905560018201600061122d91906129f7565b600282016000905560038201600090556004820160009055600582016000905560068201600090556007820160006101000a81549060ff021916905560088201600090555050565b6004818051602081018201805184825260208301602085012081835280955050505050506000915090508060000180546112ae906134f3565b80601f01602080910402602001604051908101604052809291908181526020018280546112da906134f3565b80156113275780601f106112fc57610100808354040283529160200191611327565b820191906000526020600020905b81548152906001019060200180831161130a57829003601f168201915b5050505050908060010154908060020154908060030154908060040160009054906101000a900460ff16905085565b61135e6123ce565b61136860006125cd565b565b6005818154811061137a57600080fd5b906000526020600020016000915090508054611395906134f3565b80601f01602080910402602001604051908101604052809291908181526020018280546113c1906134f3565b801561140e5780601f106113e35761010080835404028352916020019161140e565b820191906000526020600020905b8154815290600101906020018083116113f157829003601f168201915b505050505081565b600360149054906101000a900460ff1681565b6000600660003373ffffffffffffffffffffffffffffffffffffffff1673ffffffffffffffffffffffffffffffffffffffff1681526020019081526020016000209050600081600101805461147d906134f3565b9050116114bf576040517f08c379a00000000000000000000000000000000000000000000000000000000081526004016114b6906135dc565b60405180910390fd5b8060070160009054906101000a900460ff1615611511576040517f08c379a000000000000000000000000000000000000000000000000000000000815260040161150890613648565b60405180910390fd5b6000801b81600201540361155a576040517f08c379a000000000000000000000000000000000000000000000000000000000815260040161155190613749565b60405180910390fd5b600360149054906101000a900460ff1680156115c55750600073ffffffffffffffffffffffffffffffffffffffff16600360009054906101000a900473ffffffffffffffffffffffffffffffffffffffff1673ffffffffffffffffffffffffffffffffffffffff1614155b611604576040517f08c379a00000000000000000000000000000000000000000000000000000000081526004016115fb90613d47565b60405180910390fd5b6000801b8160080154146116655761161b81612691565b6000801b816008015414611664576040517f08c379a000000000000000000000000000000000000000000000000000000000815260040161165b90613dd9565b60405180910390fd5b5b61166e8161244c565b50565b60606000805b6005805490508110156116f75760046005828154811061169a57611699613df9565b5b906000526020600020016040516116b19190613eab565b908152602001604051809103902060040160009054906101000a900460ff16156116e45781806116e090613ec2565b9250505b80806116ef90613ec2565b915050611677565b5060008167ffffffffffffffff81111561171457611713612ea5565b5b60405190808252806020026020018201604052801561174757816020015b60608152602001906001900390816117325790505b5090506000805b6005805490508110156118935760046005828154811061177157611770613df9565b5b906000526020600020016040516117889190613eab565b908152602001604051809103902060040160009054906101000a900460ff161561188057600581815481106117c0576117bf613df9565b5b9060005260206000200180546117d5906134f3565b80601f0160208091040260200160405190810160405280929190818152602001828054611801906134f3565b801561184e5780601f106118235761010080835404028352916020019161184e565b820191906000526020600020905b81548152906001019060200180831161183157829003601f168201915b505050505083838151811061186657611865613df9565b5b6020026020010181905250818061187c90613ec2565b9250505b808061188b90613ec2565b91505061174e565b5081935050505090565b6118a56123ce565b60006004826040516118b791906138d6565b908152602001604051809103902060000180546118d3906134f3565b905011611915576040517f08c379a000000000000000000000000000000000000000000000000000000000815260040161190c90613939565b60405180910390fd5b600060048260405161192791906138d6565b908152602001604051809103902060040160006101000a81548160ff02191690831515021790555050565b60008060009054906101000a900473ffffffffffffffffffffffffffffffffffffffff16905090565b600060048360405161198d91906138d6565b908152602001604051809103902060000180546119a9906134f3565b9050116119eb576040517f08c379a00000000000000000000000000000000000000000000000000000000081526004016119e290613939565b60405180910390fd5b6004826040516119fb91906138d6565b908152602001604051809103902060040160009054906101000a900460ff16611a59576040517f08c379a0000000000000000000000000000000000000000000000000000000008152600401611a50906139a5565b60405180910390fd5b6000801b8103611a9e576040517f08c379a0000000000000000000000000000000000000000000000000000000008152600401611a95906136b4565b60405180910390fd5b6000600660003373ffffffffffffffffffffffffffffffffffffffff1673ffffffffffffffffffffffffffffffffffffffff16815260200190815260200160002090506000816001018054611af2906134f3565b9050118015611b1f5750828051906020012081600101604051611b159190613fad565b6040518091039020145b8015611b3957508060070160009054906101000a900460ff165b15611b79576040517f08c379a0000000000000000000000000000000000000000000000000000000008152600401611b7090614036565b60405180910390fd5b338160000160006101000a81548173ffffffffffffffffffffffffffffffffffffffff021916908373ffffffffffffffffffffffffffffffffffffffff16021790555082816001019081611bcd9190613b67565b504281600501819055508181600201819055506000801b8160030181905550600081600401819055506000816006018190555060008160070160006101000a81548160ff0219169083151502179055506000801b81600801819055503373ffffffffffffffffffffffffffffffffffffffff167f911739041ede0438af029a3293231b82c7f6d91ecbb8632c13846b1b2d6a9daf8442604051611c71929190613c39565b60405180910390a23373ffffffffffffffffffffffffffffffffffffffff167fd963f150110bd30c85d76feee9fa985e297f8e699fc1e1b80e11e1f8577cb47c8342604051611cc19291906136d4565b60405180910390a2600360149054906101000a900460ff168015611d345750600073ffffffffffffffffffffffffffffffffffffffff16600360009054906101000a900473ffffffffffffffffffffffffffffffffffffffff1673ffffffffffffffffffffffffffffffffffffffff1614155b15611d4357611d428161244c565b5b505050565b670de0b6b3a764000081565b611d5c6123ce565b6000835111611da0576040517f08c379a0000000000000000000000000000000000000000000000000000000008152600401611d97906140a2565b60405180910390fd5b6000801b8203611de5576040517f08c379a0000000000000000000000000000000000000000000000000000000008152600401611ddc9061410e565b60405180910390fd5b60008111611e28576040517f08c379a0000000000000000000000000000000000000000000000000000000008152600401611e1f906141a0565b60405180910390fd5b600080600485604051611e3b91906138d6565b90815260200160405180910390206000018054611e57906134f3565b90501490506000600485604051611e6e91906138d6565b9081526020016040518091039020905084816000019081611e8f9190613b67565b5083816001018190555082816002018190555042816003018190555060018160040160006101000a81548160ff0219169083151502179055508115611f0457600585908060018154018082558091505060019003906000526020600020016000909190919091509081611f029190613b67565b505b84604051611f1291906138d6565b60405180910390207f281fb0247c7507ae47c4bb0224de4e85084c1c6a9d5ba89d595a426902161fa5858542604051611f4d93929190613863565b60405180910390a25050505050565b60006060600080600660008673ffffffffffffffffffffffffffffffffffffffff1673ffffffffffffffffffffffffffffffffffffffff16815260200190815260200160002090506000816001018054611fb5906134f3565b9050119350806001018054611fc9906134f3565b80601f0160208091040260200160405190810160405280929190818152602001828054611ff5906134f3565b80156120425780601f1061201757610100808354040283529160200191612042565b820191906000526020600020905b81548152906001019060200180831161202557829003601f168201915b505050505092508060070160009054906101000a900460ff169150509193909250565b60606005805480602002602001604051908101604052809291908181526020016000905b828210156121355783829060005260206000200180546120a8906134f3565b80601f01602080910402602001604051908101604052809291908181526020018280546120d4906134f3565b80156121215780601f106120f657610100808354040283529160200191612121565b820191906000526020600020905b81548152906001019060200180831161210457829003601f168201915b505050505081526020019060010190612089565b50505050905090565b60066020528060005260406000206000915090508060000160009054906101000a900473ffffffffffffffffffffffffffffffffffffffff1690806001018054612187906134f3565b80601f01602080910402602001604051908101604052809291908181526020018280546121b3906134f3565b80156122005780601f106121d557610100808354040283529160200191612200565b820191906000526020600020905b8154815290600101906020018083116121e357829003601f168201915b5050505050908060020154908060030154908060040154908060050154908060060154908060070160009054906101000a900460ff16908060080154905089565b6122496123ce565b80600260006101000a81548173ffffffffffffffffffffffffffffffffffffffff021916908373ffffffffffffffffffffffffffffffffffffffff16021790555050565b6122956123ce565b600073ffffffffffffffffffffffffffffffffffffffff168173ffffffffffffffffffffffffffffffffffffffff1603612304576040517f08c379a00000000000000000000000000000000000000000000000000000000081526004016122fb90614232565b60405180910390fd5b61230d816125cd565b50565b6000600660003373ffffffffffffffffffffffffffffffffffffffff1673ffffffffffffffffffffffffffffffffffffffff16815260200190815260200160002090506000801b81600801540361239c576040517f08c379a00000000000000000000000000000000000000000000000000000000081526004016123939061429e565b60405180910390fd5b6123a581612691565b50565b600360009054906101000a900473ffffffffffffffffffffffffffffffffffffffff1681565b6123d661294e565b73ffffffffffffffffffffffffffffffffffffffff166123f4611952565b73ffffffffffffffffffffffffffffffffffffffff161461244a576040517f08c379a00000000000000000000000000000000000000000000000000000000081526004016124419061430a565b60405180910390fd5b565b60006004826001016040516124619190613eab565b90815260200160405180910390206001015490506000600360009054906101000a900473ffffffffffffffffffffffffffffffffffffffff1673ffffffffffffffffffffffffffffffffffffffff1663428199378460000160009054906101000a900473ffffffffffffffffffffffffffffffffffffffff16856001018660020154866040518563ffffffff1660e01b815260040161250394939291906143ae565b6020604051808303816000875af1158015612522573d6000803e3d6000fd5b505050506040513d601f19601f82011682018060405250810190612546919061440f565b90508083600801819055508260000160009054906101000a900473ffffffffffffffffffffffffffffffffffffffff1673ffffffffffffffffffffffffffffffffffffffff167fe15c9a8d8a7137796a9917b85b2ba66feaad317998334d659a9c01f11f25090e84600101836040516125c092919061443c565b60405180910390a2505050565b60008060009054906101000a900473ffffffffffffffffffffffffffffffffffffffff169050816000806101000a81548173ffffffffffffffffffffffffffffffffffffffff021916908373ffffffffffffffffffffffffffffffffffffffff1602179055508173ffffffffffffffffffffffffffffffffffffffff168173ffffffffffffffffffffffffffffffffffffffff167f8be0079c531659141344cd1fd0a4f28419497f9722a3daafe3b4186f6b6457e060405160405180910390a35050565b600080600080600360009054906101000a900473ffffffffffffffffffffffffffffffffffffffff1673ffffffffffffffffffffffffffffffffffffffff16637a21baa086600801546040518263ffffffff1660e01b81526004016126f6919061446c565b608060405180830381865afa158015612713573d6000803e3d6000fd5b505050506040513d601f19601f8201168201806040525081019061273791906144b1565b93509350935093508361274d575050505061294b565b6000801b856008018190555080856003018190555081856004018190555042856006018190555060018560070160006101000a81548160ff02191690831515021790555060015482101580156127f25750600073ffffffffffffffffffffffffffffffffffffffff16600260009054906101000a900473ffffffffffffffffffffffffffffffffffffffff1673ffffffffffffffffffffffffffffffffffffffff1614155b156128d05760006064670de0b6b3a76400008461280f9190613798565b6128199190613809565b9050600260009054906101000a900473ffffffffffffffffffffffffffffffffffffffff1673ffffffffffffffffffffffffffffffffffffffff166340c10f198760000160009054906101000a900473ffffffffffffffffffffffffffffffffffffffff16836040518363ffffffff1660e01b815260040161289c92919061383a565b600060405180830381600087803b1580156128b657600080fd5b505af11580156128ca573d6000803e3d6000fd5b50505050505b8460000160009054906101000a900473ffffffffffffffffffffffffffffffffffffffff1673ffffffffffffffffffffffffffffffffffffffff167fee124b935fb88e2cece5ffba3ba998364a0bfed62434c027226ebefde125c7d582844260405161293e93929190613863565b60405180910390a2505050505b50565b600033905090565b604051806101200160405280600073ffffffffffffffffffffffffffffffffffffffff168152602001606081526020016000801916815260200160008019168152602001600081526020016000815260200160008152602001600015158152602001600080191681525090565b6040518060a00160405280606081526020016000801916815260200160008152602001600081526020016000151581525090565b508054612a03906134f3565b6000825580601f10612a155750612a34565b601f016020900490600052602060002090810190612a339190612a37565b5b50565b5b80821115612a50576000816000905550600101612a38565b5090565b6000604051905090565b600080fd5b600080fd5b600073ffffffffffffffffffffffffffffffffffffffff82169050919050565b6000612a9382612a68565b9050919050565b612aa381612a88565b8114612aae57600080fd5b50565b600081359050612ac081612a9a565b92915050565b600060208284031215612adc57612adb612a5e565b5b6000612aea84828501612ab1565b91505092915050565b612afc81612a88565b82525050565b600081519050919050565b600082825260208201905092915050565b60005b83811015612b3c578082015181840152602081019050612b21565b60008484015250505050565b6000601f19601f8301169050919050565b6000612b6482612b02565b612b6e8185612b0d565b9350612b7e818560208601612b1e565b612b8781612b48565b840191505092915050565b6000819050919050565b612ba581612b92565b82525050565b6000819050919050565b612bbe81612bab565b82525050565b60008115159050919050565b612bd981612bc4565b82525050565b600061012083016000830151612bf86000860182612af3565b5060208301518482036020860152612c108282612b59565b9150506040830151612c256040860182612b9c565b506060830151612c386060860182612b9c565b506080830151612c4b6080860182612bb5565b5060a0830151612c5e60a0860182612bb5565b5060c0830151612c7160c0860182612bb5565b5060e0830151612c8460e0860182612bd0565b50610100830151612c99610100860182612b9c565b508091505092915050565b60006020820190508181036000830152612cbe8184612bdf565b905092915050565b6000819050919050565b6000612ceb612ce6612ce184612a68565b612cc6565b612a68565b9050919050565b6000612cfd82612cd0565b9050919050565b6000612d0f82612cf2565b9050919050565b612d1f81612d04565b82525050565b6000602082019050612d3a6000830184612d16565b92915050565b612d4981612bc4565b8114612d5457600080fd5b50565b600081359050612d6681612d40565b92915050565b600060208284031215612d8257612d81612a5e565b5b6000612d9084828501612d57565b91505092915050565b612da281612bab565b82525050565b6000602082019050612dbd6000830184612d99565b92915050565b612dcc81612b92565b8114612dd757600080fd5b50565b600081359050612de981612dc3565b92915050565b600060208284031215612e0557612e04612a5e565b5b6000612e1384828501612dda565b91505092915050565b612e2581612bab565b8114612e3057600080fd5b50565b600081359050612e4281612e1c565b92915050565b600080600060608486031215612e6157612e60612a5e565b5b6000612e6f86828701612ab1565b9350506020612e8086828701612dda565b9250506040612e9186828701612e33565b9150509250925092565b600080fd5b600080fd5b7f4e487b7100000000000000000000000000000000000000000000000000000000600052604160045260246000fd5b612edd82612b48565b810181811067ffffffffffffffff82111715612efc57612efb612ea5565b5b80604052505050565b6000612f0f612a54565b9050612f1b8282612ed4565b919050565b600067ffffffffffffffff821115612f3b57612f3a612ea5565b5b612f4482612b48565b9050602081019050919050565b82818337600083830152505050565b6000612f73612f6e84612f20565b612f05565b905082815260208101848484011115612f8f57612f8e612ea0565b5b612f9a848285612f51565b509392505050565b600082601f830112612fb757612fb6612e9b565b5b8135612fc7848260208601612f60565b91505092915050565b600060208284031215612fe657612fe5612a5e565b5b600082013567ffffffffffffffff81111561300457613003612a63565b5b61301084828501612fa2565b91505092915050565b60006020828403121561302f5761302e612a5e565b5b600061303d84828501612e33565b91505092915050565b600060a08301600083015184820360008601526130638282612b59565b91505060208301516130786020860182612b9c565b50604083015161308b6040860182612bb5565b50606083015161309e6060860182612bb5565b5060808301516130b16080860182612bd0565b508091505092915050565b600060208201905081810360008301526130d68184613046565b905092915050565b600082825260208201905092915050565b60006130fa82612b02565b61310481856130de565b9350613114818560208601612b1e565b61311d81612b48565b840191505092915050565b61313181612b92565b82525050565b61314081612bc4565b82525050565b600060a082019050818103600083015261316081886130ef565b905061316f6020830187613128565b61317c6040830186612d99565b6131896060830185612d99565b6131966080830184613137565b9695505050505050565b600060208201905081810360008301526131ba81846130ef565b905092915050565b60006020820190506131d76000830184613137565b92915050565b600081519050919050565b600082825260208201905092915050565b6000819050602082019050919050565b60006132158383612b59565b905092915050565b6000602082019050919050565b6000613235826131dd565b61323f81856131e8565b935083602082028501613251856131f9565b8060005b8581101561328d578484038952815161326e8582613209565b94506132798361321d565b925060208a01995050600181019050613255565b50829750879550505050505092915050565b600060208201905081810360008301526132b9818461322a565b905092915050565b6132ca81612a88565b82525050565b60006020820190506132e560008301846132c1565b92915050565b6000806040838503121561330257613301612a5e565b5b600083013567ffffffffffffffff8111156133205761331f612a63565b5b61332c85828601612fa2565b925050602061333d85828601612dda565b9150509250929050565b6000806000606084860312156133605761335f612a5e565b5b600084013567ffffffffffffffff81111561337e5761337d612a63565b5b61338a86828701612fa2565b935050602061339b86828701612dda565b92505060406133ac86828701612e33565b9150509250925092565b60006060820190506133cb6000830186613137565b81810360208301526133dd81856130ef565b90506133ec6040830184613137565b949350505050565b60006101208201905061340a600083018c6132c1565b818103602083015261341c818b6130ef565b905061342b604083018a613128565b6134386060830189613128565b6134456080830188612d99565b61345260a0830187612d99565b61345f60c0830186612d99565b61346c60e0830185613137565b61347a610100830184613128565b9a9950505050505050505050565b600061349382612cf2565b9050919050565b6134a381613488565b82525050565b60006020820190506134be600083018461349a565b92915050565b7f4e487b7100000000000000000000000000000000000000000000000000000000600052602260045260246000fd5b6000600282049050600182168061350b57607f821691505b60208210810361351e5761351d6134c4565b5b50919050565b7f43616e6e6f7420656e61626c6520776974686f75742076657269666965720000600082015250565b600061355a601e836130de565b915061356582613524565b602082019050919050565b600060208201905081810360008301526135898161354d565b9050919050565b7f4e6f20616374697665206173736573736d656e74000000000000000000000000600082015250565b60006135c66014836130de565b91506135d182613590565b602082019050919050565b600060208201905081810360008301526135f5816135b9565b9050919050565b7f4173736573736d656e7420616c726561647920636f6d706c6574656400000000600082015250565b6000613632601c836130de565b915061363d826135fc565b602082019050919050565b6000602082019050818103600083015261366181613625565b9050919050565b7f416e737765727320686173682063616e6e6f7420626520656d70747900000000600082015250565b600061369e601c836130de565b91506136a982613668565b602082019050919050565b600060208201905081810360008301526136cd81613691565b9050919050565b60006040820190506136e96000830185613128565b6136f66020830184612d99565b9392505050565b7f4e6f20616e7377657273207375626d6974746564000000000000000000000000600082015250565b60006137336014836130de565b915061373e826136fd565b602082019050919050565b6000602082019050818103600083015261376281613726565b9050919050565b7f4e487b7100000000000000000000000000000000000000000000000000000000600052601160045260246000fd5b60006137a382612bab565b91506137ae83612bab565b92508282026137bc81612bab565b915082820484148315176137d3576137d2613769565b5b5092915050565b7f4e487b7100000000000000000000000000000000000000000000000000000000600052601260045260246000fd5b600061381482612bab565b915061381f83612bab565b92508261382f5761382e6137da565b5b828204905092915050565b600060408201905061384f60008301856132c1565b61385c6020830184612d99565b9392505050565b60006060820190506138786000830186613128565b6138856020830185612d99565b6138926040830184612d99565b949350505050565b600081905092915050565b60006138b082612b02565b6138ba818561389a565b93506138ca818560208601612b1e565b80840191505092915050565b60006138e282846138a5565b915081905092915050565b7f5175657374696f6e2073657420646f6573206e6f742065786973740000000000600082015250565b6000613923601b836130de565b915061392e826138ed565b602082019050919050565b6000602082019050818103600083015261395281613916565b9050919050565b7f5175657374696f6e20736574206973206e6f7420616374697665000000000000600082015250565b600061398f601a836130de565b915061399a82613959565b602082019050919050565b600060208201905081810360008301526139be81613982565b9050919050565b60008190508160005260206000209050919050565b60006020601f8301049050919050565b600082821b905092915050565b600060088302613a277fffffffffffffffffffffffffffffffffffffffffffffffffffffffffffffffff826139ea565b613a3186836139ea565b95508019841693508086168417925050509392505050565b6000613a64613a5f613a5a84612bab565b612cc6565b612bab565b9050919050565b6000819050919050565b613a7e83613a49565b613a92613a8a82613a6b565b8484546139f7565b825550505050565b600090565b613aa7613a9a565b613ab2818484613a75565b505050565b5b81811015613ad657613acb600082613a9f565b600181019050613ab8565b5050565b601f821115613b1b57613aec816139c5565b613af5846139da565b81016020851015613b04578190505b613b18613b10856139da565b830182613ab7565b50505b505050565b600082821c905092915050565b6000613b3e60001984600802613b20565b1980831691505092915050565b6000613b578383613b2d565b9150826002028217905092915050565b613b7082612b02565b67ffffffffffffffff811115613b8957613b88612ea5565b5b613b9382546134f3565b613b9e828285613ada565b600060209050601f831160018114613bd15760008415613bbf578287015190505b613bc98582613b4b565b865550613c31565b601f198416613bdf866139c5565b60005b82811015613c0757848901518255600182019150602085019450602081019050613be2565b86831015613c245784890151613c20601f891682613b2d565b8355505b6001600288020188555050505b505050505050565b60006040820190508181036000830152613c5381856130ef565b9050613c626020830184612d99565b9392505050565b7f5468726573686f6c64206d757374206265206265747765656e203020616e642060008201527f3130300000000000000000000000000000000000000000000000000000000000602082015250565b6000613cc56023836130de565b9150613cd082613c69565b604082019050919050565b60006020820190508181036000830152613cf481613cb8565b9050919050565b7f566572696669636174696f6e206e6f7420656e61626c65640000000000000000600082015250565b6000613d316018836130de565b9150613d3c82613cfb565b602082019050919050565b60006020820190508181036000830152613d6081613d24565b9050919050565b7f50726576696f757320766572696669636174696f6e207374696c6c2070656e6460008201527f696e670000000000000000000000000000000000000000000000000000000000602082015250565b6000613dc36023836130de565b9150613dce82613d67565b604082019050919050565b60006020820190508181036000830152613df281613db6565b9050919050565b7f4e487b7100000000000000000000000000000000000000000000000000000000600052603260045260246000fd5b60008154613e35816134f3565b613e3f818661389a565b94506001821660008114613e5a5760018114613e6f57613ea2565b60ff1983168652811515820286019350613ea2565b613e78856139c5565b60005b83811015613e9a57815481890152600182019150602081019050613e7b565b838801955050505b50505092915050565b6000613eb78284613e28565b915081905092915050565b6000613ecd82612bab565b91507fffffffffffffffffffffffffffffffffffffffffffffffffffffffffffffffff8203613eff57613efe613769565b5b600182019050919050565b600081905092915050565b60008190508160005260206000209050919050565b60008154613f37816134f3565b613f418186613f0a565b94506001821660008114613f5c5760018114613f7157613fa4565b60ff1983168652811515820286019350613fa4565b613f7a85613f15565b60005b83811015613f9c57815481890152600182019150602081019050613f7d565b838801955050505b50505092915050565b6000613fb98284613f2a565b915081905092915050565b7f596f75206861766520616c726561647920636f6d706c6574656420746869732060008201527f6173736573736d656e7400000000000000000000000000000000000000000000602082015250565b6000614020602a836130de565b915061402b82613fc4565b604082019050919050565b6000602082019050818103600083015261404f81614013565b9050919050565b7f5175657374696f6e207365742049442063616e6e6f7420626520656d70747900600082015250565b600061408c601f836130de565b915061409782614056565b602082019050919050565b600060208201905081810360008301526140bb8161407f565b9050919050565b7f436f6e74656e7420686173682063616e6e6f7420626520656d70747900000000600082015250565b60006140f8601c836130de565b9150614103826140c2565b602082019050919050565b60006020820190508181036000830152614127816140eb565b9050919050565b7f5175657374696f6e20636f756e74206d7573742062652067726561746572207460008201527f68616e207a65726f000000000000000000000000000000000000000000000000602082015250565b600061418a6028836130de565b91506141958261412e565b604082019050919050565b600060208201905081810360008301526141b98161417d565b9050919050565b7f4f776e61626c653a206e6577206f776e657220697320746865207a65726f206160008201527f6464726573730000000000000000000000000000000000000000000000000000602082015250565b600061421c6026836130de565b9150614227826141c0565b604082019050919050565b6000602082019050818103600083015261424b8161420f565b9050919050565b7f4e6f2070656e64696e6720766572696669636174696f6e000000000000000000600082015250565b60006142886017836130de565b915061429382614252565b602082019050919050565b600060208201905081810360008301526142b78161427b565b9050919050565b7f4f776e61626c653a2063616c6c6572206973206e6f7420746865206f776e6572600082015250565b60006142f46020836130de565b91506142ff826142be565b602082019050919050565b60006020820190508181036000830152614323816142e7565b9050919050565b60008154614337816134f3565b61434181866130de565b9450600182166000811461435c5760018114614372576143a5565b60ff1983168652811515602002860193506143a5565b61437b856139c5565b60005b8381101561439d5781548189015260018201915060208101905061437e565b808801955050505b50505092915050565b60006080820190506143c360008301876132c1565b81810360208301526143d5818661432a565b90506143e46040830185613128565b6143f16060830184613128565b95945050505050565b60008151905061440981612dc3565b92915050565b60006020828403121561442557614424612a5e565b5b6000614433848285016143fa565b91505092915050565b60006040820190508181036000830152614456818561432a565b90506144656020830184613128565b9392505050565b60006020820190506144816000830184613128565b92915050565b60008151905061449681612d40565b92915050565b6000815190506144ab81612e1c565b92915050565b600080600080608085870312156144cb576144ca612a5e565b5b60006144d987828801614487565b94505060206144ea87828801614487565b93505060406144fb8782880161449c565b925050606061450c878288016143fa565b9150509295919450925056fea2646970667358221220389a785595b80e5727849ed28e3b136e9933a1d92ac86553f0b1d0d45554a51064736f6c63430008130033",
  "linkReferences": {},
  "deployedLinkReferences": {}
}