{
  "_format": "hh-sol-artifact-1",
  "contractName": "QuestionManager",
  "sourceName": "contracts/QuestionManager.sol",
  "abi": [
    {
      "inputs": [
        {
          "internalType": "address",
          "name": "_puzzlePointsAddress",
          "type": "address"
        }
      ],
      "stateMutability": "nonpayable",
      "type": "constructor"
    },
    {
      "anonymous": false,
      "inputs": [
        {
          "indexed": false,
          "internalType": "address",
          "name": "verifierAddress",
          "type": "address"
        }
      ],
      "name": "AnswerVerifierSet",
      "type": "event"
    },
    {
      "anonymous": false,
      "inputs": [
        {
          "indexed": true,
          "internalType": "address",
          "name": "user",
          "type": "address"
        },
        {
          "indexed": false,
          "internalType": "bytes32",
          "name": "answersHash",
          "type": "bytes32"
        },
        {
          "indexed": false,
          "internalType": "uint256",
          "name": "timestamp",
          "type": "uint256"
        }
      ],
      "name": "AnswersSubmitted",
      "type": "event"
    },
    {
      "anonymous": false,
      "inputs": [
        {
          "indexed": true,
          "internalType": "address",
          "name": "user",
          "type": "address"
        },
        {
          "indexed": false,
          "internalType": "bytes32",
          "name": "resultsHash",
          "type": "bytes32"
        },
        {
          "indexed": false,
          "internalType": "uint256",
          "name": "score",
          "type": "uint256"
        },
        {
          "indexed": false,
          "internalType": "uint256",
          "name": "timestamp",
          "type": "uint256"
        }
      ],
      "name": "AssessmentCompleted",
      "type": "event"
    },
    {
      "anonymous": false,
      "inputs": [
        {
          "indexed": true,
          "internalType": "address",
          "name": "user",
          "type": "address"
        },
        {
          "indexed": false,
          "internalType": "string",
          "name": "questionSetId",
          "type": "string"
        },
        {
          "indexed": false,
          "internalType": "uint256",
          "name": "timestamp",
          "type": "uint256"
        }
      ],
      "name": "AssessmentStarted",
      "type": "event"
    },
    {
      "anonymous": false,
      "inputs": [
        {
          "indexed": true,
          "internalType": "address",
          "name": "previousOwner",
          "type": "address"
        },
        {
          "indexed": true,
          "internalType": "address",
          "name": "newOwner",
          "type": "address"
        }
      ],
      "name": "OwnershipTransferred",
      "type": "event"
    },
    {
      "anonymous": false,
      "inputs": [
        {
          "indexed": true,
          "internalType": "string",
          "name": "questionSetId",
          "type": "string"
        },
        {
          "indexed": false,
          "internalType": "bytes32",
          "name": "contentHash",
          "type": "bytes32"
        },
        {
          "indexed": false,
          "internalType": "uint256",
          "name": "questionCount",
          "type": "uint256"
        },
        {
          "indexed": false,
          "internalType": "uint256",
          "name": "timestamp",
          "type": "uint256"
        }
      ],
      "name": "QuestionSetSubmitted",
      "type": "event"
    },
    {
      "anonymous": false,
      "inputs": [
        {
          "indexed": true,
          "internalType": "address",
          "name": "user",
          "type": "address"
        },
        {
          "indexed": false,
          "internalType": "string",
          "name": "questionSetId",
          "type": "string"
        },
        {
          "indexed": false,
          "internalType": "bytes32",
          "name": "requestId",
          "type": "bytes32"
        }
      ],
      "name": "VerificationPending",
      "type": "event"
    },
    {
      "inputs": [],
      "name": "MAX_REWARD_AMOUNT",
      "outputs": [
        {
          "internalType": "uint256",
          "name": "",
          "type": "uint256"
        }
      ],
      "stateMutability": "view",
      "type": "function"
    },
    {
      "inputs": [
        {
          "internalType": "string",
          "name": "setId",
          "type": "string"
        }
      ],
      "name": "activateQuestionSet",
      "outputs": [],
      "stateMutability": "nonpayable",
      "type": "function"
    },
    {
      "inputs": [],
      "name": "answerVerifier",
      "outputs": [
        {
          "internalType": "contract ChainlinkAnswerVerifier",
          "name": "",
          "type": "address"
        }
      ],
      "stateMutability": "view",
      "type": "function"
    },
    {
      "inputs": [],
      "name": "checkPendingVerification",
      "outputs": [],
      "stateMutability": "nonpayable",
      "type": "function"
    },
    {
      "inputs": [
        {
          "internalType": "string",
          "name": "setId",
          "type": "string"
        }
      ],
      "name": "deactivateQuestionSet",
      "outputs": [],
      "stateMutability": "nonpayable",
      "type": "function"
    },
    {
      "inputs": [],
      "name": "getActiveQuestionSets",
      "outputs": [
        {
          "internalType": "string[]",
          "name": "",
          "type": "string[]"
        }
      ],
      "stateMutability": "view",
      "type": "function"
    },
    {
      "inputs": [
        {
          "internalType": "string",
          "name": "questionSetId",
          "type": "string"
        }
      ],
      "name": "getQuestionSetMetadata",
      "outputs": [
        {
          "components": [
            {
              "internalType": "string",
              "name": "setId",
              "type": "string"
            },
            {
              "internalType": "bytes32",
              "name": "contentHash",
              "type": "bytes32"
            },
            {
              "internalType": "uint256",
              "name": "questionCount",
              "type": "uint256"
            },
            {
              "internalType": "uint256",
              "name": "timestamp",
              "type": "uint256"
            },
            {
              "internalType": "bool",
              "name": "active",
              "type": "bool"
            }
          ],
          "internalType": "struct QuestionManager.QuestionSetMetadata",
          "name": "",
          "type": "tuple"
        }
      ],
      "stateMutability": "view",
      "type": "function"
    },
    {
      "inputs": [],
      "name": "getQuestionSets",
      "outputs": [
        {
          "internalType": "string[]",
          "name": "",
          "type": "string[]"
        }
      ],
      "stateMutability": "view",
      "type": "function"
    },
    {
      "inputs": [
        {
          "internalType": "address",
          "name": "user",
          "type": "address"
        }
      ],
      "name": "getUserAssessment",
      "outputs": [
        {
          "components": [
            {
              "internalType": "address",
              "name": "user",
              "type": "address"
            },
            {
              "internalType": "string",
              "name": "questionSetId",
              "type": "string"
            },
            {
              "internalType": "bytes32",
              "name": "answersHash",
              "type": "bytes32"
            },
            {
              "internalType": "bytes32",
              "name": "resultsHash",
              "type": "bytes32"
            },
            {
              "internalType": "uint256",
              "name": "score",
              "type": "uint256"
            },
            {
              "internalType": "uint256",
              "name": "startTimestamp",
              "type": "uint256"
            },
            {
              "internalType": "uint256",
              "name": "completionTimestamp",
              "type": "uint256"
            },
            {
              "internalType": "bool",
              "name": "completed",
              "type": "bool"
            },
            {
              "internalType": "bytes32",
              "name": "pendingVerificationId",
              "type": "bytes32"
            }
          ],
          "internalType": "struct QuestionManager.UserAssessment",
          "name": "",
          "type": "tuple"
        }
      ],
      "stateMutability": "view",
      "type": "function"
    },
    {
      "inputs": [
        {
          "internalType": "address",
          "name": "user",
          "type": "address"
        }
      ],
      "name": "getUserAssessmentStatus",
      "outputs": [
        {
          "internalType": "bool",
          "name": "hasAssessment",
          "type": "bool"
        },
        {
          "internalType": "string",
          "name": "questionSetId",
          "type": "string"
        },
        {
          "internalType": "bool",
          "name": "completed",
          "type": "bool"
        }
      ],
      "stateMutability": "view",
      "type": "function"
    },
    {
      "inputs": [],
      "name": "owner",
      "outputs": [
        {
          "internalType": "address",
          "name": "",
          "type": "address"
        }
      ],
      "stateMutability": "view",
      "type": "function"
    },
    {
      "inputs": [],
      "name": "passingScoreThreshold",
      "outputs": [
        {
          "internalType": "uint256",
          "name": "",
          "type": "uint256"
        }
      ],
      "stateMutability": "view",
      "type": "function"
    },
    {
      "inputs": [],
      "name": "puzzlePoints",
      "outputs": [
        {
          "internalType": "contract PuzzlePoints",
          "name": "",
          "type": "address"
        }
      ],
      "stateMutability": "view",
      "type": "function"
    },
    {
      "inputs": [
        {
          "internalType": "uint256",
          "name": "",
          "type": "uint256"
        }
      ],
      "name": "questionSetIds",
      "outputs": [
        {
          "internalType": "string",
          "name": "",
          "type": "string"
        }
      ],
      "stateMutability": "view",
      "type": "function"
    },
    {
      "inputs": [
        {
          "internalType": "string",
          "name": "",
          "type": "string"
        }
      ],
      "name": "questionSets",
      "outputs": [
        {
          "internalType": "string",
          "name": "setId",
          "type": "string"
        },
        {
          "internalType": "bytes32",
          "name": "contentHash",
          "type": "bytes32"
        },
        {
          "internalType": "uint256",
          "name": "questionCount",
          "type": "uint256"
        },
        {
          "internalType": "uint256",
          "name": "timestamp",
          "type": "uint256"
        },
        {
          "internalType": "bool",
          "name": "active",
          "type": "bool"
        }
      ],
      "stateMutability": "view",
      "type": "function"
    },
    {
      "inputs": [],
      "name": "renounceOwnership",
      "outputs": [],
      "stateMutability": "nonpayable",
      "type": "function"
    },
    {
      "inputs": [],
      "name": "restartAssessment",
      "outputs": [],
      "stateMutability": "nonpayable",
      "type": "function"
    },
    {
      "inputs": [
        {
          "internalType": "address",
          "name": "verifierAddress",
          "type": "address"
        }
      ],
      "name": "setAnswerVerifier",
      "outputs": [],
      "stateMutability": "nonpayable",
      "type": "function"
    },
    {
      "inputs": [
        {
          "internalType": "uint256",
          "name": "threshold",
          "type": "uint256"
        }
      ],
      "name": "setPassingScoreThreshold",
      "outputs": [],
      "stateMutability": "nonpayable",
      "type": "function"
    },
    {
      "inputs": [
        {
          "internalType": "address",
          "name": "puzzlePointsAddr",
          "type": "address"
        }
      ],
      "name": "setPuzzlePoints",
      "outputs": [],
      "stateMutability": "nonpayable",
      "type": "function"
    },
    {
      "inputs": [
        {
          "internalType": "bool",
          "name": "enabled",
          "type": "bool"
        }
      ],
      "name": "setUseChainlinkFunctions",
      "outputs": [],
      "stateMutability": "nonpayable",
      "type": "function"
    },
    {
      "inputs": [
        {
          "internalType": "string",
          "name": "questionSetId",
          "type": "string"
        }
      ],
      "name": "startAssessment",
      "outputs": [],
      "stateMutability": "nonpayable",
      "type": "function"
    },
    {
      "inputs": [
        {
          "internalType": "bytes32",
          "name": "answersHash",
          "type": "bytes32"
        }
      ],
      "name": "submitAnswers",
      "outputs": [],
      "stateMutability": "nonpayable",
      "type": "function"
    },
    {
      "inputs": [
        {
          "internalType": "string",
          "name": "questionSetId",
          "type": "string"
        },
        {
          "internalType": "bytes32",
          "name": "answersHash",
          "type": "bytes32"
        }
      ],
      "name": "submitAssessmentAnswers",
      "outputs": [],
      "stateMutability": "nonpayable",
      "type": "function"
    },
    {
      "inputs": [
        {
          "internalType": "address",
          "name": "user",
          "type": "address"
        },
        {
          "internalType": "bytes32",
          "name": "resultsHash",
          "type": "bytes32"
        },
        {
          "internalType": "uint256",
          "name": "score",
          "type": "uint256"
        }
      ],
      "name": "submitEvaluationResults",
      "outputs": [],
      "stateMutability": "nonpayable",
      "type": "function"
    },
    {
      "inputs": [
        {
          "internalType": "string",
          "name": "setId",
          "type": "string"
        },
        {
          "internalType": "bytes32",
          "name": "contentHash",
          "type": "bytes32"
        },
        {
          "internalType": "uint256",
          "name": "questionCount",
          "type": "uint256"
        }
      ],
      "name": "submitQuestionSetHash",
      "outputs": [],
      "stateMutability": "nonpayable",
      "type": "function"
    },
    {
      "inputs": [
        {
          "internalType": "address",
          "name": "newOwner",
          "type": "address"
        }
      ],
      "name": "transferOwnership",
      "outputs": [],
      "stateMutability": "nonpayable",
      "type": "function"
    },
    {
      "inputs": [],
      "name": "triggerVerification",
      "outputs": [],
      "stateMutability": "nonpayable",
      "type": "function"
    },
    {
      "inputs": [],
      "name": "useChainlinkFunctions",
      "outputs": [
        {
          "internalType": "bool",
          "name": "",
          "type": "bool"
        }
      ],
      "stateMutability": "view",
      "type": "function"
    },
    {
      "inputs": [
        {
          "internalType": "address",
          "name": "",
          "type": "address"
        }
      ],
      "name": "userAssessments",
      "outputs": [
        {
          "internalType": "address",
          "name": "user",
          "type": "address"
        },
        {
          "internalType": "string",
          "name": "questionSetId",
          "type": "string"
        },
        {
          "internalType": "bytes32",
          "name": "answersHash",
          "type": "bytes32"
        },
        {
          "internalType": "bytes32",
          "name": "resultsHash",
          "type": "bytes32"
        },
        {
          "internalType": "uint256",
          "name": "score",
          "type": "uint256"
        },
        {
          "internalType": "uint256",
          "name": "startTimestamp",
          "type": "uint256"
        },
        {
          "internalType": "uint256",
          "name": "completionTimestamp",
          "type": "uint256"
        },
        {
          "internalType": "bool",
          "name": "completed",
          "type": "bool"
        },
        {
          "internalType": "bytes32",
          "name": "pendingVerificationId",
          "type": "bytes32"
        }
      ],
      "stateMutability": "view",
      "type": "function"
    }
  ],
  "bytecode": "0x608060405260466001556001600360146101000a81548160ff0219169083151502179055503480156200003157600080fd5b5060405162004e7c38038062004e7c83398181016040528101906200005791906200023c565b620000776200006b6200010660201b60201c565b6200010e60201b60201c565b600073ffffffffffffffffffffffffffffffffffffffff168173ffffffffffffffffffffffffffffffffffffffff1614620000ee5780600260006101000a81548173ffffffffffffffffffffffffffffffffffffffff021916908373ffffffffffffffffffffffffffffffffffffffff1602179055505b620000ff336200010e60201b60201c565b506200026e565b600033905090565b60008060009054906101000a900473ffffffffffffffffffffffffffffffffffffffff169050816000806101000a81548173ffffffffffffffffffffffffffffffffffffffff021916908373ffffffffffffffffffffffffffffffffffffffff1602179055508173ffffffffffffffffffffffffffffffffffffffff168173ffffffffffffffffffffffffffffffffffffffff167f8be0079c531659141344cd1fd0a4f28419497f9722a3daafe3b4186f6b6457e060405160405180910390a35050565b600080fd5b600073ffffffffffffffffffffffffffffffffffffffff82169050919050565b60006200020482620001d7565b9050919050565b6200021681620001f7565b81146200022257600080fd5b50565b60008151905062000236816200020b565b92915050565b600060208284031215620002555762000254620001d2565b5b6000620002658482850162000225565b91505092915050565b614bfe806200027e6000396000f3fe608060405234801561001057600080fd5b50600436106101da5760003560e01c80637a8b054511610104578063a069dc40116100a2578063e2562b1411610071578063e2562b1414610515578063f2fde38b14610531578063fda3d08c1461054d578063ff8f270a14610557576101da565b8063a069dc4014610471578063ae9c63b31461048d578063ce2ca64a146104bf578063de596dba146104dd576101da565b80638b329195116100de5780638b329195146103fd5780638da5cb5b1461041957806398182dad14610437578063a04f6b4b14610453576101da565b80637a8b0545146103b75780638062cf52146103d557806387dffbb8146103df576101da565b80633d85a4921161017c5780635d00d4261161014b5780635d00d4261461033f5780636914a6ec14610349578063715018a61461037d5780637156e03e14610387576101da565b80633d85a492146102bb5780633ee6b544146102d757806342885ea3146102f357806356ad48b214610323576101da565b8063276e0c1d116101b8578063276e0c1d146102495780632c39e7f7146102675780632f36dc30146102835780633becf8481461029f576101da565b80630a859af2146101df5780630f447db61461020f57806315d85f0a1461022d575b600080fd5b6101f960048036038101906101f49190612d2b565b610575565b6040516102069190612f09565b60405180910390f35b61021761070e565b6040516102249190612f8a565b60405180910390f35b61024760048036038101906102429190612fd1565b610734565b005b6102516107f4565b60405161025e919061300d565b60405180910390f35b610281600480360381019061027c9190612d2b565b6107fa565b005b61029d60048036038101906102989190613054565b610898565b005b6102b960048036038101906102b491906130ad565b610a9c565b005b6102d560048036038101906102d09190613235565b610d80565b005b6102f160048036038101906102ec919061327e565b610fa8565b005b61030d60048036038101906103089190613235565b610ffe565b60405161031a9190613321565b60405180910390f35b61033d60048036038101906103389190613235565b611101565b005b6103476111b6565b005b610363600480360381019061035e9190613235565b611275565b6040516103749594939291906133ab565b60405180910390f35b610385611356565b005b6103a1600480360381019061039c919061327e565b61136a565b6040516103ae9190613405565b60405180910390f35b6103bf611416565b6040516103cc9190613427565b60405180910390f35b6103dd611429565b005b6103e7611671565b6040516103f49190613504565b60405180910390f35b61041760048036038101906104129190613235565b61189d565b005b610421611952565b60405161042e9190613535565b60405180910390f35b610451600480360381019061044c9190613550565b61197b565b005b61045b611fad565b604051610468919061300d565b60405180910390f35b61048b600480360381019061048691906135ac565b611fb9565b005b6104a760048036038101906104a29190612d2b565b6121c1565b6040516104b69392919061361b565b60405180910390f35b6104c76122ca565b6040516104d49190613504565b60405180910390f35b6104f760048036038101906104f29190612d2b565b6123a3565b60405161050c99989796959493929190613659565b60405180910390f35b61052f600480360381019061052a9190612d2b565b6124a6565b005b61054b60048036038101906105469190612d2b565b6124f2565b005b610555612575565b005b61055f61260d565b60405161056c919061370e565b60405180910390f35b61057d612bbb565b600660008373ffffffffffffffffffffffffffffffffffffffff1673ffffffffffffffffffffffffffffffffffffffff168152602001908152602001600020604051806101200160405290816000820160009054906101000a900473ffffffffffffffffffffffffffffffffffffffff1673ffffffffffffffffffffffffffffffffffffffff1673ffffffffffffffffffffffffffffffffffffffff16815260200160018201805461062e90613758565b80601f016020809104026020016040519081016040528092919081815260200182805461065a90613758565b80156106a75780601f1061067c576101008083540402835291602001916106a7565b820191906000526020600020905b81548152906001019060200180831161068a57829003601f168201915b5050505050815260200160028201548152602001600382015481526020016004820154815260200160058201548152602001600682015481526020016007820160009054906101000a900460ff161515151581526020016008820154815250509050919050565b600260009054906101000a900473ffffffffffffffffffffffffffffffffffffffff1681565b61073c612633565b600073ffffffffffffffffffffffffffffffffffffffff16600360009054906101000a900473ffffffffffffffffffffffffffffffffffffffff1673ffffffffffffffffffffffffffffffffffffffff16141580610798575080155b6107d7576040517f08c379a00000000000000000000000000000000000000000000000000000000081526004016107ce906137d5565b60405180910390fd5b80600360146101000a81548160ff02191690831515021790555050565b60015481565b610802612633565b80600360006101000a81548173ffffffffffffffffffffffffffffffffffffffff021916908373ffffffffffffffffffffffffffffffffffffffff1602179055506001600360146101000a81548160ff0219169083151502179055507f25f8a4231562132928c8f2339f42d40b6ae437ec645d8e3e8677710a30704fda8160405161088d9190613535565b60405180910390a150565b6000600660003373ffffffffffffffffffffffffffffffffffffffff1673ffffffffffffffffffffffffffffffffffffffff168152602001908152602001600020905060008160010180546108ec90613758565b90501161092e576040517f08c379a000000000000000000000000000000000000000000000000000000000815260040161092590613841565b60405180910390fd5b8060070160009054906101000a900460ff1615610980576040517f08c379a0000000000000000000000000000000000000000000000000000000008152600401610977906138ad565b60405180910390fd5b6000801b82036109c5576040517f08c379a00000000000000000000000000000000000000000000000000000000081526004016109bc90613919565b60405180910390fd5b8181600201819055503373ffffffffffffffffffffffffffffffffffffffff167fd963f150110bd30c85d76feee9fa985e297f8e699fc1e1b80e11e1f8577cb47c8342604051610a16929190613939565b60405180910390a2600360149054906101000a900460ff168015610a895750600073ffffffffffffffffffffffffffffffffffffffff16600360009054906101000a900473ffffffffffffffffffffffffffffffffffffffff1673ffffffffffffffffffffffffffffffffffffffff1614155b15610a9857610a97816126b1565b5b5050565b610aa4612633565b6000600660008573ffffffffffffffffffffffffffffffffffffffff1673ffffffffffffffffffffffffffffffffffffffff16815260200190815260200160002090506000816001018054610af890613758565b905011610b3a576040517f08c379a0000000000000000000000000000000000000000000000000000000008152600401610b3190613841565b60405180910390fd5b6000801b816002015403610b83576040517f08c379a0000000000000000000000000000000000000000000000000000000008152600401610b7a906139ae565b60405180910390fd5b8060070160009054906101000a900460ff1615610bd5576040517f08c379a0000000000000000000000000000000000000000000000000000000008152600401610bcc906138ad565b60405180910390fd5b82816003018190555081816004018190555042816006018190555060018160070160006101000a81548160ff0219169083151502179055506001548210158015610c6e5750600073ffffffffffffffffffffffffffffffffffffffff16600260009054906101000a900473ffffffffffffffffffffffffffffffffffffffff1673ffffffffffffffffffffffffffffffffffffffff1614155b15610d285760006064670de0b6b3a764000084610c8b91906139fd565b610c959190613a6e565b9050600260009054906101000a900473ffffffffffffffffffffffffffffffffffffffff1673ffffffffffffffffffffffffffffffffffffffff166340c10f1986836040518363ffffffff1660e01b8152600401610cf4929190613a9f565b600060405180830381600087803b158015610d0e57600080fd5b505af1158015610d22573d6000803e3d6000fd5b50505050505b8373ffffffffffffffffffffffffffffffffffffffff167fee124b935fb88e2cece5ffba3ba998364a0bfed62434c027226ebefde125c7d5848442604051610d7293929190613ac8565b60405180910390a250505050565b6000600482604051610d929190613b3b565b90815260200160405180910390206000018054610dae90613758565b905011610df0576040517f08c379a0000000000000000000000000000000000000000000000000000000008152600401610de790613b9e565b60405180910390fd5b600481604051610e009190613b3b565b908152602001604051809103902060040160009054906101000a900460ff16610e5e576040517f08c379a0000000000000000000000000000000000000000000000000000000008152600401610e5590613c0a565b60405180910390fd5b6000600660003373ffffffffffffffffffffffffffffffffffffffff1673ffffffffffffffffffffffffffffffffffffffff1681526020019081526020016000209050338160000160006101000a81548173ffffffffffffffffffffffffffffffffffffffff021916908373ffffffffffffffffffffffffffffffffffffffff16021790555081816001019081610ef59190613dcc565b504281600501819055506000801b81600201819055506000801b8160030181905550600081600401819055506000816006018190555060008160070160006101000a81548160ff0219169083151502179055506000801b81600801819055503373ffffffffffffffffffffffffffffffffffffffff167f911739041ede0438af029a3293231b82c7f6d91ecbb8632c13846b1b2d6a9daf8342604051610f9c929190613e9e565b60405180910390a25050565b610fb0612633565b6064811115610ff4576040517f08c379a0000000000000000000000000000000000000000000000000000000008152600401610feb90613f40565b60405180910390fd5b8060018190555050565b611006612c28565b6004826040516110169190613b3b565b90815260200160405180910390206040518060a001604052908160008201805461103f90613758565b80601f016020809104026020016040519081016040528092919081815260200182805461106b90613758565b80156110b85780601f1061108d576101008083540402835291602001916110b8565b820191906000526020600020905b81548152906001019060200180831161109b57829003601f168201915b505050505081526020016001820154815260200160028201548152602001600382015481526020016004820160009054906101000a900460ff1615151515815250509050919050565b611109612633565b600060048260405161111b9190613b3b565b9081526020016040518091039020600001805461113790613758565b905011611179576040517f08c379a000000000000000000000000000000000000000000000000000000000815260040161117090613b9e565b60405180910390fd5b600160048260405161118b9190613b3b565b908152602001604051809103902060040160006101000a81548160ff02191690831515021790555050565b600660003373ffffffffffffffffffffffffffffffffffffffff1673ffffffffffffffffffffffffffffffffffffffff168152602001908152602001600020600080820160006101000a81549073ffffffffffffffffffffffffffffffffffffffff021916905560018201600061122d9190612c5c565b600282016000905560038201600090556004820160009055600582016000905560068201600090556007820160006101000a81549060ff021916905560088201600090555050565b6004818051602081018201805184825260208301602085012081835280955050505050506000915090508060000180546112ae90613758565b80601f01602080910402602001604051908101604052809291908181526020018280546112da90613758565b80156113275780601f106112fc57610100808354040283529160200191611327565b820191906000526020600020905b81548152906001019060200180831161130a57829003601f168201915b5050505050908060010154908060020154908060030154908060040160009054906101000a900460ff16905085565b61135e612633565b6113686000612832565b565b6005818154811061137a57600080fd5b90600052602060002001600091509050805461139590613758565b80601f01602080910402602001604051908101604052809291908181526020018280546113c190613758565b801561140e5780601f106113e35761010080835404028352916020019161140e565b820191906000526020600020905b8154815290600101906020018083116113f157829003601f168201915b505050505081565b600360149054906101000a900460ff1681565b6000600660003373ffffffffffffffffffffffffffffffffffffffff1673ffffffffffffffffffffffffffffffffffffffff1681526020019081526020016000209050600081600101805461147d90613758565b9050116114bf576040517f08c379a00000000000000000000000000000000000000000000000000000000081526004016114b690613841565b60405180910390fd5b8060070160009054906101000a900460ff1615611511576040517f08c379a0000000000000000000000000000000000000000000000000000000008152600401611508906138ad565b60405180910390fd5b6000801b81600201540361155a576040517f08c379a0000000000000000000000000000000000000000000000000000000008152600401611551906139ae565b60405180910390fd5b600360149054906101000a900460ff1680156115c55750600073ffffffffffffffffffffffffffffffffffffffff16600360009054906101000a900473ffffffffffffffffffffffffffffffffffffffff1673ffffffffffffffffffffffffffffffffffffffff1614155b611604576040517f08c379a00000000000000000000000000000000000000000000000000000000081526004016115fb90613fac565b60405180910390fd5b6000801b8160080154146116655761161b816128f6565b6000801b816008015414611664576040517f08c379a000000000000000000000000000000000000000000000000000000000815260040161165b9061403e565b60405180910390fd5b5b61166e816126b1565b50565b60606000805b6005805490508110156116f75760046005828154811061169a5761169961405e565b5b906000526020600020016040516116b19190614110565b908152602001604051809103902060040160009054906101000a900460ff16156116e45781806116e090614127565b9250505b80806116ef90614127565b915050611677565b5060008167ffffffffffffffff8111156117145761171361310a565b5b60405190808252806020026020018201604052801561174757816020015b60608152602001906001900390816117325790505b5090506000805b600580549050811015611893576004600582815481106117715761177061405e565b5b906000526020600020016040516117889190614110565b908152602001604051809103902060040160009054906101000a900460ff161561188057600581815481106117c0576117bf61405e565b5b9060005260206000200180546117d590613758565b80601f016020809104026020016040519081016040528092919081815260200182805461180190613758565b801561184e5780601f106118235761010080835404028352916020019161184e565b820191906000526020600020905b81548152906001019060200180831161183157829003601f168201915b50505050508383815181106118665761186561405e565b5b6020026020010181905250818061187c90614127565b9250505b808061188b90614127565b91505061174e565b5081935050505090565b6118a5612633565b60006004826040516118b79190613b3b565b908152602001604051809103902060000180546118d390613758565b905011611915576040517f08c379a000000000000000000000000000000000000000000000000000000000815260040161190c90613b9e565b60405180910390fd5b60006004826040516119279190613b3b565b908152602001604051809103902060040160006101000a81548160ff02191690831515021790555050565b60008060009054906101000a900473ffffffffffffffffffffffffffffffffffffffff16905090565b600060048360405161198d9190613b3b565b908152602001604051809103902060000180546119a990613758565b9050116119eb576040517f08c379a00000000000000000000000000000000000000000000000000000000081526004016119e2906141e1565b60405180910390fd5b6004826040516119fb9190613b3b565b908152602001604051809103902060040160009054906101000a900460ff16611a59576040517f08c379a0000000000000000000000000000000000000000000000000000000008152600401611a5090614299565b60405180910390fd5b6000801b8103611a9e576040517f08c379a0000000000000000000000000000000000000000000000000000000008152600401611a959061432b565b60405180910390fd5b6000600660003373ffffffffffffffffffffffffffffffffffffffff1673ffffffffffffffffffffffffffffffffffffffff16815260200190815260200160002090506000816001018054611af290613758565b9050118015611b1f5750828051906020012081600101604051611b1591906143ee565b6040518091039020145b8015611b3957508060070160009054906101000a900460ff165b15611b79576040517f08c379a0000000000000000000000000000000000000000000000000000000008152600401611b709061449d565b60405180910390fd5b600360149054906101000a900460ff1615611dde57600073ffffffffffffffffffffffffffffffffffffffff16600360009054906101000a900473ffffffffffffffffffffffffffffffffffffffff1673ffffffffffffffffffffffffffffffffffffffff1603611c1f576040517f08c379a0000000000000000000000000000000000000000000000000000000008152600401611c169061452f565b60405180910390fd5b6000600360009054906101000a900473ffffffffffffffffffffffffffffffffffffffff1673ffffffffffffffffffffffffffffffffffffffff166309c1ba2e6040518163ffffffff1660e01b8152600401602060405180830381865afa158015611c8e573d6000803e3d6000fd5b505050506040513d601f19601f82011682018060405250810190611cb2919061458f565b905060008167ffffffffffffffff1603611d01576040517f08c379a0000000000000000000000000000000000000000000000000000000008152600401611cf890614654565b60405180910390fd5b6000600360009054906101000a900473ffffffffffffffffffffffffffffffffffffffff1673ffffffffffffffffffffffffffffffffffffffff16636e74336b6040518163ffffffff1660e01b8152600401602060405180830381865afa158015611d70573d6000803e3d6000fd5b505050506040513d601f19601f82011682018060405250810190611d949190614689565b90506000801b8103611ddb576040517f08c379a0000000000000000000000000000000000000000000000000000000008152600401611dd290614728565b60405180910390fd5b50505b338160000160006101000a81548173ffffffffffffffffffffffffffffffffffffffff021916908373ffffffffffffffffffffffffffffffffffffffff16021790555082816001019081611e329190613dcc565b504281600501819055508181600201819055506000801b8160030181905550600081600401819055506000816006018190555060008160070160006101000a81548160ff0219169083151502179055506000801b81600801819055503373ffffffffffffffffffffffffffffffffffffffff167f911739041ede0438af029a3293231b82c7f6d91ecbb8632c13846b1b2d6a9daf8442604051611ed6929190613e9e565b60405180910390a23373ffffffffffffffffffffffffffffffffffffffff167fd963f150110bd30c85d76feee9fa985e297f8e699fc1e1b80e11e1f8577cb47c8342604051611f26929190613939565b60405180910390a2600360149054906101000a900460ff168015611f995750600073ffffffffffffffffffffffffffffffffffffffff16600360009054906101000a900473ffffffffffffffffffffffffffffffffffffffff1673ffffffffffffffffffffffffffffffffffffffff1614155b15611fa857611fa7816126b1565b5b505050565b670de0b6b3a764000081565b611fc1612633565b6000835111612005576040517f08c379a0000000000000000000000000000000000000000000000000000000008152600401611ffc90614794565b60405180910390fd5b6000801b820361204a576040517f08c379a000000000000000000000000000000000000000000000000000000000815260040161204190614800565b60405180910390fd5b6000811161208d576040517f08c379a000000000000000000000000000000000000000000000000000000000815260040161208490614892565b60405180910390fd5b6000806004856040516120a09190613b3b565b908152602001604051809103902060000180546120bc90613758565b905014905060006004856040516120d39190613b3b565b90815260200160405180910390209050848160000190816120f49190613dcc565b5083816001018190555082816002018190555042816003018190555060018160040160006101000a81548160ff0219169083151502179055508115612169576005859080600181540180825580915050600190039060005260206000200160009091909190915090816121679190613dcc565b505b846040516121779190613b3b565b60405180910390207f281fb0247c7507ae47c4bb0224de4e85084c1c6a9d5ba89d595a426902161fa58585426040516121b293929190613ac8565b60405180910390a25050505050565b60006060600080600660008673ffffffffffffffffffffffffffffffffffffffff1673ffffffffffffffffffffffffffffffffffffffff1681526020019081526020016000209050600081600101805461221a90613758565b905011935080600101805461222e90613758565b80601f016020809104026020016040519081016040528092919081815260200182805461225a90613758565b80156122a75780601f1061227c576101008083540402835291602001916122a7565b820191906000526020600020905b81548152906001019060200180831161228a57829003601f168201915b505050505092508060070160009054906101000a900460ff169150509193909250565b60606005805480602002602001604051908101604052809291908181526020016000905b8282101561239a57838290600052602060002001805461230d90613758565b80601f016020809104026020016040519081016040528092919081815260200182805461233990613758565b80156123865780601f1061235b57610100808354040283529160200191612386565b820191906000526020600020905b81548152906001019060200180831161236957829003601f168201915b5050505050815260200190600101906122ee565b50505050905090565b60066020528060005260406000206000915090508060000160009054906101000a900473ffffffffffffffffffffffffffffffffffffffff16908060010180546123ec90613758565b80601f016020809104026020016040519081016040528092919081815260200182805461241890613758565b80156124655780601f1061243a57610100808354040283529160200191612465565b820191906000526020600020905b81548152906001019060200180831161244857829003601f168201915b5050505050908060020154908060030154908060040154908060050154908060060154908060070160009054906101000a900460ff16908060080154905089565b6124ae612633565b80600260006101000a81548173ffffffffffffffffffffffffffffffffffffffff021916908373ffffffffffffffffffffffffffffffffffffffff16021790555050565b6124fa612633565b600073ffffffffffffffffffffffffffffffffffffffff168173ffffffffffffffffffffffffffffffffffffffff1603612569576040517f08c379a000000000000000000000000000000000000000000000000000000000815260040161256090614924565b60405180910390fd5b61257281612832565b50565b6000600660003373ffffffffffffffffffffffffffffffffffffffff1673ffffffffffffffffffffffffffffffffffffffff16815260200190815260200160002090506000801b816008015403612601576040517f08c379a00000000000000000000000000000000000000000000000000000000081526004016125f890614990565b60405180910390fd5b61260a816128f6565b50565b600360009054906101000a900473ffffffffffffffffffffffffffffffffffffffff1681565b61263b612bb3565b73ffffffffffffffffffffffffffffffffffffffff16612659611952565b73ffffffffffffffffffffffffffffffffffffffff16146126af576040517f08c379a00000000000000000000000000000000000000000000000000000000081526004016126a6906149fc565b60405180910390fd5b565b60006004826001016040516126c69190614110565b90815260200160405180910390206001015490506000600360009054906101000a900473ffffffffffffffffffffffffffffffffffffffff1673ffffffffffffffffffffffffffffffffffffffff1663428199378460000160009054906101000a900473ffffffffffffffffffffffffffffffffffffffff16856001018660020154866040518563ffffffff1660e01b81526004016127689493929190614aa0565b6020604051808303816000875af1158015612787573d6000803e3d6000fd5b505050506040513d601f19601f820116820180604052508101906127ab9190614689565b90508083600801819055508260000160009054906101000a900473ffffffffffffffffffffffffffffffffffffffff1673ffffffffffffffffffffffffffffffffffffffff167fe15c9a8d8a7137796a9917b85b2ba66feaad317998334d659a9c01f11f25090e8460010183604051612825929190614aec565b60405180910390a2505050565b60008060009054906101000a900473ffffffffffffffffffffffffffffffffffffffff169050816000806101000a81548173ffffffffffffffffffffffffffffffffffffffff021916908373ffffffffffffffffffffffffffffffffffffffff1602179055508173ffffffffffffffffffffffffffffffffffffffff168173ffffffffffffffffffffffffffffffffffffffff167f8be0079c531659141344cd1fd0a4f28419497f9722a3daafe3b4186f6b6457e060405160405180910390a35050565b600080600080600360009054906101000a900473ffffffffffffffffffffffffffffffffffffffff1673ffffffffffffffffffffffffffffffffffffffff16637a21baa086600801546040518263ffffffff1660e01b815260040161295b9190614b1c565b608060405180830381865afa158015612978573d6000803e3d6000fd5b505050506040513d601f19601f8201168201806040525081019061299c9190614b61565b9350935093509350836129b25750505050612bb0565b6000801b856008018190555080856003018190555081856004018190555042856006018190555060018560070160006101000a81548160ff0219169083151502179055506001548210158015612a575750600073ffffffffffffffffffffffffffffffffffffffff16600260009054906101000a900473ffffffffffffffffffffffffffffffffffffffff1673ffffffffffffffffffffffffffffffffffffffff1614155b15612b355760006064670de0b6b3a764000084612a7491906139fd565b612a7e9190613a6e565b9050600260009054906101000a900473ffffffffffffffffffffffffffffffffffffffff1673ffffffffffffffffffffffffffffffffffffffff166340c10f198760000160009054906101000a900473ffffffffffffffffffffffffffffffffffffffff16836040518363ffffffff1660e01b8152600401612b01929190613a9f565b600060405180830381600087803b158015612b1b57600080fd5b505af1158015612b2f573d6000803e3d6000fd5b50505050505b8460000160009054906101000a900473ffffffffffffffffffffffffffffffffffffffff1673ffffffffffffffffffffffffffffffffffffffff167fee124b935fb88e2cece5ffba3ba998364a0bfed62434c027226ebefde125c7d5828442604051612ba393929190613ac8565b60405180910390a2505050505b50565b600033905090565b604051806101200160405280600073ffffffffffffffffffffffffffffffffffffffff168152602001606081526020016000801916815260200160008019168152602001600081526020016000815260200160008152602001600015158152602001600080191681525090565b6040518060a00160405280606081526020016000801916815260200160008152602001600081526020016000151581525090565b508054612c6890613758565b6000825580601f10612c7a5750612c99565b601f016020900490600052602060002090810190612c989190612c9c565b5b50565b5b80821115612cb5576000816000905550600101612c9d565b5090565b6000604051905090565b600080fd5b600080fd5b600073ffffffffffffffffffffffffffffffffffffffff82169050919050565b6000612cf882612ccd565b9050919050565b612d0881612ced565b8114612d1357600080fd5b50565b600081359050612d2581612cff565b92915050565b600060208284031215612d4157612d40612cc3565b5b6000612d4f84828501612d16565b91505092915050565b612d6181612ced565b82525050565b600081519050919050565b600082825260208201905092915050565b60005b83811015612da1578082015181840152602081019050612d86565b60008484015250505050565b6000601f19601f8301169050919050565b6000612dc982612d67565b612dd38185612d72565b9350612de3818560208601612d83565b612dec81612dad565b840191505092915050565b6000819050919050565b612e0a81612df7565b82525050565b6000819050919050565b612e2381612e10565b82525050565b60008115159050919050565b612e3e81612e29565b82525050565b600061012083016000830151612e5d6000860182612d58565b5060208301518482036020860152612e758282612dbe565b9150506040830151612e8a6040860182612e01565b506060830151612e9d6060860182612e01565b506080830151612eb06080860182612e1a565b5060a0830151612ec360a0860182612e1a565b5060c0830151612ed660c0860182612e1a565b5060e0830151612ee960e0860182612e35565b50610100830151612efe610100860182612e01565b508091505092915050565b60006020820190508181036000830152612f238184612e44565b905092915050565b6000819050919050565b6000612f50612f4b612f4684612ccd565b612f2b565b612ccd565b9050919050565b6000612f6282612f35565b9050919050565b6000612f7482612f57565b9050919050565b612f8481612f69565b82525050565b6000602082019050612f9f6000830184612f7b565b92915050565b612fae81612e29565b8114612fb957600080fd5b50565b600081359050612fcb81612fa5565b92915050565b600060208284031215612fe757612fe6612cc3565b5b6000612ff584828501612fbc565b91505092915050565b61300781612e10565b82525050565b60006020820190506130226000830184612ffe565b92915050565b61303181612df7565b811461303c57600080fd5b50565b60008135905061304e81613028565b92915050565b60006020828403121561306a57613069612cc3565b5b60006130788482850161303f565b91505092915050565b61308a81612e10565b811461309557600080fd5b50565b6000813590506130a781613081565b92915050565b6000806000606084860312156130c6576130c5612cc3565b5b60006130d486828701612d16565b93505060206130e58682870161303f565b92505060406130f686828701613098565b9150509250925092565b600080fd5b600080fd5b7f4e487b7100000000000000000000000000000000000000000000000000000000600052604160045260246000fd5b61314282612dad565b810181811067ffffffffffffffff821117156131615761316061310a565b5b80604052505050565b6000613174612cb9565b90506131808282613139565b919050565b600067ffffffffffffffff8211156131a05761319f61310a565b5b6131a982612dad565b9050602081019050919050565b82818337600083830152505050565b60006131d86131d384613185565b61316a565b9050828152602081018484840111156131f4576131f3613105565b5b6131ff8482856131b6565b509392505050565b600082601f83011261321c5761321b613100565b5b813561322c8482602086016131c5565b91505092915050565b60006020828403121561324b5761324a612cc3565b5b600082013567ffffffffffffffff81111561326957613268612cc8565b5b61327584828501613207565b91505092915050565b60006020828403121561329457613293612cc3565b5b60006132a284828501613098565b91505092915050565b600060a08301600083015184820360008601526132c88282612dbe565b91505060208301516132dd6020860182612e01565b5060408301516132f06040860182612e1a565b5060608301516133036060860182612e1a565b5060808301516133166080860182612e35565b508091505092915050565b6000602082019050818103600083015261333b81846132ab565b905092915050565b600082825260208201905092915050565b600061335f82612d67565b6133698185613343565b9350613379818560208601612d83565b61338281612dad565b840191505092915050565b61339681612df7565b82525050565b6133a581612e29565b82525050565b600060a08201905081810360008301526133c58188613354565b90506133d4602083018761338d565b6133e16040830186612ffe565b6133ee6060830185612ffe565b6133fb608083018461339c565b9695505050505050565b6000602082019050818103600083015261341f8184613354565b905092915050565b600060208201905061343c600083018461339c565b92915050565b600081519050919050565b600082825260208201905092915050565b6000819050602082019050919050565b600061347a8383612dbe565b905092915050565b6000602082019050919050565b600061349a82613442565b6134a4818561344d565b9350836020820285016134b68561345e565b8060005b858110156134f257848403895281516134d3858261346e565b94506134de83613482565b925060208a019950506001810190506134ba565b50829750879550505050505092915050565b6000602082019050818103600083015261351e818461348f565b905092915050565b61352f81612ced565b82525050565b600060208201905061354a6000830184613526565b92915050565b6000806040838503121561356757613566612cc3565b5b600083013567ffffffffffffffff81111561358557613584612cc8565b5b61359185828601613207565b92505060206135a28582860161303f565b9150509250929050565b6000806000606084860312156135c5576135c4612cc3565b5b600084013567ffffffffffffffff8111156135e3576135e2612cc8565b5b6135ef86828701613207565b93505060206136008682870161303f565b925050604061361186828701613098565b9150509250925092565b6000606082019050613630600083018661339c565b81810360208301526136428185613354565b9050613651604083018461339c565b949350505050565b60006101208201905061366f600083018c613526565b8181036020830152613681818b613354565b9050613690604083018a61338d565b61369d606083018961338d565b6136aa6080830188612ffe565b6136b760a0830187612ffe565b6136c460c0830186612ffe565b6136d160e083018561339c565b6136df61010083018461338d565b9a9950505050505050505050565b60006136f882612f57565b9050919050565b613708816136ed565b82525050565b600060208201905061372360008301846136ff565b92915050565b7f4e487b7100000000000000000000000000000000000000000000000000000000600052602260045260246000fd5b6000600282049050600182168061377057607f821691505b60208210810361378357613782613729565b5b50919050565b7f43616e6e6f7420656e61626c6520776974686f75742076657269666965720000600082015250565b60006137bf601e83613343565b91506137ca82613789565b602082019050919050565b600060208201905081810360008301526137ee816137b2565b9050919050565b7f4e6f20616374697665206173736573736d656e74000000000000000000000000600082015250565b600061382b601483613343565b9150613836826137f5565b602082019050919050565b6000602082019050818103600083015261385a8161381e565b9050919050565b7f4173736573736d656e7420616c726561647920636f6d706c6574656400000000600082015250565b6000613897601c83613343565b91506138a282613861565b602082019050919050565b600060208201905081810360008301526138c68161388a565b9050919050565b7f416e737765727320686173682063616e6e6f7420626520656d70747900000000600082015250565b6000613903601c83613343565b915061390e826138cd565b602082019050919050565b60006020820190508181036000830152613932816138f6565b9050919050565b600060408201905061394e600083018561338d565b61395b6020830184612ffe565b9392505050565b7f4e6f20616e7377657273207375626d6974746564000000000000000000000000600082015250565b6000613998601483613343565b91506139a382613962565b602082019050919050565b600060208201905081810360008301526139c78161398b565b9050919050565b7f4e487b7100000000000000000000000000000000000000000000000000000000600052601160045260246000fd5b6000613a0882612e10565b9150613a1383612e10565b9250828202613a2181612e10565b91508282048414831517613a3857613a376139ce565b5b5092915050565b7f4e487b7100000000000000000000000000000000000000000000000000000000600052601260045260246000fd5b6000613a7982612e10565b9150613a8483612e10565b925082613a9457613a93613a3f565b5b828204905092915050565b6000604082019050613ab46000830185613526565b613ac16020830184612ffe565b9392505050565b6000606082019050613add600083018661338d565b613aea6020830185612ffe565b613af76040830184612ffe565b949350505050565b600081905092915050565b6000613b1582612d67565b613b1f8185613aff565b9350613b2f818560208601612d83565b80840191505092915050565b6000613b478284613b0a565b915081905092915050565b7f5175657374696f6e2073657420646f6573206e6f742065786973740000000000600082015250565b6000613b88601b83613343565b9150613b9382613b52565b602082019050919050565b60006020820190508181036000830152613bb781613b7b565b9050919050565b7f5175657374696f6e20736574206973206e6f7420616374697665000000000000600082015250565b6000613bf4601a83613343565b9150613bff82613bbe565b602082019050919050565b60006020820190508181036000830152613c2381613be7565b9050919050565b60008190508160005260206000209050919050565b60006020601f8301049050919050565b600082821b905092915050565b600060088302613c8c7fffffffffffffffffffffffffffffffffffffffffffffffffffffffffffffffff82613c4f565b613c968683613c4f565b95508019841693508086168417925050509392505050565b6000613cc9613cc4613cbf84612e10565b612f2b565b612e10565b9050919050565b6000819050919050565b613ce383613cae565b613cf7613cef82613cd0565b848454613c5c565b825550505050565b600090565b613d0c613cff565b613d17818484613cda565b505050565b5b81811015613d3b57613d30600082613d04565b600181019050613d1d565b5050565b601f821115613d8057613d5181613c2a565b613d5a84613c3f565b81016020851015613d69578190505b613d7d613d7585613c3f565b830182613d1c565b50505b505050565b600082821c905092915050565b6000613da360001984600802613d85565b1980831691505092915050565b6000613dbc8383613d92565b9150826002028217905092915050565b613dd582612d67565b67ffffffffffffffff811115613dee57613ded61310a565b5b613df88254613758565b613e03828285613d3f565b600060209050601f831160018114613e365760008415613e24578287015190505b613e2e8582613db0565b865550613e96565b601f198416613e4486613c2a565b60005b82811015613e6c57848901518255600182019150602085019450602081019050613e47565b86831015613e895784890151613e85601f891682613d92565b8355505b6001600288020188555050505b505050505050565b60006040820190508181036000830152613eb88185613354565b9050613ec76020830184612ffe565b9392505050565b7f5468726573686f6c64206d757374206265206265747765656e203020616e642060008201527f3130300000000000000000000000000000000000000000000000000000000000602082015250565b6000613f2a602383613343565b9150613f3582613ece565b604082019050919050565b60006020820190508181036000830152613f5981613f1d565b9050919050565b7f566572696669636174696f6e206e6f7420656e61626c65640000000000000000600082015250565b6000613f96601883613343565b9150613fa182613f60565b602082019050919050565b60006020820190508181036000830152613fc581613f89565b9050919050565b7f50726576696f757320766572696669636174696f6e207374696c6c2070656e6460008201527f696e670000000000000000000000000000000000000000000000000000000000602082015250565b6000614028602383613343565b915061403382613fcc565b604082019050919050565b600060208201905081810360008301526140578161401b565b9050919050565b7f4e487b7100000000000000000000000000000000000000000000000000000000600052603260045260246000fd5b6000815461409a81613758565b6140a48186613aff565b945060018216600081146140bf57600181146140d457614107565b60ff1983168652811515820286019350614107565b6140dd85613c2a565b60005b838110156140ff578154818901526001820191506020810190506140e0565b838801955050505b50505092915050565b600061411c828461408d565b915081905092915050565b600061413282612e10565b91507fffffffffffffffffffffffffffffffffffffffffffffffffffffffffffffffff8203614164576141636139ce565b5b600182019050919050565b7f5175657374696f6e2073657420646f6573206e6f742065786973743a206d616b60008201527f6520737572652074686520494420697320636f72726563740000000000000000602082015250565b60006141cb603883613343565b91506141d68261416f565b604082019050919050565b600060208201905081810360008301526141fa816141be565b9050919050565b7f5175657374696f6e20736574206973206e6f74206163746976653a207468652060008201527f736574206d61792062652064697361626c6564206f7220696e2064726166742060208201527f7374617465000000000000000000000000000000000000000000000000000000604082015250565b6000614283604583613343565b915061428e82614201565b606082019050919050565b600060208201905081810360008301526142b281614276565b9050919050565b7f416e737765727320686173682063616e6e6f7420626520656d7074793a20686160008201527f736820666f726d6174206d617920626520696e636f7272656374000000000000602082015250565b6000614315603a83613343565b9150614320826142b9565b604082019050919050565b6000602082019050818103600083015261434481614308565b9050919050565b600081905092915050565b60008190508160005260206000209050919050565b6000815461437881613758565b614382818661434b565b9450600182166000811461439d57600181146143b2576143e5565b60ff19831686528115158202860193506143e5565b6143bb85614356565b60005b838110156143dd578154818901526001820191506020810190506143be565b838801955050505b50505092915050565b60006143fa828461436b565b915081905092915050565b7f596f75206861766520616c726561647920636f6d706c6574656420746869732060008201527f6173736573736d656e743a206475706c6963617465207375626d697373696f6e60208201527f7320617265206e6f7420616c6c6f776564000000000000000000000000000000604082015250565b6000614487605183613343565b915061449282614405565b606082019050919050565b600060208201905081810360008301526144b68161447a565b9050919050565b7f416e73776572207665726966696572206e6f74207365743a20636f6e7472616360008201527f7420636f6e66696775726174696f6e2069737375650000000000000000000000602082015250565b6000614519603583613343565b9150614524826144bd565b604082019050919050565b600060208201905081810360008301526145488161450c565b9050919050565b600067ffffffffffffffff82169050919050565b61456c8161454f565b811461457757600080fd5b50565b60008151905061458981614563565b92915050565b6000602082840312156145a5576145a4612cc3565b5b60006145b38482850161457a565b91505092915050565b7f436861696e6c696e6b2046756e6374696f6e7320737562736372697074696f6e60008201527f204944206e6f74207365743a207665726966696572206d6973636f6e6669677560208201527f7265640000000000000000000000000000000000000000000000000000000000604082015250565b600061463e604383613343565b9150614649826145bc565b606082019050919050565b6000602082019050818103600083015261466d81614631565b9050919050565b60008151905061468381613028565b92915050565b60006020828403121561469f5761469e612cc3565b5b60006146ad84828501614674565b91505092915050565b7f436861696e6c696e6b2046756e6374696f6e7320444f4e204944206e6f74207360008201527f65743a207665726966696572206d6973636f6e66696775726564000000000000602082015250565b6000614712603a83613343565b915061471d826146b6565b604082019050919050565b6000602082019050818103600083015261474181614705565b9050919050565b7f5175657374696f6e207365742049442063616e6e6f7420626520656d70747900600082015250565b600061477e601f83613343565b915061478982614748565b602082019050919050565b600060208201905081810360008301526147ad81614771565b9050919050565b7f436f6e74656e7420686173682063616e6e6f7420626520656d70747900000000600082015250565b60006147ea601c83613343565b91506147f5826147b4565b602082019050919050565b60006020820190508181036000830152614819816147dd565b9050919050565b7f5175657374696f6e20636f756e74206d7573742062652067726561746572207460008201527f68616e207a65726f000000000000000000000000000000000000000000000000602082015250565b600061487c602883613343565b915061488782614820565b604082019050919050565b600060208201905081810360008301526148ab8161486f565b9050919050565b7f4f776e61626c653a206e6577206f776e657220697320746865207a65726f206160008201527f6464726573730000000000000000000000000000000000000000000000000000602082015250565b600061490e602683613343565b9150614919826148b2565b604082019050919050565b6000602082019050818103600083015261493d81614901565b9050919050565b7f4e6f2070656e64696e6720766572696669636174696f6e000000000000000000600082015250565b600061497a601783613343565b915061498582614944565b602082019050919050565b600060208201905081810360008301526149a98161496d565b9050919050565b7f4f776e61626c653a2063616c6c6572206973206e6f7420746865206f776e6572600082015250565b60006149e6602083613343565b91506149f1826149b0565b602082019050919050565b60006020820190508181036000830152614a15816149d9565b9050919050565b60008154614a2981613758565b614a338186613343565b94506001821660008114614a4e5760018114614a6457614a97565b60ff198316865281151560200286019350614a97565b614a6d85613c2a565b60005b83811015614a8f57815481890152600182019150602081019050614a70565b808801955050505b50505092915050565b6000608082019050614ab56000830187613526565b8181036020830152614ac78186614a1c565b9050614ad6604083018561338d565b614ae3606083018461338d565b95945050505050565b60006040820190508181036000830152614b068185614a1c565b9050614b15602083018461338d565b9392505050565b6000602082019050614b31600083018461338d565b92915050565b600081519050614b4681612fa5565b92915050565b600081519050614b5b81613081565b92915050565b60008060008060808587031215614b7b57614b7a612cc3565b5b6000614b8987828801614b37565b9450506020614b9a87828801614b37565b9350506040614bab87828801614b4c565b9250506060614bbc87828801614674565b9150509295919450925056fea26469706673582212207136b55ba5b979f303c1ce94170a3ed3915c586eed822116c66b79f9d77e12ec64736f6c63430008130033",
  "linkReferences": {},
  "deployedLinkReferences": {}
}