{
  "_format": "hh-sol-artifact-1",
  "contractName": "PuzzlePoints",
  "sourceName": "contracts/PuzzlePoints.sol",
  "abi": [
    {
      "inputs": [],
      "stateMutability": "nonpayable",
      "type": "constructor"
    },
    {
      "anonymous": false,
      "inputs": [
        {
          "indexed": true,
          "internalType": "address",
          "name": "owner",
          "type": "address"
        },
        {
          "indexed": true,
          "internalType": "address",
          "name": "spender",
          "type": "address"
        },
        {
          "indexed": false,
          "internalType": "uint256",
          "name": "value",
          "type": "uint256"
        }
      ],
      "name": "Approval",
      "type": "event"
    },
    {
      "anonymous": false,
      "inputs": [
        {
          "indexed": true,
          "internalType": "address",
          "name": "holder",
          "type": "address"
        }
      ],
      "name": "HolderAdded",
      "type": "event"
    },
    {
      "anonymous": false,
      "inputs": [
        {
          "indexed": true,
          "internalType": "address",
          "name": "holder",
          "type": "address"
        }
      ],
      "name": "HolderRemoved",
      "type": "event"
    },
    {
      "anonymous": false,
      "inputs": [
        {
          "indexed": true,
          "internalType": "address",
          "name": "previousOwner",
          "type": "address"
        },
        {
          "indexed": true,
          "internalType": "address",
          "name": "newOwner",
          "type": "address"
        }
      ],
      "name": "OwnershipTransferred",
      "type": "event"
    },
    {
      "anonymous": false,
      "inputs": [
        {
          "indexed": true,
          "internalType": "address",
          "name": "from",
          "type": "address"
        },
        {
          "indexed": true,
          "internalType": "address",
          "name": "to",
          "type": "address"
        },
        {
          "indexed": false,
          "internalType": "uint256",
          "name": "value",
          "type": "uint256"
        }
      ],
      "name": "Transfer",
      "type": "event"
    },
    {
      "inputs": [
        {
          "internalType": "address",
          "name": "owner",
          "type": "address"
        },
        {
          "internalType": "address",
          "name": "spender",
          "type": "address"
        }
      ],
      "name": "allowance",
      "outputs": [
        {
          "internalType": "uint256",
          "name": "",
          "type": "uint256"
        }
      ],
      "stateMutability": "view",
      "type": "function"
    },
    {
      "inputs": [
        {
          "internalType": "address",
          "name": "spender",
          "type": "address"
        },
        {
          "internalType": "uint256",
          "name": "amount",
          "type": "uint256"
        }
      ],
      "name": "approve",
      "outputs": [
        {
          "internalType": "bool",
          "name": "",
          "type": "bool"
        }
      ],
      "stateMutability": "nonpayable",
      "type": "function"
    },
    {
      "inputs": [
        {
          "internalType": "address",
          "name": "account",
          "type": "address"
        }
      ],
      "name": "balanceOf",
      "outputs": [
        {
          "internalType": "uint256",
          "name": "",
          "type": "uint256"
        }
      ],
      "stateMutability": "view",
      "type": "function"
    },
    {
      "inputs": [],
      "name": "decimals",
      "outputs": [
        {
          "internalType": "uint8",
          "name": "",
          "type": "uint8"
        }
      ],
      "stateMutability": "view",
      "type": "function"
    },
    {
      "inputs": [
        {
          "internalType": "address",
          "name": "spender",
          "type": "address"
        },
        {
          "internalType": "uint256",
          "name": "subtractedValue",
          "type": "uint256"
        }
      ],
      "name": "decreaseAllowance",
      "outputs": [
        {
          "internalType": "bool",
          "name": "",
          "type": "bool"
        }
      ],
      "stateMutability": "nonpayable",
      "type": "function"
    },
    {
      "inputs": [],
      "name": "getHolderCount",
      "outputs": [
        {
          "internalType": "uint256",
          "name": "",
          "type": "uint256"
        }
      ],
      "stateMutability": "view",
      "type": "function"
    },
    {
      "inputs": [
        {
          "internalType": "uint256",
          "name": "offset",
          "type": "uint256"
        },
        {
          "internalType": "uint256",
          "name": "limit",
          "type": "uint256"
        }
      ],
      "name": "getHolders",
      "outputs": [
        {
          "internalType": "address[]",
          "name": "addresses",
          "type": "address[]"
        },
        {
          "internalType": "uint256[]",
          "name": "balances",
          "type": "uint256[]"
        }
      ],
      "stateMutability": "view",
      "type": "function"
    },
    {
      "inputs": [
        {
          "internalType": "uint256",
          "name": "count",
          "type": "uint256"
        }
      ],
      "name": "getTopHolders",
      "outputs": [
        {
          "internalType": "address[]",
          "name": "addresses",
          "type": "address[]"
        },
        {
          "internalType": "uint256[]",
          "name": "balances",
          "type": "uint256[]"
        }
      ],
      "stateMutability": "view",
      "type": "function"
    },
    {
      "inputs": [
        {
          "internalType": "address",
          "name": "spender",
          "type": "address"
        },
        {
          "internalType": "uint256",
          "name": "addedValue",
          "type": "uint256"
        }
      ],
      "name": "increaseAllowance",
      "outputs": [
        {
          "internalType": "bool",
          "name": "",
          "type": "bool"
        }
      ],
      "stateMutability": "nonpayable",
      "type": "function"
    },
    {
      "inputs": [
        {
          "internalType": "address",
          "name": "account",
          "type": "address"
        }
      ],
      "name": "isHolder",
      "outputs": [
        {
          "internalType": "bool",
          "name": "",
          "type": "bool"
        }
      ],
      "stateMutability": "view",
      "type": "function"
    },
    {
      "inputs": [
        {
          "internalType": "address",
          "name": "to",
          "type": "address"
        },
        {
          "internalType": "uint256",
          "name": "amount",
          "type": "uint256"
        }
      ],
      "name": "mint",
      "outputs": [],
      "stateMutability": "nonpayable",
      "type": "function"
    },
    {
      "inputs": [],
      "name": "name",
      "outputs": [
        {
          "internalType": "string",
          "name": "",
          "type": "string"
        }
      ],
      "stateMutability": "view",
      "type": "function"
    },
    {
      "inputs": [],
      "name": "owner",
      "outputs": [
        {
          "internalType": "address",
          "name": "",
          "type": "address"
        }
      ],
      "stateMutability": "view",
      "type": "function"
    },
    {
      "inputs": [],
      "name": "renounceOwnership",
      "outputs": [],
      "stateMutability": "nonpayable",
      "type": "function"
    },
    {
      "inputs": [],
      "name": "symbol",
      "outputs": [
        {
          "internalType": "string",
          "name": "",
          "type": "string"
        }
      ],
      "stateMutability": "view",
      "type": "function"
    },
    {
      "inputs": [],
      "name": "totalSupply",
      "outputs": [
        {
          "internalType": "uint256",
          "name": "",
          "type": "uint256"
        }
      ],
      "stateMutability": "view",
      "type": "function"
    },
    {
      "inputs": [
        {
          "internalType": "address",
          "name": "to",
          "type": "address"
        },
        {
          "internalType": "uint256",
          "name": "amount",
          "type": "uint256"
        }
      ],
      "name": "transfer",
      "outputs": [
        {
          "internalType": "bool",
          "name": "",
          "type": "bool"
        }
      ],
      "stateMutability": "nonpayable",
      "type": "function"
    },
    {
      "inputs": [
        {
          "internalType": "address",
          "name": "from",
          "type": "address"
        },
        {
          "internalType": "address",
          "name": "to",
          "type": "address"
        },
        {
          "internalType": "uint256",
          "name": "amount",
          "type": "uint256"
        }
      ],
      "name": "transferFrom",
      "outputs": [
        {
          "internalType": "bool",
          "name": "",
          "type": "bool"
        }
      ],
      "stateMutability": "nonpayable",
      "type": "function"
    },
    {
      "inputs": [
        {
          "internalType": "address",
          "name": "newOwner",
          "type": "address"
        }
      ],
      "name": "transferOwnership",
      "outputs": [],
      "stateMutability": "nonpayable",
      "type": "function"
    }
  ],
  "bytecode": "0x60806040523480156200001157600080fd5b506040518060400160405280600d81526020017f50757a7a6c6520506f696e7473000000000000000000000000000000000000008152506040518060400160405280600281526020017f505000000000000000000000000000000000000000000000000000000000000081525081600390816200008f919062000423565b508060049081620000a1919062000423565b505050620000c4620000b8620000db60201b60201c565b620000e360201b60201c565b620000d533620000e360201b60201c565b6200050a565b600033905090565b6000600560009054906101000a900473ffffffffffffffffffffffffffffffffffffffff16905081600560006101000a81548173ffffffffffffffffffffffffffffffffffffffff021916908373ffffffffffffffffffffffffffffffffffffffff1602179055508173ffffffffffffffffffffffffffffffffffffffff168173ffffffffffffffffffffffffffffffffffffffff167f8be0079c531659141344cd1fd0a4f28419497f9722a3daafe3b4186f6b6457e060405160405180910390a35050565b600081519050919050565b7f4e487b7100000000000000000000000000000000000000000000000000000000600052604160045260246000fd5b7f4e487b7100000000000000000000000000000000000000000000000000000000600052602260045260246000fd5b600060028204905060018216806200022b57607f821691505b602082108103620002415762000240620001e3565b5b50919050565b60008190508160005260206000209050919050565b60006020601f8301049050919050565b600082821b905092915050565b600060088302620002ab7fffffffffffffffffffffffffffffffffffffffffffffffffffffffffffffffff826200026c565b620002b786836200026c565b95508019841693508086168417925050509392505050565b6000819050919050565b6000819050919050565b600062000304620002fe620002f884620002cf565b620002d9565b620002cf565b9050919050565b6000819050919050565b6200032083620002e3565b620003386200032f826200030b565b84845462000279565b825550505050565b600090565b6200034f62000340565b6200035c81848462000315565b505050565b5b8181101562000384576200037860008262000345565b60018101905062000362565b5050565b601f821115620003d3576200039d8162000247565b620003a8846200025c565b81016020851015620003b8578190505b620003d0620003c7856200025c565b83018262000361565b50505b505050565b600082821c905092915050565b6000620003f860001984600802620003d8565b1980831691505092915050565b6000620004138383620003e5565b9150826002028217905092915050565b6200042e82620001a9565b67ffffffffffffffff8111156200044a5762000449620001b4565b5b62000456825462000212565b6200046382828562000388565b600060209050601f8311600181146200049b576000841562000486578287015190505b62000492858262000405565b86555062000502565b601f198416620004ab8662000247565b60005b82811015620004d557848901518255600182019150602085019450602081019050620004ae565b86831015620004f55784890151620004f1601f891682620003e5565b8355505b6001600288020188555050505b505050505050565b612a12806200051a6000396000f3fe608060405234801561001057600080fd5b50600436106101215760003560e01c8063715018a6116100ad578063b569807111610071578063b569807114610320578063b6b8060514610351578063d4d7b19a14610382578063dd62ed3e146103b2578063f2fde38b146103e257610121565b8063715018a61461027a5780638da5cb5b1461028457806395d89b41146102a2578063a457c2d7146102c0578063a9059cbb146102f057610121565b8063313ce567116100f4578063313ce567146101c257806339509351146101e057806340c10f191461021057806370a082311461022c5780637136982b1461025c57610121565b806306fdde0314610126578063095ea7b31461014457806318160ddd1461017457806323b872dd14610192575b600080fd5b61012e6103fe565b60405161013b9190611cc8565b60405180910390f35b61015e60048036038101906101599190611d83565b610490565b60405161016b9190611dde565b60405180910390f35b61017c6104b3565b6040516101899190611e08565b60405180910390f35b6101ac60048036038101906101a79190611e23565b6104bd565b6040516101b99190611dde565b60405180910390f35b6101ca6104ec565b6040516101d79190611e92565b60405180910390f35b6101fa60048036038101906101f59190611d83565b6104f5565b6040516102079190611dde565b60405180910390f35b61022a60048036038101906102259190611d83565b61052c565b005b61024660048036038101906102419190611ead565b610567565b6040516102539190611e08565b60405180910390f35b6102646105af565b6040516102719190611e08565b60405180910390f35b6102826105bc565b005b61028c6105d0565b6040516102999190611ee9565b60405180910390f35b6102aa6105fa565b6040516102b79190611cc8565b60405180910390f35b6102da60048036038101906102d59190611d83565b61068c565b6040516102e79190611dde565b60405180910390f35b61030a60048036038101906103059190611d83565b610703565b6040516103179190611dde565b60405180910390f35b61033a60048036038101906103359190611f04565b610726565b6040516103489291906120c0565b60405180910390f35b61036b600480360381019061036691906120f7565b610997565b6040516103799291906120c0565b60405180910390f35b61039c60048036038101906103979190611ead565b610e70565b6040516103a99190611dde565b60405180910390f35b6103cc60048036038101906103c79190612124565b610e82565b6040516103d99190611e08565b60405180910390f35b6103fc60048036038101906103f79190611ead565b610f09565b005b60606003805461040d90612193565b80601f016020809104026020016040519081016040528092919081815260200182805461043990612193565b80156104865780601f1061045b57610100808354040283529160200191610486565b820191906000526020600020905b81548152906001019060200180831161046957829003601f168201915b5050505050905090565b60008061049b610f8c565b90506104a8818585610f94565b600191505092915050565b6000600254905090565b6000806104c8610f8c565b90506104d585828561115d565b6104e08585856111e9565b60019150509392505050565b60006012905090565b600080610500610f8c565b90506105218185856105128589610e82565b61051c91906121f3565b610f94565b600191505092915050565b6105346112f6565b61053e8282611374565b6000811180156105545750610552826114ca565b155b156105635761056282611516565b5b5050565b60008060008373ffffffffffffffffffffffffffffffffffffffff1673ffffffffffffffffffffffffffffffffffffffff168152602001908152602001600020549050919050565b6000600680549050905090565b6105c46112f6565b6105ce6000611677565b565b6000600560009054906101000a900473ffffffffffffffffffffffffffffffffffffffff16905090565b60606004805461060990612193565b80601f016020809104026020016040519081016040528092919081815260200182805461063590612193565b80156106825780601f1061065757610100808354040283529160200191610682565b820191906000526020600020905b81548152906001019060200180831161066557829003601f168201915b5050505050905090565b600080610697610f8c565b905060006106a58286610e82565b9050838110156106ea576040517f08c379a00000000000000000000000000000000000000000000000000000000081526004016106e190612299565b60405180910390fd5b6106f78286868403610f94565b60019250505092915050565b60008061070e610f8c565b905061071b8185856111e9565b600191505092915050565b606080600060068054905090508085106107d857600067ffffffffffffffff811115610755576107546122b9565b5b6040519080825280602002602001820160405280156107835781602001602082028036833780820191505090505b50600067ffffffffffffffff81111561079f5761079e6122b9565b5b6040519080825280602002602001820160405280156107cd5781602001602082028036833780820191505090505b509250925050610990565b60008490508181876107ea91906121f3565b11156107ff5785826107fc91906122e8565b90505b8067ffffffffffffffff811115610819576108186122b9565b5b6040519080825280602002602001820160405280156108475781602001602082028036833780820191505090505b5093508067ffffffffffffffff811115610864576108636122b9565b5b6040519080825280602002602001820160405280156108925781602001602082028036833780820191505090505b50925060005b8181101561098c57600681886108ae91906121f3565b815481106108bf576108be61231c565b5b9060005260206000200160009054906101000a900473ffffffffffffffffffffffffffffffffffffffff168582815181106108fd576108fc61231c565b5b602002602001019073ffffffffffffffffffffffffffffffffffffffff16908173ffffffffffffffffffffffffffffffffffffffff168152505061095a85828151811061094d5761094c61231c565b5b6020026020010151610567565b84828151811061096d5761096c61231c565b5b60200260200101818152505080806109849061234b565b915050610898565b5050505b9250929050565b60608060006006805490509050808411156109b0578093505b60008167ffffffffffffffff8111156109cc576109cb6122b9565b5b6040519080825280602002602001820160405280156109fa5781602001602082028036833780820191505090505b50905060008267ffffffffffffffff811115610a1957610a186122b9565b5b604051908082528060200260200182016040528015610a475781602001602082028036833780820191505090505b50905060005b83811015610b365760068181548110610a6957610a6861231c565b5b9060005260206000200160009054906101000a900473ffffffffffffffffffffffffffffffffffffffff16838281518110610aa757610aa661231c565b5b602002602001019073ffffffffffffffffffffffffffffffffffffffff16908173ffffffffffffffffffffffffffffffffffffffff1681525050610b04838281518110610af757610af661231c565b5b6020026020010151610567565b828281518110610b1757610b1661231c565b5b6020026020010181815250508080610b2e9061234b565b915050610a4d565b5060005b86811015610d10576000600182610b5191906121f3565b90505b84811015610cfc57828281518110610b6f57610b6e61231c565b5b6020026020010151838281518110610b8a57610b8961231c565b5b60200260200101511115610ce9576000838381518110610bad57610bac61231c565b5b60200260200101519050838281518110610bca57610bc961231c565b5b6020026020010151848481518110610be557610be461231c565b5b60200260200101818152505080848381518110610c0557610c0461231c565b5b6020026020010181815250506000858481518110610c2657610c2561231c565b5b60200260200101519050858381518110610c4357610c4261231c565b5b6020026020010151868581518110610c5e57610c5d61231c565b5b602002602001019073ffffffffffffffffffffffffffffffffffffffff16908173ffffffffffffffffffffffffffffffffffffffff168152505080868481518110610cac57610cab61231c565b5b602002602001019073ffffffffffffffffffffffffffffffffffffffff16908173ffffffffffffffffffffffffffffffffffffffff168152505050505b8080610cf49061234b565b915050610b54565b508080610d089061234b565b915050610b3a565b508567ffffffffffffffff811115610d2b57610d2a6122b9565b5b604051908082528060200260200182016040528015610d595781602001602082028036833780820191505090505b5094508567ffffffffffffffff811115610d7657610d756122b9565b5b604051908082528060200260200182016040528015610da45781602001602082028036833780820191505090505b50935060005b86811015610e6757828181518110610dc557610dc461231c565b5b6020026020010151868281518110610de057610ddf61231c565b5b602002602001019073ffffffffffffffffffffffffffffffffffffffff16908173ffffffffffffffffffffffffffffffffffffffff1681525050818181518110610e2d57610e2c61231c565b5b6020026020010151858281518110610e4857610e4761231c565b5b6020026020010181815250508080610e5f9061234b565b915050610daa565b50505050915091565b6000610e7b826114ca565b9050919050565b6000600160008473ffffffffffffffffffffffffffffffffffffffff1673ffffffffffffffffffffffffffffffffffffffff16815260200190815260200160002060008373ffffffffffffffffffffffffffffffffffffffff1673ffffffffffffffffffffffffffffffffffffffff16815260200190815260200160002054905092915050565b610f116112f6565b600073ffffffffffffffffffffffffffffffffffffffff168173ffffffffffffffffffffffffffffffffffffffff1603610f80576040517f08c379a0000000000000000000000000000000000000000000000000000000008152600401610f7790612405565b60405180910390fd5b610f8981611677565b50565b600033905090565b600073ffffffffffffffffffffffffffffffffffffffff168373ffffffffffffffffffffffffffffffffffffffff1603611003576040517f08c379a0000000000000000000000000000000000000000000000000000000008152600401610ffa90612497565b60405180910390fd5b600073ffffffffffffffffffffffffffffffffffffffff168273ffffffffffffffffffffffffffffffffffffffff1603611072576040517f08c379a000000000000000000000000000000000000000000000000000000000815260040161106990612529565b60405180910390fd5b80600160008573ffffffffffffffffffffffffffffffffffffffff1673ffffffffffffffffffffffffffffffffffffffff16815260200190815260200160002060008473ffffffffffffffffffffffffffffffffffffffff1673ffffffffffffffffffffffffffffffffffffffff168152602001908152602001600020819055508173ffffffffffffffffffffffffffffffffffffffff168373ffffffffffffffffffffffffffffffffffffffff167f8c5be1e5ebec7d5bd14f71427d1e84f3dd0314c0f7b2291e5b200ac8c7c3b925836040516111509190611e08565b60405180910390a3505050565b60006111698484610e82565b90507fffffffffffffffffffffffffffffffffffffffffffffffffffffffffffffffff81146111e357818110156111d5576040517f08c379a00000000000000000000000000000000000000000000000000000000081526004016111cc90612595565b60405180910390fd5b6111e28484848403610f94565b5b50505050565b600073ffffffffffffffffffffffffffffffffffffffff168373ffffffffffffffffffffffffffffffffffffffff16141580156112535750600073ffffffffffffffffffffffffffffffffffffffff168273ffffffffffffffffffffffffffffffffffffffff1614155b15611293576040517f08c379a000000000000000000000000000000000000000000000000000000000815260040161128a90612601565b60405180910390fd5b61129e83838361173d565b600073ffffffffffffffffffffffffffffffffffffffff168273ffffffffffffffffffffffffffffffffffffffff161480156112e2575060006112e084610567565b145b156112f1576112f0836119b3565b5b505050565b6112fe610f8c565b73ffffffffffffffffffffffffffffffffffffffff1661131c6105d0565b73ffffffffffffffffffffffffffffffffffffffff1614611372576040517f08c379a00000000000000000000000000000000000000000000000000000000081526004016113699061266d565b60405180910390fd5b565b600073ffffffffffffffffffffffffffffffffffffffff168273ffffffffffffffffffffffffffffffffffffffff16036113e3576040517f08c379a00000000000000000000000000000000000000000000000000000000081526004016113da906126d9565b60405180910390fd5b6113ef60008383611c2e565b806002600082825461140191906121f3565b92505081905550806000808473ffffffffffffffffffffffffffffffffffffffff1673ffffffffffffffffffffffffffffffffffffffff168152602001908152602001600020600082825401925050819055508173ffffffffffffffffffffffffffffffffffffffff16600073ffffffffffffffffffffffffffffffffffffffff167fddf252ad1be2c89b69c2b068fc378daa952ba7f163c4a11628f55a4df523b3ef836040516114b29190611e08565b60405180910390a36114c660008383611c33565b5050565b600080600760008473ffffffffffffffffffffffffffffffffffffffff1673ffffffffffffffffffffffffffffffffffffffff1681526020019081526020016000205414159050919050565b600073ffffffffffffffffffffffffffffffffffffffff168173ffffffffffffffffffffffffffffffffffffffff1603611585576040517f08c379a000000000000000000000000000000000000000000000000000000000815260040161157c9061276b565b60405180910390fd5b6006819080600181540180825580915050600190039060005260206000200160009091909190916101000a81548173ffffffffffffffffffffffffffffffffffffffff021916908373ffffffffffffffffffffffffffffffffffffffff160217905550600680549050600760008373ffffffffffffffffffffffffffffffffffffffff1673ffffffffffffffffffffffffffffffffffffffff168152602001908152602001600020819055508073ffffffffffffffffffffffffffffffffffffffff167f9894d458cf29e8bc4eb7e591bac54b31dc90125dfa852474419972ab4347dd1260405160405180910390a250565b6000600560009054906101000a900473ffffffffffffffffffffffffffffffffffffffff16905081600560006101000a81548173ffffffffffffffffffffffffffffffffffffffff021916908373ffffffffffffffffffffffffffffffffffffffff1602179055508173ffffffffffffffffffffffffffffffffffffffff168173ffffffffffffffffffffffffffffffffffffffff167f8be0079c531659141344cd1fd0a4f28419497f9722a3daafe3b4186f6b6457e060405160405180910390a35050565b600073ffffffffffffffffffffffffffffffffffffffff168373ffffffffffffffffffffffffffffffffffffffff16036117ac576040517f08c379a00000000000000000000000000000000000000000000000000000000081526004016117a3906127fd565b60405180910390fd5b600073ffffffffffffffffffffffffffffffffffffffff168273ffffffffffffffffffffffffffffffffffffffff160361181b576040517f08c379a00000000000000000000000000000000000000000000000000000000081526004016118129061288f565b60405180910390fd5b611826838383611c2e565b60008060008573ffffffffffffffffffffffffffffffffffffffff1673ffffffffffffffffffffffffffffffffffffffff168152602001908152602001600020549050818110156118ac576040517f08c379a00000000000000000000000000000000000000000000000000000000081526004016118a390612921565b60405180910390fd5b8181036000808673ffffffffffffffffffffffffffffffffffffffff1673ffffffffffffffffffffffffffffffffffffffff16815260200190815260200160002081905550816000808573ffffffffffffffffffffffffffffffffffffffff1673ffffffffffffffffffffffffffffffffffffffff168152602001908152602001600020600082825401925050819055508273ffffffffffffffffffffffffffffffffffffffff168473ffffffffffffffffffffffffffffffffffffffff167fddf252ad1be2c89b69c2b068fc378daa952ba7f163c4a11628f55a4df523b3ef8460405161199a9190611e08565b60405180910390a36119ad848484611c33565b50505050565b6119bc816114ca565b6119fb576040517f08c379a00000000000000000000000000000000000000000000000000000000081526004016119f29061298d565b60405180910390fd5b60006001600760008473ffffffffffffffffffffffffffffffffffffffff1673ffffffffffffffffffffffffffffffffffffffff16815260200190815260200160002054611a4991906122e8565b905060006001600680549050611a5f91906122e8565b9050808214611b5a57600060068281548110611a7e57611a7d61231c565b5b9060005260206000200160009054906101000a900473ffffffffffffffffffffffffffffffffffffffff1690508060068481548110611ac057611abf61231c565b5b9060005260206000200160006101000a81548173ffffffffffffffffffffffffffffffffffffffff021916908373ffffffffffffffffffffffffffffffffffffffff160217905550600183611b1591906121f3565b600760008373ffffffffffffffffffffffffffffffffffffffff1673ffffffffffffffffffffffffffffffffffffffff16815260200190815260200160002081905550505b6006805480611b6c57611b6b6129ad565b5b6001900381819060005260206000200160006101000a81549073ffffffffffffffffffffffffffffffffffffffff021916905590556000600760008573ffffffffffffffffffffffffffffffffffffffff1673ffffffffffffffffffffffffffffffffffffffff168152602001908152602001600020819055508273ffffffffffffffffffffffffffffffffffffffff167fd9bc583d1445615d8b795b7374f03ff79efa83b6359a91331efd95e4cf023ab660405160405180910390a2505050565b505050565b505050565b600081519050919050565b600082825260208201905092915050565b60005b83811015611c72578082015181840152602081019050611c57565b60008484015250505050565b6000601f19601f8301169050919050565b6000611c9a82611c38565b611ca48185611c43565b9350611cb4818560208601611c54565b611cbd81611c7e565b840191505092915050565b60006020820190508181036000830152611ce28184611c8f565b905092915050565b600080fd5b600073ffffffffffffffffffffffffffffffffffffffff82169050919050565b6000611d1a82611cef565b9050919050565b611d2a81611d0f565b8114611d3557600080fd5b50565b600081359050611d4781611d21565b92915050565b6000819050919050565b611d6081611d4d565b8114611d6b57600080fd5b50565b600081359050611d7d81611d57565b92915050565b60008060408385031215611d9a57611d99611cea565b5b6000611da885828601611d38565b9250506020611db985828601611d6e565b9150509250929050565b60008115159050919050565b611dd881611dc3565b82525050565b6000602082019050611df36000830184611dcf565b92915050565b611e0281611d4d565b82525050565b6000602082019050611e1d6000830184611df9565b92915050565b600080600060608486031215611e3c57611e3b611cea565b5b6000611e4a86828701611d38565b9350506020611e5b86828701611d38565b9250506040611e6c86828701611d6e565b9150509250925092565b600060ff82169050919050565b611e8c81611e76565b82525050565b6000602082019050611ea76000830184611e83565b92915050565b600060208284031215611ec357611ec2611cea565b5b6000611ed184828501611d38565b91505092915050565b611ee381611d0f565b82525050565b6000602082019050611efe6000830184611eda565b92915050565b60008060408385031215611f1b57611f1a611cea565b5b6000611f2985828601611d6e565b9250506020611f3a85828601611d6e565b9150509250929050565b600081519050919050565b600082825260208201905092915050565b6000819050602082019050919050565b611f7981611d0f565b82525050565b6000611f8b8383611f70565b60208301905092915050565b6000602082019050919050565b6000611faf82611f44565b611fb98185611f4f565b9350611fc483611f60565b8060005b83811015611ff5578151611fdc8882611f7f565b9750611fe783611f97565b925050600181019050611fc8565b5085935050505092915050565b600081519050919050565b600082825260208201905092915050565b6000819050602082019050919050565b61203781611d4d565b82525050565b6000612049838361202e565b60208301905092915050565b6000602082019050919050565b600061206d82612002565b612077818561200d565b93506120828361201e565b8060005b838110156120b357815161209a888261203d565b97506120a583612055565b925050600181019050612086565b5085935050505092915050565b600060408201905081810360008301526120da8185611fa4565b905081810360208301526120ee8184612062565b90509392505050565b60006020828403121561210d5761210c611cea565b5b600061211b84828501611d6e565b91505092915050565b6000806040838503121561213b5761213a611cea565b5b600061214985828601611d38565b925050602061215a85828601611d38565b9150509250929050565b7f4e487b7100000000000000000000000000000000000000000000000000000000600052602260045260246000fd5b600060028204905060018216806121ab57607f821691505b6020821081036121be576121bd612164565b5b50919050565b7f4e487b7100000000000000000000000000000000000000000000000000000000600052601160045260246000fd5b60006121fe82611d4d565b915061220983611d4d565b9250828201905080821115612221576122206121c4565b5b92915050565b7f45524332303a2064656372656173656420616c6c6f77616e63652062656c6f7760008201527f207a65726f000000000000000000000000000000000000000000000000000000602082015250565b6000612283602583611c43565b915061228e82612227565b604082019050919050565b600060208201905081810360008301526122b281612276565b9050919050565b7f4e487b7100000000000000000000000000000000000000000000000000000000600052604160045260246000fd5b60006122f382611d4d565b91506122fe83611d4d565b9250828203905081811115612316576123156121c4565b5b92915050565b7f4e487b7100000000000000000000000000000000000000000000000000000000600052603260045260246000fd5b600061235682611d4d565b91507fffffffffffffffffffffffffffffffffffffffffffffffffffffffffffffffff8203612388576123876121c4565b5b600182019050919050565b7f4f776e61626c653a206e6577206f776e657220697320746865207a65726f206160008201527f6464726573730000000000000000000000000000000000000000000000000000602082015250565b60006123ef602683611c43565b91506123fa82612393565b604082019050919050565b6000602082019050818103600083015261241e816123e2565b9050919050565b7f45524332303a20617070726f76652066726f6d20746865207a65726f2061646460008201527f7265737300000000000000000000000000000000000000000000000000000000602082015250565b6000612481602483611c43565b915061248c82612425565b604082019050919050565b600060208201905081810360008301526124b081612474565b9050919050565b7f45524332303a20617070726f766520746f20746865207a65726f20616464726560008201527f7373000000000000000000000000000000000000000000000000000000000000602082015250565b6000612513602283611c43565b915061251e826124b7565b604082019050919050565b6000602082019050818103600083015261254281612506565b9050919050565b7f45524332303a20696e73756666696369656e7420616c6c6f77616e6365000000600082015250565b600061257f601d83611c43565b915061258a82612549565b602082019050919050565b600060208201905081810360008301526125ae81612572565b9050919050565b7f506f696e747320617265206e6f6e2d7472616e7366657261626c650000000000600082015250565b60006125eb601b83611c43565b91506125f6826125b5565b602082019050919050565b6000602082019050818103600083015261261a816125de565b9050919050565b7f4f776e61626c653a2063616c6c6572206973206e6f7420746865206f776e6572600082015250565b6000612657602083611c43565b915061266282612621565b602082019050919050565b600060208201905081810360008301526126868161264a565b9050919050565b7f45524332303a206d696e7420746f20746865207a65726f206164647265737300600082015250565b60006126c3601f83611c43565b91506126ce8261268d565b602082019050919050565b600060208201905081810360008301526126f2816126b6565b9050919050565b7f43616e6e6f7420616464207a65726f206164647265737320617320686f6c646560008201527f7200000000000000000000000000000000000000000000000000000000000000602082015250565b6000612755602183611c43565b9150612760826126f9565b604082019050919050565b6000602082019050818103600083015261278481612748565b9050919050565b7f45524332303a207472616e736665722066726f6d20746865207a65726f20616460008201527f6472657373000000000000000000000000000000000000000000000000000000602082015250565b60006127e7602583611c43565b91506127f28261278b565b604082019050919050565b60006020820190508181036000830152612816816127da565b9050919050565b7f45524332303a207472616e7366657220746f20746865207a65726f206164647260008201527f6573730000000000000000000000000000000000000000000000000000000000602082015250565b6000612879602383611c43565b91506128848261281d565b604082019050919050565b600060208201905081810360008301526128a88161286c565b9050919050565b7f45524332303a207472616e7366657220616d6f756e742065786365656473206260008201527f616c616e63650000000000000000000000000000000000000000000000000000602082015250565b600061290b602683611c43565b9150612916826128af565b604082019050919050565b6000602082019050818103600083015261293a816128fe565b9050919050565b7f41646472657373206973206e6f74206120686f6c646572000000000000000000600082015250565b6000612977601783611c43565b915061298282612941565b602082019050919050565b600060208201905081810360008301526129a68161296a565b9050919050565b7f4e487b7100000000000000000000000000000000000000000000000000000000600052603160045260246000fdfea2646970667358221220c80edf2766a76ea3c03e35a46e320d71e457363e7154a8fbd4ebc93c03e8414d64736f6c63430008130033",
  "linkReferences": {},
  "deployedLinkReferences": {}
}